{
	"CarbonTrader.sol": {
		"CarbonTrader": {
			"abi": [
				{
					"inputs": [],
					"stateMutability": "nonpayable",
					"type": "constructor"
				},
				{
					"inputs": [],
					"name": "CarbonTrader__NotOwner",
					"type": "error"
				},
				{
					"inputs": [
						{
							"internalType": "address",
							"name": "uesr",
							"type": "address"
						}
					],
					"name": "destoryAllAllowance",
					"outputs": [],
					"stateMutability": "nonpayable",
					"type": "function"
				},
				{
					"inputs": [
						{
							"internalType": "address",
							"name": "uesr",
							"type": "address"
						},
						{
							"internalType": "uint256",
							"name": "destoryAmount",
							"type": "uint256"
						}
					],
					"name": "destoryAllowance",
					"outputs": [],
					"stateMutability": "nonpayable",
					"type": "function"
				},
				{
					"inputs": [
						{
							"internalType": "address",
							"name": "uesr",
							"type": "address"
						},
						{
							"internalType": "uint256",
							"name": "freezedAmount",
							"type": "uint256"
						}
					],
					"name": "freezeAllowance",
					"outputs": [],
					"stateMutability": "nonpayable",
					"type": "function"
				},
				{
					"inputs": [
						{
							"internalType": "address",
							"name": "uesr",
							"type": "address"
						}
					],
					"name": "getAllowance",
					"outputs": [
						{
							"internalType": "uint256",
							"name": "",
							"type": "uint256"
						}
					],
					"stateMutability": "view",
					"type": "function"
				},
				{
					"inputs": [
						{
							"internalType": "address",
							"name": "uesr",
							"type": "address"
						}
					],
					"name": "getFrozenAllowance",
					"outputs": [
						{
							"internalType": "uint256",
							"name": "",
							"type": "uint256"
						}
					],
					"stateMutability": "view",
					"type": "function"
				},
				{
					"inputs": [
						{
							"internalType": "address",
							"name": "uesr",
							"type": "address"
						},
						{
							"internalType": "uint256",
							"name": "amount",
							"type": "uint256"
						}
					],
					"name": "issueAllowance",
					"outputs": [],
					"stateMutability": "nonpayable",
					"type": "function"
				},
				{
					"inputs": [
						{
							"internalType": "address",
							"name": "uesr",
							"type": "address"
						},
						{
							"internalType": "uint256",
							"name": "unFreezedAmount",
							"type": "uint256"
						}
					],
					"name": "unFreezeAllowance",
					"outputs": [],
					"stateMutability": "nonpayable",
					"type": "function"
				}
			],
			"devdoc": {
				"kind": "dev",
				"methods": {},
				"version": 1
			},
			"evm": {
				"assembly": "    /* \"CarbonTrader.sol\":115:2637  contract CarbonTrader {... */\n  mstore(0x40, 0xa0)\n    /* \"CarbonTrader.sol\":542:593  constructor() {... */\n  callvalue\n  dup1\n  iszero\n  tag_1\n  jumpi\n  0x00\n  dup1\n  revert\ntag_1:\n  pop\n    /* \"CarbonTrader.sol\":576:586  msg.sender */\n  caller\n    /* \"CarbonTrader.sol\":566:586  i_owner = msg.sender */\n  0xffffffffffffffffffffffffffffffffffffffff\n  and\n  0x80\n  dup2\n  0xffffffffffffffffffffffffffffffffffffffff\n  and\n  dup2\n  mstore\n  pop\n  pop\n    /* \"CarbonTrader.sol\":115:2637  contract CarbonTrader {... */\n  mload(0x80)\n  codecopy(0x00, dataOffset(sub_0), dataSize(sub_0))\n  0x00\n  assignImmutable(\"0x8e8fab5f003314da8d1873ea7720e8d9f47650136d916064d1edb8a11d682624\")\n  return(0x00, dataSize(sub_0))\nstop\n\nsub_0: assembly {\n        /* \"CarbonTrader.sol\":115:2637  contract CarbonTrader {... */\n      mstore(0x40, 0x80)\n      callvalue\n      dup1\n      iszero\n      tag_1\n      jumpi\n      0x00\n      dup1\n      revert\n    tag_1:\n      pop\n      jumpi(tag_2, lt(calldatasize, 0x04))\n      shr(0xe0, calldataload(0x00))\n      dup1\n      0x733da7c8\n      gt\n      tag_10\n      jumpi\n      dup1\n      0x733da7c8\n      eq\n      tag_6\n      jumpi\n      dup1\n      0xadfd3a5f\n      eq\n      tag_7\n      jumpi\n      dup1\n      0xd107a5cc\n      eq\n      tag_8\n      jumpi\n      dup1\n      0xeb5a662e\n      eq\n      tag_9\n      jumpi\n      jump(tag_2)\n    tag_10:\n      dup1\n      0x19ec73e0\n      eq\n      tag_3\n      jumpi\n      dup1\n      0x69a83c84\n      eq\n      tag_4\n      jumpi\n      dup1\n      0x6c586a06\n      eq\n      tag_5\n      jumpi\n    tag_2:\n      0x00\n      dup1\n      revert\n        /* \"CarbonTrader.sol\":1625:2007  function unFreezeAllowance(address uesr, uint256 unFreezedAmount) public onlyOwner {... */\n    tag_3:\n      tag_11\n      0x04\n      dup1\n      calldatasize\n      sub\n      dup2\n      add\n      swap1\n      tag_12\n      swap2\n      swap1\n      tag_13\n      jump\t// in\n    tag_12:\n      tag_14\n      jump\t// in\n    tag_11:\n      stop\n        /* \"CarbonTrader.sol\":2055:2175  function getFrozenAllowance(address uesr) public view returns (uint256) {... */\n    tag_4:\n      tag_15\n      0x04\n      dup1\n      calldatasize\n      sub\n      dup2\n      add\n      swap1\n      tag_16\n      swap2\n      swap1\n      tag_17\n      jump\t// in\n    tag_16:\n      tag_18\n      jump\t// in\n    tag_15:\n      mload(0x40)\n      tag_19\n      swap2\n      swap1\n      tag_20\n      jump\t// in\n    tag_19:\n      mload(0x40)\n      dup1\n      swap2\n      sub\n      swap1\n      return\n        /* \"CarbonTrader.sol\":2229:2440  function destoryAllowance(address uesr, uint256 destoryAmount) public onlyOwner {... */\n    tag_5:\n      tag_21\n      0x04\n      dup1\n      calldatasize\n      sub\n      dup2\n      add\n      swap1\n      tag_22\n      swap2\n      swap1\n      tag_13\n      jump\t// in\n    tag_22:\n      tag_23\n      jump\t// in\n    tag_21:\n      stop\n        /* \"CarbonTrader.sol\":883:1008  function issueAllowance(address uesr, uint256 amount) public onlyOwner {... */\n    tag_6:\n      tag_24\n      0x04\n      dup1\n      calldatasize\n      sub\n      dup2\n      add\n      swap1\n      tag_25\n      swap2\n      swap1\n      tag_13\n      jump\t// in\n    tag_25:\n      tag_26\n      jump\t// in\n    tag_24:\n      stop\n        /* \"CarbonTrader.sol\":2488:2634  function destoryAllAllowance(address uesr) public onlyOwner {... */\n    tag_7:\n      tag_27\n      0x04\n      dup1\n      calldatasize\n      sub\n      dup2\n      add\n      swap1\n      tag_28\n      swap2\n      swap1\n      tag_17\n      jump\t// in\n    tag_28:\n      tag_29\n      jump\t// in\n    tag_27:\n      stop\n        /* \"CarbonTrader.sol\":1217:1583  function freezeAllowance(address uesr, uint256 freezedAmount) public onlyOwner {... */\n    tag_8:\n      tag_30\n      0x04\n      dup1\n      calldatasize\n      sub\n      dup2\n      add\n      swap1\n      tag_31\n      swap2\n      swap1\n      tag_13\n      jump\t// in\n    tag_31:\n      tag_32\n      jump\t// in\n    tag_30:\n      stop\n        /* \"CarbonTrader.sol\":1059:1175  function getAllowance(address uesr) public view returns(uint256) {... */\n    tag_9:\n      tag_33\n      0x04\n      dup1\n      calldatasize\n      sub\n      dup2\n      add\n      swap1\n      tag_34\n      swap2\n      swap1\n      tag_17\n      jump\t// in\n    tag_34:\n      tag_35\n      jump\t// in\n    tag_33:\n      mload(0x40)\n      tag_36\n      swap2\n      swap1\n      tag_20\n      jump\t// in\n    tag_36:\n      mload(0x40)\n      dup1\n      swap2\n      sub\n      swap1\n      return\n        /* \"CarbonTrader.sol\":1625:2007  function unFreezeAllowance(address uesr, uint256 unFreezedAmount) public onlyOwner {... */\n    tag_14:\n        /* \"CarbonTrader.sol\":723:730  i_owner */\n      immutable(\"0x8e8fab5f003314da8d1873ea7720e8d9f47650136d916064d1edb8a11d682624\")\n        /* \"CarbonTrader.sol\":709:730  msg.sender != i_owner */\n      0xffffffffffffffffffffffffffffffffffffffff\n      and\n        /* \"CarbonTrader.sol\":709:719  msg.sender */\n      caller\n        /* \"CarbonTrader.sol\":709:730  msg.sender != i_owner */\n      0xffffffffffffffffffffffffffffffffffffffff\n      and\n      eq\n        /* \"CarbonTrader.sol\":705:788  if (msg.sender != i_owner) {... */\n      tag_38\n      jumpi\n        /* \"CarbonTrader.sol\":753:777  CarbonTrader__NotOwner() */\n      mload(0x40)\n      0xcf84d5e300000000000000000000000000000000000000000000000000000000\n      dup2\n      mstore\n      0x04\n      add\n      mload(0x40)\n      dup1\n      swap2\n      sub\n      swap1\n      revert\n        /* \"CarbonTrader.sol\":705:788  if (msg.sender != i_owner) {... */\n    tag_38:\n        /* \"CarbonTrader.sol\":1755:1770  unFreezedAmount */\n      dup1\n        /* \"CarbonTrader.sol\":1727:1745  s_frozenAllowances */\n      0x01\n        /* \"CarbonTrader.sol\":1727:1751  s_frozenAllowances[uesr] */\n      0x00\n        /* \"CarbonTrader.sol\":1746:1750  uesr */\n      dup5\n        /* \"CarbonTrader.sol\":1727:1751  s_frozenAllowances[uesr] */\n      0xffffffffffffffffffffffffffffffffffffffff\n      and\n      0xffffffffffffffffffffffffffffffffffffffff\n      and\n      dup2\n      mstore\n      0x20\n      add\n      swap1\n      dup2\n      mstore\n      0x20\n      add\n      0x00\n      keccak256\n      sload\n        /* \"CarbonTrader.sol\":1727:1770  s_frozenAllowances[uesr] <= unFreezedAmount */\n      gt\n      iszero\n        /* \"CarbonTrader.sol\":1718:1819  require (s_frozenAllowances[uesr] <= unFreezedAmount, \"unFreezing amount is greater than available.\") */\n      tag_40\n      jumpi\n      mload(0x40)\n      0x08c379a000000000000000000000000000000000000000000000000000000000\n      dup2\n      mstore\n      0x04\n      add\n      tag_41\n      swap1\n      tag_42\n      jump\t// in\n    tag_41:\n      mload(0x40)\n      dup1\n      swap2\n      sub\n      swap1\n      revert\n    tag_40:\n        /* \"CarbonTrader.sol\":1857:1858  0 */\n      0x00\n        /* \"CarbonTrader.sol\":1838:1853  unFreezedAmount */\n      dup2\n        /* \"CarbonTrader.sol\":1838:1858  unFreezedAmount >= 0 */\n      lt\n      iszero\n        /* \"CarbonTrader.sol\":1829:1891  require (unFreezedAmount >= 0, \"unFreezing amount is no zreo\") */\n      tag_43\n      jumpi\n      mload(0x40)\n      0x08c379a000000000000000000000000000000000000000000000000000000000\n      dup2\n      mstore\n      0x04\n      add\n      tag_44\n      swap1\n      tag_45\n      jump\t// in\n    tag_44:\n      mload(0x40)\n      dup1\n      swap2\n      sub\n      swap1\n      revert\n    tag_43:\n        /* \"CarbonTrader.sol\":1932:1947  unFreezedAmount */\n      dup1\n        /* \"CarbonTrader.sol\":1901:1922  s_addressToAllowances */\n      0x00\n        /* \"CarbonTrader.sol\":1901:1928  s_addressToAllowances[uesr] */\n      dup1\n        /* \"CarbonTrader.sol\":1923:1927  uesr */\n      dup5\n        /* \"CarbonTrader.sol\":1901:1928  s_addressToAllowances[uesr] */\n      0xffffffffffffffffffffffffffffffffffffffff\n      and\n      0xffffffffffffffffffffffffffffffffffffffff\n      and\n      dup2\n      mstore\n      0x20\n      add\n      swap1\n      dup2\n      mstore\n      0x20\n      add\n      0x00\n      keccak256\n      0x00\n        /* \"CarbonTrader.sol\":1901:1947  s_addressToAllowances[uesr] += unFreezedAmount */\n      dup3\n      dup3\n      sload\n      tag_46\n      swap2\n      swap1\n      tag_47\n      jump\t// in\n    tag_46:\n      swap3\n      pop\n      pop\n      dup2\n      swap1\n      sstore\n      pop\n        /* \"CarbonTrader.sol\":1985:2000  unFreezedAmount */\n      dup1\n        /* \"CarbonTrader.sol\":1957:1975  s_frozenAllowances */\n      0x01\n        /* \"CarbonTrader.sol\":1957:1981  s_frozenAllowances[uesr] */\n      0x00\n        /* \"CarbonTrader.sol\":1976:1980  uesr */\n      dup5\n        /* \"CarbonTrader.sol\":1957:1981  s_frozenAllowances[uesr] */\n      0xffffffffffffffffffffffffffffffffffffffff\n      and\n      0xffffffffffffffffffffffffffffffffffffffff\n      and\n      dup2\n      mstore\n      0x20\n      add\n      swap1\n      dup2\n      mstore\n      0x20\n      add\n      0x00\n      keccak256\n      0x00\n        /* \"CarbonTrader.sol\":1957:2000  s_frozenAllowances[uesr] -= unFreezedAmount */\n      dup3\n      dup3\n      sload\n      tag_48\n      swap2\n      swap1\n      tag_49\n      jump\t// in\n    tag_48:\n      swap3\n      pop\n      pop\n      dup2\n      swap1\n      sstore\n      pop\n        /* \"CarbonTrader.sol\":1625:2007  function unFreezeAllowance(address uesr, uint256 unFreezedAmount) public onlyOwner {... */\n      pop\n      pop\n      jump\t// out\n        /* \"CarbonTrader.sol\":2055:2175  function getFrozenAllowance(address uesr) public view returns (uint256) {... */\n    tag_18:\n        /* \"CarbonTrader.sol\":2118:2125  uint256 */\n      0x00\n        /* \"CarbonTrader.sol\":2144:2162  s_frozenAllowances */\n      0x01\n        /* \"CarbonTrader.sol\":2144:2168  s_frozenAllowances[uesr] */\n      0x00\n        /* \"CarbonTrader.sol\":2163:2167  uesr */\n      dup4\n        /* \"CarbonTrader.sol\":2144:2168  s_frozenAllowances[uesr] */\n      0xffffffffffffffffffffffffffffffffffffffff\n      and\n      0xffffffffffffffffffffffffffffffffffffffff\n      and\n      dup2\n      mstore\n      0x20\n      add\n      swap1\n      dup2\n      mstore\n      0x20\n      add\n      0x00\n      keccak256\n      sload\n        /* \"CarbonTrader.sol\":2137:2168  return s_frozenAllowances[uesr] */\n      swap1\n      pop\n        /* \"CarbonTrader.sol\":2055:2175  function getFrozenAllowance(address uesr) public view returns (uint256) {... */\n      swap2\n      swap1\n      pop\n      jump\t// out\n        /* \"CarbonTrader.sol\":2229:2440  function destoryAllowance(address uesr, uint256 destoryAmount) public onlyOwner {... */\n    tag_23:\n        /* \"CarbonTrader.sol\":723:730  i_owner */\n      immutable(\"0x8e8fab5f003314da8d1873ea7720e8d9f47650136d916064d1edb8a11d682624\")\n        /* \"CarbonTrader.sol\":709:730  msg.sender != i_owner */\n      0xffffffffffffffffffffffffffffffffffffffff\n      and\n        /* \"CarbonTrader.sol\":709:719  msg.sender */\n      caller\n        /* \"CarbonTrader.sol\":709:730  msg.sender != i_owner */\n      0xffffffffffffffffffffffffffffffffffffffff\n      and\n      eq\n        /* \"CarbonTrader.sol\":705:788  if (msg.sender != i_owner) {... */\n      tag_52\n      jumpi\n        /* \"CarbonTrader.sol\":753:777  CarbonTrader__NotOwner() */\n      mload(0x40)\n      0xcf84d5e300000000000000000000000000000000000000000000000000000000\n      dup2\n      mstore\n      0x04\n      add\n      mload(0x40)\n      dup1\n      swap2\n      sub\n      swap1\n      revert\n        /* \"CarbonTrader.sol\":705:788  if (msg.sender != i_owner) {... */\n    tag_52:\n        /* \"CarbonTrader.sol\":2345:2346  0 */\n      0x00\n        /* \"CarbonTrader.sol\":2328:2341  destoryAmount */\n      dup2\n        /* \"CarbonTrader.sol\":2328:2346  destoryAmount >= 0 */\n      lt\n      iszero\n        /* \"CarbonTrader.sol\":2319:2379  require (destoryAmount >= 0, \"unFreezing amount is no zreo\") */\n      tag_54\n      jumpi\n      mload(0x40)\n      0x08c379a000000000000000000000000000000000000000000000000000000000\n      dup2\n      mstore\n      0x04\n      add\n      tag_55\n      swap1\n      tag_45\n      jump\t// in\n    tag_55:\n      mload(0x40)\n      dup1\n      swap2\n      sub\n      swap1\n      revert\n    tag_54:\n        /* \"CarbonTrader.sol\":2420:2433  destoryAmount */\n      dup1\n        /* \"CarbonTrader.sol\":2389:2410  s_addressToAllowances */\n      0x00\n        /* \"CarbonTrader.sol\":2389:2416  s_addressToAllowances[uesr] */\n      dup1\n        /* \"CarbonTrader.sol\":2411:2415  uesr */\n      dup5\n        /* \"CarbonTrader.sol\":2389:2416  s_addressToAllowances[uesr] */\n      0xffffffffffffffffffffffffffffffffffffffff\n      and\n      0xffffffffffffffffffffffffffffffffffffffff\n      and\n      dup2\n      mstore\n      0x20\n      add\n      swap1\n      dup2\n      mstore\n      0x20\n      add\n      0x00\n      keccak256\n      0x00\n        /* \"CarbonTrader.sol\":2389:2433  s_addressToAllowances[uesr] -= destoryAmount */\n      dup3\n      dup3\n      sload\n      tag_56\n      swap2\n      swap1\n      tag_49\n      jump\t// in\n    tag_56:\n      swap3\n      pop\n      pop\n      dup2\n      swap1\n      sstore\n      pop\n        /* \"CarbonTrader.sol\":2229:2440  function destoryAllowance(address uesr, uint256 destoryAmount) public onlyOwner {... */\n      pop\n      pop\n      jump\t// out\n        /* \"CarbonTrader.sol\":883:1008  function issueAllowance(address uesr, uint256 amount) public onlyOwner {... */\n    tag_26:\n        /* \"CarbonTrader.sol\":723:730  i_owner */\n      immutable(\"0x8e8fab5f003314da8d1873ea7720e8d9f47650136d916064d1edb8a11d682624\")\n        /* \"CarbonTrader.sol\":709:730  msg.sender != i_owner */\n      0xffffffffffffffffffffffffffffffffffffffff\n      and\n        /* \"CarbonTrader.sol\":709:719  msg.sender */\n      caller\n        /* \"CarbonTrader.sol\":709:730  msg.sender != i_owner */\n      0xffffffffffffffffffffffffffffffffffffffff\n      and\n      eq\n        /* \"CarbonTrader.sol\":705:788  if (msg.sender != i_owner) {... */\n      tag_58\n      jumpi\n        /* \"CarbonTrader.sol\":753:777  CarbonTrader__NotOwner() */\n      mload(0x40)\n      0xcf84d5e300000000000000000000000000000000000000000000000000000000\n      dup2\n      mstore\n      0x04\n      add\n      mload(0x40)\n      dup1\n      swap2\n      sub\n      swap1\n      revert\n        /* \"CarbonTrader.sol\":705:788  if (msg.sender != i_owner) {... */\n    tag_58:\n        /* \"CarbonTrader.sol\":995:1001  amount */\n      dup1\n        /* \"CarbonTrader.sol\":964:985  s_addressToAllowances */\n      0x00\n        /* \"CarbonTrader.sol\":964:991  s_addressToAllowances[uesr] */\n      dup1\n        /* \"CarbonTrader.sol\":986:990  uesr */\n      dup5\n        /* \"CarbonTrader.sol\":964:991  s_addressToAllowances[uesr] */\n      0xffffffffffffffffffffffffffffffffffffffff\n      and\n      0xffffffffffffffffffffffffffffffffffffffff\n      and\n      dup2\n      mstore\n      0x20\n      add\n      swap1\n      dup2\n      mstore\n      0x20\n      add\n      0x00\n      keccak256\n      0x00\n        /* \"CarbonTrader.sol\":964:1001  s_addressToAllowances[uesr] += amount */\n      dup3\n      dup3\n      sload\n      tag_60\n      swap2\n      swap1\n      tag_47\n      jump\t// in\n    tag_60:\n      swap3\n      pop\n      pop\n      dup2\n      swap1\n      sstore\n      pop\n        /* \"CarbonTrader.sol\":883:1008  function issueAllowance(address uesr, uint256 amount) public onlyOwner {... */\n      pop\n      pop\n      jump\t// out\n        /* \"CarbonTrader.sol\":2488:2634  function destoryAllAllowance(address uesr) public onlyOwner {... */\n    tag_29:\n        /* \"CarbonTrader.sol\":723:730  i_owner */\n      immutable(\"0x8e8fab5f003314da8d1873ea7720e8d9f47650136d916064d1edb8a11d682624\")\n        /* \"CarbonTrader.sol\":709:730  msg.sender != i_owner */\n      0xffffffffffffffffffffffffffffffffffffffff\n      and\n        /* \"CarbonTrader.sol\":709:719  msg.sender */\n      caller\n        /* \"CarbonTrader.sol\":709:730  msg.sender != i_owner */\n      0xffffffffffffffffffffffffffffffffffffffff\n      and\n      eq\n        /* \"CarbonTrader.sol\":705:788  if (msg.sender != i_owner) {... */\n      tag_62\n      jumpi\n        /* \"CarbonTrader.sol\":753:777  CarbonTrader__NotOwner() */\n      mload(0x40)\n      0xcf84d5e300000000000000000000000000000000000000000000000000000000\n      dup2\n      mstore\n      0x04\n      add\n      mload(0x40)\n      dup1\n      swap2\n      sub\n      swap1\n      revert\n        /* \"CarbonTrader.sol\":705:788  if (msg.sender != i_owner) {... */\n    tag_62:\n        /* \"CarbonTrader.sol\":2588:2589  0 */\n      0x00\n        /* \"CarbonTrader.sol\":2558:2579  s_addressToAllowances */\n      dup1\n        /* \"CarbonTrader.sol\":2558:2585  s_addressToAllowances[uesr] */\n      0x00\n        /* \"CarbonTrader.sol\":2580:2584  uesr */\n      dup4\n        /* \"CarbonTrader.sol\":2558:2585  s_addressToAllowances[uesr] */\n      0xffffffffffffffffffffffffffffffffffffffff\n      and\n      0xffffffffffffffffffffffffffffffffffffffff\n      and\n      dup2\n      mstore\n      0x20\n      add\n      swap1\n      dup2\n      mstore\n      0x20\n      add\n      0x00\n      keccak256\n        /* \"CarbonTrader.sol\":2558:2589  s_addressToAllowances[uesr] = 0 */\n      dup2\n      swap1\n      sstore\n      pop\n        /* \"CarbonTrader.sol\":2626:2627  0 */\n      0x00\n        /* \"CarbonTrader.sol\":2599:2617  s_frozenAllowances */\n      0x01\n        /* \"CarbonTrader.sol\":2599:2623  s_frozenAllowances[uesr] */\n      0x00\n        /* \"CarbonTrader.sol\":2618:2622  uesr */\n      dup4\n        /* \"CarbonTrader.sol\":2599:2623  s_frozenAllowances[uesr] */\n      0xffffffffffffffffffffffffffffffffffffffff\n      and\n      0xffffffffffffffffffffffffffffffffffffffff\n      and\n      dup2\n      mstore\n      0x20\n      add\n      swap1\n      dup2\n      mstore\n      0x20\n      add\n      0x00\n      keccak256\n        /* \"CarbonTrader.sol\":2599:2627  s_frozenAllowances[uesr] = 0 */\n      dup2\n      swap1\n      sstore\n      pop\n        /* \"CarbonTrader.sol\":2488:2634  function destoryAllAllowance(address uesr) public onlyOwner {... */\n      pop\n      jump\t// out\n        /* \"CarbonTrader.sol\":1217:1583  function freezeAllowance(address uesr, uint256 freezedAmount) public onlyOwner {... */\n    tag_32:\n        /* \"CarbonTrader.sol\":723:730  i_owner */\n      immutable(\"0x8e8fab5f003314da8d1873ea7720e8d9f47650136d916064d1edb8a11d682624\")\n        /* \"CarbonTrader.sol\":709:730  msg.sender != i_owner */\n      0xffffffffffffffffffffffffffffffffffffffff\n      and\n        /* \"CarbonTrader.sol\":709:719  msg.sender */\n      caller\n        /* \"CarbonTrader.sol\":709:730  msg.sender != i_owner */\n      0xffffffffffffffffffffffffffffffffffffffff\n      and\n      eq\n        /* \"CarbonTrader.sol\":705:788  if (msg.sender != i_owner) {... */\n      tag_65\n      jumpi\n        /* \"CarbonTrader.sol\":753:777  CarbonTrader__NotOwner() */\n      mload(0x40)\n      0xcf84d5e300000000000000000000000000000000000000000000000000000000\n      dup2\n      mstore\n      0x04\n      add\n      mload(0x40)\n      dup1\n      swap2\n      sub\n      swap1\n      revert\n        /* \"CarbonTrader.sol\":705:788  if (msg.sender != i_owner) {... */\n    tag_65:\n        /* \"CarbonTrader.sol\":1346:1359  freezedAmount */\n      dup1\n        /* \"CarbonTrader.sol\":1315:1336  s_addressToAllowances */\n      0x00\n        /* \"CarbonTrader.sol\":1315:1342  s_addressToAllowances[uesr] */\n      dup1\n        /* \"CarbonTrader.sol\":1337:1341  uesr */\n      dup5\n        /* \"CarbonTrader.sol\":1315:1342  s_addressToAllowances[uesr] */\n      0xffffffffffffffffffffffffffffffffffffffff\n      and\n      0xffffffffffffffffffffffffffffffffffffffff\n      and\n      dup2\n      mstore\n      0x20\n      add\n      swap1\n      dup2\n      mstore\n      0x20\n      add\n      0x00\n      keccak256\n      sload\n        /* \"CarbonTrader.sol\":1315:1359  s_addressToAllowances[uesr] >= freezedAmount */\n      lt\n      iszero\n        /* \"CarbonTrader.sol\":1306:1403  require (s_addressToAllowances[uesr] >= freezedAmount, \"Freezing amount is less than available.\") */\n      tag_67\n      jumpi\n      mload(0x40)\n      0x08c379a000000000000000000000000000000000000000000000000000000000\n      dup2\n      mstore\n      0x04\n      add\n      tag_68\n      swap1\n      tag_69\n      jump\t// in\n    tag_68:\n      mload(0x40)\n      dup1\n      swap2\n      sub\n      swap1\n      revert\n    tag_67:\n        /* \"CarbonTrader.sol\":1439:1440  0 */\n      0x00\n        /* \"CarbonTrader.sol\":1422:1435  freezedAmount */\n      dup2\n        /* \"CarbonTrader.sol\":1422:1440  freezedAmount >= 0 */\n      lt\n      iszero\n        /* \"CarbonTrader.sol\":1413:1471  require (freezedAmount >= 0, \"Freezing amount is no zreo\") */\n      tag_70\n      jumpi\n      mload(0x40)\n      0x08c379a000000000000000000000000000000000000000000000000000000000\n      dup2\n      mstore\n      0x04\n      add\n      tag_71\n      swap1\n      tag_72\n      jump\t// in\n    tag_71:\n      mload(0x40)\n      dup1\n      swap2\n      sub\n      swap1\n      revert\n    tag_70:\n        /* \"CarbonTrader.sol\":1512:1525  freezedAmount */\n      dup1\n        /* \"CarbonTrader.sol\":1481:1502  s_addressToAllowances */\n      0x00\n        /* \"CarbonTrader.sol\":1481:1508  s_addressToAllowances[uesr] */\n      dup1\n        /* \"CarbonTrader.sol\":1503:1507  uesr */\n      dup5\n        /* \"CarbonTrader.sol\":1481:1508  s_addressToAllowances[uesr] */\n      0xffffffffffffffffffffffffffffffffffffffff\n      and\n      0xffffffffffffffffffffffffffffffffffffffff\n      and\n      dup2\n      mstore\n      0x20\n      add\n      swap1\n      dup2\n      mstore\n      0x20\n      add\n      0x00\n      keccak256\n      0x00\n        /* \"CarbonTrader.sol\":1481:1525  s_addressToAllowances[uesr] -= freezedAmount */\n      dup3\n      dup3\n      sload\n      tag_73\n      swap2\n      swap1\n      tag_49\n      jump\t// in\n    tag_73:\n      swap3\n      pop\n      pop\n      dup2\n      swap1\n      sstore\n      pop\n        /* \"CarbonTrader.sol\":1563:1576  freezedAmount */\n      dup1\n        /* \"CarbonTrader.sol\":1535:1553  s_frozenAllowances */\n      0x01\n        /* \"CarbonTrader.sol\":1535:1559  s_frozenAllowances[uesr] */\n      0x00\n        /* \"CarbonTrader.sol\":1554:1558  uesr */\n      dup5\n        /* \"CarbonTrader.sol\":1535:1559  s_frozenAllowances[uesr] */\n      0xffffffffffffffffffffffffffffffffffffffff\n      and\n      0xffffffffffffffffffffffffffffffffffffffff\n      and\n      dup2\n      mstore\n      0x20\n      add\n      swap1\n      dup2\n      mstore\n      0x20\n      add\n      0x00\n      keccak256\n      0x00\n        /* \"CarbonTrader.sol\":1535:1576  s_frozenAllowances[uesr] += freezedAmount */\n      dup3\n      dup3\n      sload\n      tag_74\n      swap2\n      swap1\n      tag_47\n      jump\t// in\n    tag_74:\n      swap3\n      pop\n      pop\n      dup2\n      swap1\n      sstore\n      pop\n        /* \"CarbonTrader.sol\":1217:1583  function freezeAllowance(address uesr, uint256 freezedAmount) public onlyOwner {... */\n      pop\n      pop\n      jump\t// out\n        /* \"CarbonTrader.sol\":1059:1175  function getAllowance(address uesr) public view returns(uint256) {... */\n    tag_35:\n        /* \"CarbonTrader.sol\":1115:1122  uint256 */\n      0x00\n        /* \"CarbonTrader.sol\":1141:1162  s_addressToAllowances */\n      dup1\n        /* \"CarbonTrader.sol\":1141:1168  s_addressToAllowances[uesr] */\n      0x00\n        /* \"CarbonTrader.sol\":1163:1167  uesr */\n      dup4\n        /* \"CarbonTrader.sol\":1141:1168  s_addressToAllowances[uesr] */\n      0xffffffffffffffffffffffffffffffffffffffff\n      and\n      0xffffffffffffffffffffffffffffffffffffffff\n      and\n      dup2\n      mstore\n      0x20\n      add\n      swap1\n      dup2\n      mstore\n      0x20\n      add\n      0x00\n      keccak256\n      sload\n        /* \"CarbonTrader.sol\":1134:1168  return s_addressToAllowances[uesr] */\n      swap1\n      pop\n        /* \"CarbonTrader.sol\":1059:1175  function getAllowance(address uesr) public view returns(uint256) {... */\n      swap2\n      swap1\n      pop\n      jump\t// out\n        /* \"#utility.yul\":88:205   */\n    tag_77:\n        /* \"#utility.yul\":197:198   */\n      0x00\n        /* \"#utility.yul\":194:195   */\n      dup1\n        /* \"#utility.yul\":187:199   */\n      revert\n        /* \"#utility.yul\":334:460   */\n    tag_79:\n        /* \"#utility.yul\":371:378   */\n      0x00\n        /* \"#utility.yul\":411:453   */\n      0xffffffffffffffffffffffffffffffffffffffff\n        /* \"#utility.yul\":404:409   */\n      dup3\n        /* \"#utility.yul\":400:454   */\n      and\n        /* \"#utility.yul\":389:454   */\n      swap1\n      pop\n        /* \"#utility.yul\":334:460   */\n      swap2\n      swap1\n      pop\n      jump\t// out\n        /* \"#utility.yul\":466:562   */\n    tag_80:\n        /* \"#utility.yul\":503:510   */\n      0x00\n        /* \"#utility.yul\":532:556   */\n      tag_103\n        /* \"#utility.yul\":550:555   */\n      dup3\n        /* \"#utility.yul\":532:556   */\n      tag_79\n      jump\t// in\n    tag_103:\n        /* \"#utility.yul\":521:556   */\n      swap1\n      pop\n        /* \"#utility.yul\":466:562   */\n      swap2\n      swap1\n      pop\n      jump\t// out\n        /* \"#utility.yul\":568:690   */\n    tag_81:\n        /* \"#utility.yul\":641:665   */\n      tag_105\n        /* \"#utility.yul\":659:664   */\n      dup2\n        /* \"#utility.yul\":641:665   */\n      tag_80\n      jump\t// in\n    tag_105:\n        /* \"#utility.yul\":634:639   */\n      dup2\n        /* \"#utility.yul\":631:666   */\n      eq\n        /* \"#utility.yul\":621:684   */\n      tag_106\n      jumpi\n        /* \"#utility.yul\":680:681   */\n      0x00\n        /* \"#utility.yul\":677:678   */\n      dup1\n        /* \"#utility.yul\":670:682   */\n      revert\n        /* \"#utility.yul\":621:684   */\n    tag_106:\n        /* \"#utility.yul\":568:690   */\n      pop\n      jump\t// out\n        /* \"#utility.yul\":696:835   */\n    tag_82:\n        /* \"#utility.yul\":742:747   */\n      0x00\n        /* \"#utility.yul\":780:786   */\n      dup2\n        /* \"#utility.yul\":767:787   */\n      calldataload\n        /* \"#utility.yul\":758:787   */\n      swap1\n      pop\n        /* \"#utility.yul\":796:829   */\n      tag_108\n        /* \"#utility.yul\":823:828   */\n      dup2\n        /* \"#utility.yul\":796:829   */\n      tag_81\n      jump\t// in\n    tag_108:\n        /* \"#utility.yul\":696:835   */\n      swap3\n      swap2\n      pop\n      pop\n      jump\t// out\n        /* \"#utility.yul\":841:918   */\n    tag_83:\n        /* \"#utility.yul\":878:885   */\n      0x00\n        /* \"#utility.yul\":907:912   */\n      dup2\n        /* \"#utility.yul\":896:912   */\n      swap1\n      pop\n        /* \"#utility.yul\":841:918   */\n      swap2\n      swap1\n      pop\n      jump\t// out\n        /* \"#utility.yul\":924:1046   */\n    tag_84:\n        /* \"#utility.yul\":997:1021   */\n      tag_111\n        /* \"#utility.yul\":1015:1020   */\n      dup2\n        /* \"#utility.yul\":997:1021   */\n      tag_83\n      jump\t// in\n    tag_111:\n        /* \"#utility.yul\":990:995   */\n      dup2\n        /* \"#utility.yul\":987:1022   */\n      eq\n        /* \"#utility.yul\":977:1040   */\n      tag_112\n      jumpi\n        /* \"#utility.yul\":1036:1037   */\n      0x00\n        /* \"#utility.yul\":1033:1034   */\n      dup1\n        /* \"#utility.yul\":1026:1038   */\n      revert\n        /* \"#utility.yul\":977:1040   */\n    tag_112:\n        /* \"#utility.yul\":924:1046   */\n      pop\n      jump\t// out\n        /* \"#utility.yul\":1052:1191   */\n    tag_85:\n        /* \"#utility.yul\":1098:1103   */\n      0x00\n        /* \"#utility.yul\":1136:1142   */\n      dup2\n        /* \"#utility.yul\":1123:1143   */\n      calldataload\n        /* \"#utility.yul\":1114:1143   */\n      swap1\n      pop\n        /* \"#utility.yul\":1152:1185   */\n      tag_114\n        /* \"#utility.yul\":1179:1184   */\n      dup2\n        /* \"#utility.yul\":1152:1185   */\n      tag_84\n      jump\t// in\n    tag_114:\n        /* \"#utility.yul\":1052:1191   */\n      swap3\n      swap2\n      pop\n      pop\n      jump\t// out\n        /* \"#utility.yul\":1197:1671   */\n    tag_13:\n        /* \"#utility.yul\":1265:1271   */\n      0x00\n        /* \"#utility.yul\":1273:1279   */\n      dup1\n        /* \"#utility.yul\":1322:1324   */\n      0x40\n        /* \"#utility.yul\":1310:1319   */\n      dup4\n        /* \"#utility.yul\":1301:1308   */\n      dup6\n        /* \"#utility.yul\":1297:1320   */\n      sub\n        /* \"#utility.yul\":1293:1325   */\n      slt\n        /* \"#utility.yul\":1290:1409   */\n      iszero\n      tag_116\n      jumpi\n        /* \"#utility.yul\":1328:1407   */\n      tag_117\n      tag_77\n      jump\t// in\n    tag_117:\n        /* \"#utility.yul\":1290:1409   */\n    tag_116:\n        /* \"#utility.yul\":1448:1449   */\n      0x00\n        /* \"#utility.yul\":1473:1526   */\n      tag_118\n        /* \"#utility.yul\":1518:1525   */\n      dup6\n        /* \"#utility.yul\":1509:1515   */\n      dup3\n        /* \"#utility.yul\":1498:1507   */\n      dup7\n        /* \"#utility.yul\":1494:1516   */\n      add\n        /* \"#utility.yul\":1473:1526   */\n      tag_82\n      jump\t// in\n    tag_118:\n        /* \"#utility.yul\":1463:1526   */\n      swap3\n      pop\n        /* \"#utility.yul\":1419:1536   */\n      pop\n        /* \"#utility.yul\":1575:1577   */\n      0x20\n        /* \"#utility.yul\":1601:1654   */\n      tag_119\n        /* \"#utility.yul\":1646:1653   */\n      dup6\n        /* \"#utility.yul\":1637:1643   */\n      dup3\n        /* \"#utility.yul\":1626:1635   */\n      dup7\n        /* \"#utility.yul\":1622:1644   */\n      add\n        /* \"#utility.yul\":1601:1654   */\n      tag_85\n      jump\t// in\n    tag_119:\n        /* \"#utility.yul\":1591:1654   */\n      swap2\n      pop\n        /* \"#utility.yul\":1546:1664   */\n      pop\n        /* \"#utility.yul\":1197:1671   */\n      swap3\n      pop\n      swap3\n      swap1\n      pop\n      jump\t// out\n        /* \"#utility.yul\":1677:2006   */\n    tag_17:\n        /* \"#utility.yul\":1736:1742   */\n      0x00\n        /* \"#utility.yul\":1785:1787   */\n      0x20\n        /* \"#utility.yul\":1773:1782   */\n      dup3\n        /* \"#utility.yul\":1764:1771   */\n      dup5\n        /* \"#utility.yul\":1760:1783   */\n      sub\n        /* \"#utility.yul\":1756:1788   */\n      slt\n        /* \"#utility.yul\":1753:1872   */\n      iszero\n      tag_121\n      jumpi\n        /* \"#utility.yul\":1791:1870   */\n      tag_122\n      tag_77\n      jump\t// in\n    tag_122:\n        /* \"#utility.yul\":1753:1872   */\n    tag_121:\n        /* \"#utility.yul\":1911:1912   */\n      0x00\n        /* \"#utility.yul\":1936:1989   */\n      tag_123\n        /* \"#utility.yul\":1981:1988   */\n      dup5\n        /* \"#utility.yul\":1972:1978   */\n      dup3\n        /* \"#utility.yul\":1961:1970   */\n      dup6\n        /* \"#utility.yul\":1957:1979   */\n      add\n        /* \"#utility.yul\":1936:1989   */\n      tag_82\n      jump\t// in\n    tag_123:\n        /* \"#utility.yul\":1926:1989   */\n      swap2\n      pop\n        /* \"#utility.yul\":1882:1999   */\n      pop\n        /* \"#utility.yul\":1677:2006   */\n      swap3\n      swap2\n      pop\n      pop\n      jump\t// out\n        /* \"#utility.yul\":2012:2130   */\n    tag_86:\n        /* \"#utility.yul\":2099:2123   */\n      tag_125\n        /* \"#utility.yul\":2117:2122   */\n      dup2\n        /* \"#utility.yul\":2099:2123   */\n      tag_83\n      jump\t// in\n    tag_125:\n        /* \"#utility.yul\":2094:2097   */\n      dup3\n        /* \"#utility.yul\":2087:2124   */\n      mstore\n        /* \"#utility.yul\":2012:2130   */\n      pop\n      pop\n      jump\t// out\n        /* \"#utility.yul\":2136:2358   */\n    tag_20:\n        /* \"#utility.yul\":2229:2233   */\n      0x00\n        /* \"#utility.yul\":2267:2269   */\n      0x20\n        /* \"#utility.yul\":2256:2265   */\n      dup3\n        /* \"#utility.yul\":2252:2270   */\n      add\n        /* \"#utility.yul\":2244:2270   */\n      swap1\n      pop\n        /* \"#utility.yul\":2280:2351   */\n      tag_127\n        /* \"#utility.yul\":2348:2349   */\n      0x00\n        /* \"#utility.yul\":2337:2346   */\n      dup4\n        /* \"#utility.yul\":2333:2350   */\n      add\n        /* \"#utility.yul\":2324:2330   */\n      dup5\n        /* \"#utility.yul\":2280:2351   */\n      tag_86\n      jump\t// in\n    tag_127:\n        /* \"#utility.yul\":2136:2358   */\n      swap3\n      swap2\n      pop\n      pop\n      jump\t// out\n        /* \"#utility.yul\":2364:2533   */\n    tag_87:\n        /* \"#utility.yul\":2448:2459   */\n      0x00\n        /* \"#utility.yul\":2482:2488   */\n      dup3\n        /* \"#utility.yul\":2477:2480   */\n      dup3\n        /* \"#utility.yul\":2470:2489   */\n      mstore\n        /* \"#utility.yul\":2522:2526   */\n      0x20\n        /* \"#utility.yul\":2517:2520   */\n      dup3\n        /* \"#utility.yul\":2513:2527   */\n      add\n        /* \"#utility.yul\":2498:2527   */\n      swap1\n      pop\n        /* \"#utility.yul\":2364:2533   */\n      swap3\n      swap2\n      pop\n      pop\n      jump\t// out\n        /* \"#utility.yul\":2539:2770   */\n    tag_88:\n        /* \"#utility.yul\":2679:2713   */\n      0x756e467265657a696e6720616d6f756e74206973206772656174657220746861\n        /* \"#utility.yul\":2675:2676   */\n      0x00\n        /* \"#utility.yul\":2667:2673   */\n      dup3\n        /* \"#utility.yul\":2663:2677   */\n      add\n        /* \"#utility.yul\":2656:2714   */\n      mstore\n        /* \"#utility.yul\":2748:2762   */\n      0x6e20617661696c61626c652e0000000000000000000000000000000000000000\n        /* \"#utility.yul\":2743:2745   */\n      0x20\n        /* \"#utility.yul\":2735:2741   */\n      dup3\n        /* \"#utility.yul\":2731:2746   */\n      add\n        /* \"#utility.yul\":2724:2763   */\n      mstore\n        /* \"#utility.yul\":2539:2770   */\n      pop\n      jump\t// out\n        /* \"#utility.yul\":2776:3142   */\n    tag_89:\n        /* \"#utility.yul\":2918:2921   */\n      0x00\n        /* \"#utility.yul\":2939:3006   */\n      tag_131\n        /* \"#utility.yul\":3003:3005   */\n      0x2c\n        /* \"#utility.yul\":2998:3001   */\n      dup4\n        /* \"#utility.yul\":2939:3006   */\n      tag_87\n      jump\t// in\n    tag_131:\n        /* \"#utility.yul\":2932:3006   */\n      swap2\n      pop\n        /* \"#utility.yul\":3015:3108   */\n      tag_132\n        /* \"#utility.yul\":3104:3107   */\n      dup3\n        /* \"#utility.yul\":3015:3108   */\n      tag_88\n      jump\t// in\n    tag_132:\n        /* \"#utility.yul\":3133:3135   */\n      0x40\n        /* \"#utility.yul\":3128:3131   */\n      dup3\n        /* \"#utility.yul\":3124:3136   */\n      add\n        /* \"#utility.yul\":3117:3136   */\n      swap1\n      pop\n        /* \"#utility.yul\":2776:3142   */\n      swap2\n      swap1\n      pop\n      jump\t// out\n        /* \"#utility.yul\":3148:3567   */\n    tag_42:\n        /* \"#utility.yul\":3314:3318   */\n      0x00\n        /* \"#utility.yul\":3352:3354   */\n      0x20\n        /* \"#utility.yul\":3341:3350   */\n      dup3\n        /* \"#utility.yul\":3337:3355   */\n      add\n        /* \"#utility.yul\":3329:3355   */\n      swap1\n      pop\n        /* \"#utility.yul\":3401:3410   */\n      dup2\n        /* \"#utility.yul\":3395:3399   */\n      dup2\n        /* \"#utility.yul\":3391:3411   */\n      sub\n        /* \"#utility.yul\":3387:3388   */\n      0x00\n        /* \"#utility.yul\":3376:3385   */\n      dup4\n        /* \"#utility.yul\":3372:3389   */\n      add\n        /* \"#utility.yul\":3365:3412   */\n      mstore\n        /* \"#utility.yul\":3429:3560   */\n      tag_134\n        /* \"#utility.yul\":3555:3559   */\n      dup2\n        /* \"#utility.yul\":3429:3560   */\n      tag_89\n      jump\t// in\n    tag_134:\n        /* \"#utility.yul\":3421:3560   */\n      swap1\n      pop\n        /* \"#utility.yul\":3148:3567   */\n      swap2\n      swap1\n      pop\n      jump\t// out\n        /* \"#utility.yul\":3573:3751   */\n    tag_90:\n        /* \"#utility.yul\":3713:3743   */\n      0x756e467265657a696e6720616d6f756e74206973206e6f207a72656f00000000\n        /* \"#utility.yul\":3709:3710   */\n      0x00\n        /* \"#utility.yul\":3701:3707   */\n      dup3\n        /* \"#utility.yul\":3697:3711   */\n      add\n        /* \"#utility.yul\":3690:3744   */\n      mstore\n        /* \"#utility.yul\":3573:3751   */\n      pop\n      jump\t// out\n        /* \"#utility.yul\":3757:4123   */\n    tag_91:\n        /* \"#utility.yul\":3899:3902   */\n      0x00\n        /* \"#utility.yul\":3920:3987   */\n      tag_137\n        /* \"#utility.yul\":3984:3986   */\n      0x1c\n        /* \"#utility.yul\":3979:3982   */\n      dup4\n        /* \"#utility.yul\":3920:3987   */\n      tag_87\n      jump\t// in\n    tag_137:\n        /* \"#utility.yul\":3913:3987   */\n      swap2\n      pop\n        /* \"#utility.yul\":3996:4089   */\n      tag_138\n        /* \"#utility.yul\":4085:4088   */\n      dup3\n        /* \"#utility.yul\":3996:4089   */\n      tag_90\n      jump\t// in\n    tag_138:\n        /* \"#utility.yul\":4114:4116   */\n      0x20\n        /* \"#utility.yul\":4109:4112   */\n      dup3\n        /* \"#utility.yul\":4105:4117   */\n      add\n        /* \"#utility.yul\":4098:4117   */\n      swap1\n      pop\n        /* \"#utility.yul\":3757:4123   */\n      swap2\n      swap1\n      pop\n      jump\t// out\n        /* \"#utility.yul\":4129:4548   */\n    tag_45:\n        /* \"#utility.yul\":4295:4299   */\n      0x00\n        /* \"#utility.yul\":4333:4335   */\n      0x20\n        /* \"#utility.yul\":4322:4331   */\n      dup3\n        /* \"#utility.yul\":4318:4336   */\n      add\n        /* \"#utility.yul\":4310:4336   */\n      swap1\n      pop\n        /* \"#utility.yul\":4382:4391   */\n      dup2\n        /* \"#utility.yul\":4376:4380   */\n      dup2\n        /* \"#utility.yul\":4372:4392   */\n      sub\n        /* \"#utility.yul\":4368:4369   */\n      0x00\n        /* \"#utility.yul\":4357:4366   */\n      dup4\n        /* \"#utility.yul\":4353:4370   */\n      add\n        /* \"#utility.yul\":4346:4393   */\n      mstore\n        /* \"#utility.yul\":4410:4541   */\n      tag_140\n        /* \"#utility.yul\":4536:4540   */\n      dup2\n        /* \"#utility.yul\":4410:4541   */\n      tag_91\n      jump\t// in\n    tag_140:\n        /* \"#utility.yul\":4402:4541   */\n      swap1\n      pop\n        /* \"#utility.yul\":4129:4548   */\n      swap2\n      swap1\n      pop\n      jump\t// out\n        /* \"#utility.yul\":4554:4734   */\n    tag_92:\n        /* \"#utility.yul\":4602:4679   */\n      0x4e487b7100000000000000000000000000000000000000000000000000000000\n        /* \"#utility.yul\":4599:4600   */\n      0x00\n        /* \"#utility.yul\":4592:4680   */\n      mstore\n        /* \"#utility.yul\":4699:4703   */\n      0x11\n        /* \"#utility.yul\":4696:4697   */\n      0x04\n        /* \"#utility.yul\":4689:4704   */\n      mstore\n        /* \"#utility.yul\":4723:4727   */\n      0x24\n        /* \"#utility.yul\":4720:4721   */\n      0x00\n        /* \"#utility.yul\":4713:4728   */\n      revert\n        /* \"#utility.yul\":4740:4931   */\n    tag_47:\n        /* \"#utility.yul\":4780:4783   */\n      0x00\n        /* \"#utility.yul\":4799:4819   */\n      tag_143\n        /* \"#utility.yul\":4817:4818   */\n      dup3\n        /* \"#utility.yul\":4799:4819   */\n      tag_83\n      jump\t// in\n    tag_143:\n        /* \"#utility.yul\":4794:4819   */\n      swap2\n      pop\n        /* \"#utility.yul\":4833:4853   */\n      tag_144\n        /* \"#utility.yul\":4851:4852   */\n      dup4\n        /* \"#utility.yul\":4833:4853   */\n      tag_83\n      jump\t// in\n    tag_144:\n        /* \"#utility.yul\":4828:4853   */\n      swap3\n      pop\n        /* \"#utility.yul\":4876:4877   */\n      dup3\n        /* \"#utility.yul\":4873:4874   */\n      dup3\n        /* \"#utility.yul\":4869:4878   */\n      add\n        /* \"#utility.yul\":4862:4878   */\n      swap1\n      pop\n        /* \"#utility.yul\":4897:4900   */\n      dup1\n        /* \"#utility.yul\":4894:4895   */\n      dup3\n        /* \"#utility.yul\":4891:4901   */\n      gt\n        /* \"#utility.yul\":4888:4924   */\n      iszero\n      tag_145\n      jumpi\n        /* \"#utility.yul\":4904:4922   */\n      tag_146\n      tag_92\n      jump\t// in\n    tag_146:\n        /* \"#utility.yul\":4888:4924   */\n    tag_145:\n        /* \"#utility.yul\":4740:4931   */\n      swap3\n      swap2\n      pop\n      pop\n      jump\t// out\n        /* \"#utility.yul\":4937:5131   */\n    tag_49:\n        /* \"#utility.yul\":4977:4981   */\n      0x00\n        /* \"#utility.yul\":4997:5017   */\n      tag_148\n        /* \"#utility.yul\":5015:5016   */\n      dup3\n        /* \"#utility.yul\":4997:5017   */\n      tag_83\n      jump\t// in\n    tag_148:\n        /* \"#utility.yul\":4992:5017   */\n      swap2\n      pop\n        /* \"#utility.yul\":5031:5051   */\n      tag_149\n        /* \"#utility.yul\":5049:5050   */\n      dup4\n        /* \"#utility.yul\":5031:5051   */\n      tag_83\n      jump\t// in\n    tag_149:\n        /* \"#utility.yul\":5026:5051   */\n      swap3\n      pop\n        /* \"#utility.yul\":5075:5076   */\n      dup3\n        /* \"#utility.yul\":5072:5073   */\n      dup3\n        /* \"#utility.yul\":5068:5077   */\n      sub\n        /* \"#utility.yul\":5060:5077   */\n      swap1\n      pop\n        /* \"#utility.yul\":5099:5100   */\n      dup2\n        /* \"#utility.yul\":5093:5097   */\n      dup2\n        /* \"#utility.yul\":5090:5101   */\n      gt\n        /* \"#utility.yul\":5087:5124   */\n      iszero\n      tag_150\n      jumpi\n        /* \"#utility.yul\":5104:5122   */\n      tag_151\n      tag_92\n      jump\t// in\n    tag_151:\n        /* \"#utility.yul\":5087:5124   */\n    tag_150:\n        /* \"#utility.yul\":4937:5131   */\n      swap3\n      swap2\n      pop\n      pop\n      jump\t// out\n        /* \"#utility.yul\":5137:5363   */\n    tag_93:\n        /* \"#utility.yul\":5277:5311   */\n      0x467265657a696e6720616d6f756e74206973206c657373207468616e20617661\n        /* \"#utility.yul\":5273:5274   */\n      0x00\n        /* \"#utility.yul\":5265:5271   */\n      dup3\n        /* \"#utility.yul\":5261:5275   */\n      add\n        /* \"#utility.yul\":5254:5312   */\n      mstore\n        /* \"#utility.yul\":5346:5355   */\n      0x696c61626c652e00000000000000000000000000000000000000000000000000\n        /* \"#utility.yul\":5341:5343   */\n      0x20\n        /* \"#utility.yul\":5333:5339   */\n      dup3\n        /* \"#utility.yul\":5329:5344   */\n      add\n        /* \"#utility.yul\":5322:5356   */\n      mstore\n        /* \"#utility.yul\":5137:5363   */\n      pop\n      jump\t// out\n        /* \"#utility.yul\":5369:5735   */\n    tag_94:\n        /* \"#utility.yul\":5511:5514   */\n      0x00\n        /* \"#utility.yul\":5532:5599   */\n      tag_154\n        /* \"#utility.yul\":5596:5598   */\n      0x27\n        /* \"#utility.yul\":5591:5594   */\n      dup4\n        /* \"#utility.yul\":5532:5599   */\n      tag_87\n      jump\t// in\n    tag_154:\n        /* \"#utility.yul\":5525:5599   */\n      swap2\n      pop\n        /* \"#utility.yul\":5608:5701   */\n      tag_155\n        /* \"#utility.yul\":5697:5700   */\n      dup3\n        /* \"#utility.yul\":5608:5701   */\n      tag_93\n      jump\t// in\n    tag_155:\n        /* \"#utility.yul\":5726:5728   */\n      0x40\n        /* \"#utility.yul\":5721:5724   */\n      dup3\n        /* \"#utility.yul\":5717:5729   */\n      add\n        /* \"#utility.yul\":5710:5729   */\n      swap1\n      pop\n        /* \"#utility.yul\":5369:5735   */\n      swap2\n      swap1\n      pop\n      jump\t// out\n        /* \"#utility.yul\":5741:6160   */\n    tag_69:\n        /* \"#utility.yul\":5907:5911   */\n      0x00\n        /* \"#utility.yul\":5945:5947   */\n      0x20\n        /* \"#utility.yul\":5934:5943   */\n      dup3\n        /* \"#utility.yul\":5930:5948   */\n      add\n        /* \"#utility.yul\":5922:5948   */\n      swap1\n      pop\n        /* \"#utility.yul\":5994:6003   */\n      dup2\n        /* \"#utility.yul\":5988:5992   */\n      dup2\n        /* \"#utility.yul\":5984:6004   */\n      sub\n        /* \"#utility.yul\":5980:5981   */\n      0x00\n        /* \"#utility.yul\":5969:5978   */\n      dup4\n        /* \"#utility.yul\":5965:5982   */\n      add\n        /* \"#utility.yul\":5958:6005   */\n      mstore\n        /* \"#utility.yul\":6022:6153   */\n      tag_157\n        /* \"#utility.yul\":6148:6152   */\n      dup2\n        /* \"#utility.yul\":6022:6153   */\n      tag_94\n      jump\t// in\n    tag_157:\n        /* \"#utility.yul\":6014:6153   */\n      swap1\n      pop\n        /* \"#utility.yul\":5741:6160   */\n      swap2\n      swap1\n      pop\n      jump\t// out\n        /* \"#utility.yul\":6166:6342   */\n    tag_95:\n        /* \"#utility.yul\":6306:6334   */\n      0x467265657a696e6720616d6f756e74206973206e6f207a72656f000000000000\n        /* \"#utility.yul\":6302:6303   */\n      0x00\n        /* \"#utility.yul\":6294:6300   */\n      dup3\n        /* \"#utility.yul\":6290:6304   */\n      add\n        /* \"#utility.yul\":6283:6335   */\n      mstore\n        /* \"#utility.yul\":6166:6342   */\n      pop\n      jump\t// out\n        /* \"#utility.yul\":6348:6714   */\n    tag_96:\n        /* \"#utility.yul\":6490:6493   */\n      0x00\n        /* \"#utility.yul\":6511:6578   */\n      tag_160\n        /* \"#utility.yul\":6575:6577   */\n      0x1a\n        /* \"#utility.yul\":6570:6573   */\n      dup4\n        /* \"#utility.yul\":6511:6578   */\n      tag_87\n      jump\t// in\n    tag_160:\n        /* \"#utility.yul\":6504:6578   */\n      swap2\n      pop\n        /* \"#utility.yul\":6587:6680   */\n      tag_161\n        /* \"#utility.yul\":6676:6679   */\n      dup3\n        /* \"#utility.yul\":6587:6680   */\n      tag_95\n      jump\t// in\n    tag_161:\n        /* \"#utility.yul\":6705:6707   */\n      0x20\n        /* \"#utility.yul\":6700:6703   */\n      dup3\n        /* \"#utility.yul\":6696:6708   */\n      add\n        /* \"#utility.yul\":6689:6708   */\n      swap1\n      pop\n        /* \"#utility.yul\":6348:6714   */\n      swap2\n      swap1\n      pop\n      jump\t// out\n        /* \"#utility.yul\":6720:7139   */\n    tag_72:\n        /* \"#utility.yul\":6886:6890   */\n      0x00\n        /* \"#utility.yul\":6924:6926   */\n      0x20\n        /* \"#utility.yul\":6913:6922   */\n      dup3\n        /* \"#utility.yul\":6909:6927   */\n      add\n        /* \"#utility.yul\":6901:6927   */\n      swap1\n      pop\n        /* \"#utility.yul\":6973:6982   */\n      dup2\n        /* \"#utility.yul\":6967:6971   */\n      dup2\n        /* \"#utility.yul\":6963:6983   */\n      sub\n        /* \"#utility.yul\":6959:6960   */\n      0x00\n        /* \"#utility.yul\":6948:6957   */\n      dup4\n        /* \"#utility.yul\":6944:6961   */\n      add\n        /* \"#utility.yul\":6937:6984   */\n      mstore\n        /* \"#utility.yul\":7001:7132   */\n      tag_163\n        /* \"#utility.yul\":7127:7131   */\n      dup2\n        /* \"#utility.yul\":7001:7132   */\n      tag_96\n      jump\t// in\n    tag_163:\n        /* \"#utility.yul\":6993:7132   */\n      swap1\n      pop\n        /* \"#utility.yul\":6720:7139   */\n      swap2\n      swap1\n      pop\n      jump\t// out\n\n    auxdata: 0xa2646970667358221220ed160485e8cfdc13041abebe7eb662c50c668ef82c1c53f472d751587f9543ed64736f6c634300081a0033\n}\n",
				"bytecode": {
					"linkReferences": {},
					"object": "60a0604052348015600e575f80fd5b503373ffffffffffffffffffffffffffffffffffffffff1660808173ffffffffffffffffffffffffffffffffffffffff1681525050608051610cc26100775f395f818161016d015281816103a4015281816104c20152818161059d01526106a80152610cc25ff3fe608060405234801561000f575f80fd5b506004361061007b575f3560e01c8063733da7c811610059578063733da7c8146100e7578063adfd3a5f14610103578063d107a5cc1461011f578063eb5a662e1461013b5761007b565b806319ec73e01461007f57806369a83c841461009b5780636c586a06146100cb575b5f80fd5b6100996004803603810190610094919061096c565b61016b565b005b6100b560048036038101906100b091906109aa565b61035c565b6040516100c291906109e4565b60405180910390f35b6100e560048036038101906100e0919061096c565b6103a2565b005b61010160048036038101906100fc919061096c565b6104c0565b005b61011d600480360381019061011891906109aa565b61059b565b005b6101396004803603810190610134919061096c565b6106a6565b005b610155600480360381019061015091906109aa565b610896565b60405161016291906109e4565b60405180910390f35b7f000000000000000000000000000000000000000000000000000000000000000073ffffffffffffffffffffffffffffffffffffffff163373ffffffffffffffffffffffffffffffffffffffff16146101f0576040517fcf84d5e300000000000000000000000000000000000000000000000000000000815260040160405180910390fd5b8060015f8473ffffffffffffffffffffffffffffffffffffffff1673ffffffffffffffffffffffffffffffffffffffff1681526020019081526020015f20541115610270576040517f08c379a000000000000000000000000000000000000000000000000000000000815260040161026790610a7d565b60405180910390fd5b5f8110156102b3576040517f08c379a00000000000000000000000000000000000000000000000000000000081526004016102aa90610ae5565b60405180910390fd5b805f808473ffffffffffffffffffffffffffffffffffffffff1673ffffffffffffffffffffffffffffffffffffffff1681526020019081526020015f205f8282546102fe9190610b30565b925050819055508060015f8473ffffffffffffffffffffffffffffffffffffffff1673ffffffffffffffffffffffffffffffffffffffff1681526020019081526020015f205f8282546103519190610b63565b925050819055505050565b5f60015f8373ffffffffffffffffffffffffffffffffffffffff1673ffffffffffffffffffffffffffffffffffffffff1681526020019081526020015f20549050919050565b7f000000000000000000000000000000000000000000000000000000000000000073ffffffffffffffffffffffffffffffffffffffff163373ffffffffffffffffffffffffffffffffffffffff1614610427576040517fcf84d5e300000000000000000000000000000000000000000000000000000000815260040160405180910390fd5b5f81101561046a576040517f08c379a000000000000000000000000000000000000000000000000000000000815260040161046190610ae5565b60405180910390fd5b805f808473ffffffffffffffffffffffffffffffffffffffff1673ffffffffffffffffffffffffffffffffffffffff1681526020019081526020015f205f8282546104b59190610b63565b925050819055505050565b7f000000000000000000000000000000000000000000000000000000000000000073ffffffffffffffffffffffffffffffffffffffff163373ffffffffffffffffffffffffffffffffffffffff1614610545576040517fcf84d5e300000000000000000000000000000000000000000000000000000000815260040160405180910390fd5b805f808473ffffffffffffffffffffffffffffffffffffffff1673ffffffffffffffffffffffffffffffffffffffff1681526020019081526020015f205f8282546105909190610b30565b925050819055505050565b7f000000000000000000000000000000000000000000000000000000000000000073ffffffffffffffffffffffffffffffffffffffff163373ffffffffffffffffffffffffffffffffffffffff1614610620576040517fcf84d5e300000000000000000000000000000000000000000000000000000000815260040160405180910390fd5b5f805f8373ffffffffffffffffffffffffffffffffffffffff1673ffffffffffffffffffffffffffffffffffffffff1681526020019081526020015f20819055505f60015f8373ffffffffffffffffffffffffffffffffffffffff1673ffffffffffffffffffffffffffffffffffffffff1681526020019081526020015f208190555050565b7f000000000000000000000000000000000000000000000000000000000000000073ffffffffffffffffffffffffffffffffffffffff163373ffffffffffffffffffffffffffffffffffffffff161461072b576040517fcf84d5e300000000000000000000000000000000000000000000000000000000815260040160405180910390fd5b805f808473ffffffffffffffffffffffffffffffffffffffff1673ffffffffffffffffffffffffffffffffffffffff1681526020019081526020015f205410156107aa576040517f08c379a00000000000000000000000000000000000000000000000000000000081526004016107a190610c06565b60405180910390fd5b5f8110156107ed576040517f08c379a00000000000000000000000000000000000000000000000000000000081526004016107e490610c6e565b60405180910390fd5b805f808473ffffffffffffffffffffffffffffffffffffffff1673ffffffffffffffffffffffffffffffffffffffff1681526020019081526020015f205f8282546108389190610b63565b925050819055508060015f8473ffffffffffffffffffffffffffffffffffffffff1673ffffffffffffffffffffffffffffffffffffffff1681526020019081526020015f205f82825461088b9190610b30565b925050819055505050565b5f805f8373ffffffffffffffffffffffffffffffffffffffff1673ffffffffffffffffffffffffffffffffffffffff1681526020019081526020015f20549050919050565b5f80fd5b5f73ffffffffffffffffffffffffffffffffffffffff82169050919050565b5f610908826108df565b9050919050565b610918816108fe565b8114610922575f80fd5b50565b5f813590506109338161090f565b92915050565b5f819050919050565b61094b81610939565b8114610955575f80fd5b50565b5f8135905061096681610942565b92915050565b5f8060408385031215610982576109816108db565b5b5f61098f85828601610925565b92505060206109a085828601610958565b9150509250929050565b5f602082840312156109bf576109be6108db565b5b5f6109cc84828501610925565b91505092915050565b6109de81610939565b82525050565b5f6020820190506109f75f8301846109d5565b92915050565b5f82825260208201905092915050565b7f756e467265657a696e6720616d6f756e742069732067726561746572207468615f8201527f6e20617661696c61626c652e0000000000000000000000000000000000000000602082015250565b5f610a67602c836109fd565b9150610a7282610a0d565b604082019050919050565b5f6020820190508181035f830152610a9481610a5b565b9050919050565b7f756e467265657a696e6720616d6f756e74206973206e6f207a72656f000000005f82015250565b5f610acf601c836109fd565b9150610ada82610a9b565b602082019050919050565b5f6020820190508181035f830152610afc81610ac3565b9050919050565b7f4e487b71000000000000000000000000000000000000000000000000000000005f52601160045260245ffd5b5f610b3a82610939565b9150610b4583610939565b9250828201905080821115610b5d57610b5c610b03565b5b92915050565b5f610b6d82610939565b9150610b7883610939565b9250828203905081811115610b9057610b8f610b03565b5b92915050565b7f467265657a696e6720616d6f756e74206973206c657373207468616e206176615f8201527f696c61626c652e00000000000000000000000000000000000000000000000000602082015250565b5f610bf06027836109fd565b9150610bfb82610b96565b604082019050919050565b5f6020820190508181035f830152610c1d81610be4565b9050919050565b7f467265657a696e6720616d6f756e74206973206e6f207a72656f0000000000005f82015250565b5f610c58601a836109fd565b9150610c6382610c24565b602082019050919050565b5f6020820190508181035f830152610c8581610c4c565b905091905056fea2646970667358221220ed160485e8cfdc13041abebe7eb662c50c668ef82c1c53f472d751587f9543ed64736f6c634300081a0033",
					"opcodes": "PUSH1 0xA0 PUSH1 0x40 MSTORE CALLVALUE DUP1 ISZERO PUSH1 0xE JUMPI PUSH0 DUP1 REVERT JUMPDEST POP CALLER PUSH20 0xFFFFFFFFFFFFFFFFFFFFFFFFFFFFFFFFFFFFFFFF AND PUSH1 0x80 DUP2 PUSH20 0xFFFFFFFFFFFFFFFFFFFFFFFFFFFFFFFFFFFFFFFF AND DUP2 MSTORE POP POP PUSH1 0x80 MLOAD PUSH2 0xCC2 PUSH2 0x77 PUSH0 CODECOPY PUSH0 DUP2 DUP2 PUSH2 0x16D ADD MSTORE DUP2 DUP2 PUSH2 0x3A4 ADD MSTORE DUP2 DUP2 PUSH2 0x4C2 ADD MSTORE DUP2 DUP2 PUSH2 0x59D ADD MSTORE PUSH2 0x6A8 ADD MSTORE PUSH2 0xCC2 PUSH0 RETURN INVALID PUSH1 0x80 PUSH1 0x40 MSTORE CALLVALUE DUP1 ISZERO PUSH2 0xF JUMPI PUSH0 DUP1 REVERT JUMPDEST POP PUSH1 0x4 CALLDATASIZE LT PUSH2 0x7B JUMPI PUSH0 CALLDATALOAD PUSH1 0xE0 SHR DUP1 PUSH4 0x733DA7C8 GT PUSH2 0x59 JUMPI DUP1 PUSH4 0x733DA7C8 EQ PUSH2 0xE7 JUMPI DUP1 PUSH4 0xADFD3A5F EQ PUSH2 0x103 JUMPI DUP1 PUSH4 0xD107A5CC EQ PUSH2 0x11F JUMPI DUP1 PUSH4 0xEB5A662E EQ PUSH2 0x13B JUMPI PUSH2 0x7B JUMP JUMPDEST DUP1 PUSH4 0x19EC73E0 EQ PUSH2 0x7F JUMPI DUP1 PUSH4 0x69A83C84 EQ PUSH2 0x9B JUMPI DUP1 PUSH4 0x6C586A06 EQ PUSH2 0xCB JUMPI JUMPDEST PUSH0 DUP1 REVERT JUMPDEST PUSH2 0x99 PUSH1 0x4 DUP1 CALLDATASIZE SUB DUP2 ADD SWAP1 PUSH2 0x94 SWAP2 SWAP1 PUSH2 0x96C JUMP JUMPDEST PUSH2 0x16B JUMP JUMPDEST STOP JUMPDEST PUSH2 0xB5 PUSH1 0x4 DUP1 CALLDATASIZE SUB DUP2 ADD SWAP1 PUSH2 0xB0 SWAP2 SWAP1 PUSH2 0x9AA JUMP JUMPDEST PUSH2 0x35C JUMP JUMPDEST PUSH1 0x40 MLOAD PUSH2 0xC2 SWAP2 SWAP1 PUSH2 0x9E4 JUMP JUMPDEST PUSH1 0x40 MLOAD DUP1 SWAP2 SUB SWAP1 RETURN JUMPDEST PUSH2 0xE5 PUSH1 0x4 DUP1 CALLDATASIZE SUB DUP2 ADD SWAP1 PUSH2 0xE0 SWAP2 SWAP1 PUSH2 0x96C JUMP JUMPDEST PUSH2 0x3A2 JUMP JUMPDEST STOP JUMPDEST PUSH2 0x101 PUSH1 0x4 DUP1 CALLDATASIZE SUB DUP2 ADD SWAP1 PUSH2 0xFC SWAP2 SWAP1 PUSH2 0x96C JUMP JUMPDEST PUSH2 0x4C0 JUMP JUMPDEST STOP JUMPDEST PUSH2 0x11D PUSH1 0x4 DUP1 CALLDATASIZE SUB DUP2 ADD SWAP1 PUSH2 0x118 SWAP2 SWAP1 PUSH2 0x9AA JUMP JUMPDEST PUSH2 0x59B JUMP JUMPDEST STOP JUMPDEST PUSH2 0x139 PUSH1 0x4 DUP1 CALLDATASIZE SUB DUP2 ADD SWAP1 PUSH2 0x134 SWAP2 SWAP1 PUSH2 0x96C JUMP JUMPDEST PUSH2 0x6A6 JUMP JUMPDEST STOP JUMPDEST PUSH2 0x155 PUSH1 0x4 DUP1 CALLDATASIZE SUB DUP2 ADD SWAP1 PUSH2 0x150 SWAP2 SWAP1 PUSH2 0x9AA JUMP JUMPDEST PUSH2 0x896 JUMP JUMPDEST PUSH1 0x40 MLOAD PUSH2 0x162 SWAP2 SWAP1 PUSH2 0x9E4 JUMP JUMPDEST PUSH1 0x40 MLOAD DUP1 SWAP2 SUB SWAP1 RETURN JUMPDEST PUSH32 0x0 PUSH20 0xFFFFFFFFFFFFFFFFFFFFFFFFFFFFFFFFFFFFFFFF AND CALLER PUSH20 0xFFFFFFFFFFFFFFFFFFFFFFFFFFFFFFFFFFFFFFFF AND EQ PUSH2 0x1F0 JUMPI PUSH1 0x40 MLOAD PUSH32 0xCF84D5E300000000000000000000000000000000000000000000000000000000 DUP2 MSTORE PUSH1 0x4 ADD PUSH1 0x40 MLOAD DUP1 SWAP2 SUB SWAP1 REVERT JUMPDEST DUP1 PUSH1 0x1 PUSH0 DUP5 PUSH20 0xFFFFFFFFFFFFFFFFFFFFFFFFFFFFFFFFFFFFFFFF AND PUSH20 0xFFFFFFFFFFFFFFFFFFFFFFFFFFFFFFFFFFFFFFFF AND DUP2 MSTORE PUSH1 0x20 ADD SWAP1 DUP2 MSTORE PUSH1 0x20 ADD PUSH0 KECCAK256 SLOAD GT ISZERO PUSH2 0x270 JUMPI PUSH1 0x40 MLOAD PUSH32 0x8C379A000000000000000000000000000000000000000000000000000000000 DUP2 MSTORE PUSH1 0x4 ADD PUSH2 0x267 SWAP1 PUSH2 0xA7D JUMP JUMPDEST PUSH1 0x40 MLOAD DUP1 SWAP2 SUB SWAP1 REVERT JUMPDEST PUSH0 DUP2 LT ISZERO PUSH2 0x2B3 JUMPI PUSH1 0x40 MLOAD PUSH32 0x8C379A000000000000000000000000000000000000000000000000000000000 DUP2 MSTORE PUSH1 0x4 ADD PUSH2 0x2AA SWAP1 PUSH2 0xAE5 JUMP JUMPDEST PUSH1 0x40 MLOAD DUP1 SWAP2 SUB SWAP1 REVERT JUMPDEST DUP1 PUSH0 DUP1 DUP5 PUSH20 0xFFFFFFFFFFFFFFFFFFFFFFFFFFFFFFFFFFFFFFFF AND PUSH20 0xFFFFFFFFFFFFFFFFFFFFFFFFFFFFFFFFFFFFFFFF AND DUP2 MSTORE PUSH1 0x20 ADD SWAP1 DUP2 MSTORE PUSH1 0x20 ADD PUSH0 KECCAK256 PUSH0 DUP3 DUP3 SLOAD PUSH2 0x2FE SWAP2 SWAP1 PUSH2 0xB30 JUMP JUMPDEST SWAP3 POP POP DUP2 SWAP1 SSTORE POP DUP1 PUSH1 0x1 PUSH0 DUP5 PUSH20 0xFFFFFFFFFFFFFFFFFFFFFFFFFFFFFFFFFFFFFFFF AND PUSH20 0xFFFFFFFFFFFFFFFFFFFFFFFFFFFFFFFFFFFFFFFF AND DUP2 MSTORE PUSH1 0x20 ADD SWAP1 DUP2 MSTORE PUSH1 0x20 ADD PUSH0 KECCAK256 PUSH0 DUP3 DUP3 SLOAD PUSH2 0x351 SWAP2 SWAP1 PUSH2 0xB63 JUMP JUMPDEST SWAP3 POP POP DUP2 SWAP1 SSTORE POP POP POP JUMP JUMPDEST PUSH0 PUSH1 0x1 PUSH0 DUP4 PUSH20 0xFFFFFFFFFFFFFFFFFFFFFFFFFFFFFFFFFFFFFFFF AND PUSH20 0xFFFFFFFFFFFFFFFFFFFFFFFFFFFFFFFFFFFFFFFF AND DUP2 MSTORE PUSH1 0x20 ADD SWAP1 DUP2 MSTORE PUSH1 0x20 ADD PUSH0 KECCAK256 SLOAD SWAP1 POP SWAP2 SWAP1 POP JUMP JUMPDEST PUSH32 0x0 PUSH20 0xFFFFFFFFFFFFFFFFFFFFFFFFFFFFFFFFFFFFFFFF AND CALLER PUSH20 0xFFFFFFFFFFFFFFFFFFFFFFFFFFFFFFFFFFFFFFFF AND EQ PUSH2 0x427 JUMPI PUSH1 0x40 MLOAD PUSH32 0xCF84D5E300000000000000000000000000000000000000000000000000000000 DUP2 MSTORE PUSH1 0x4 ADD PUSH1 0x40 MLOAD DUP1 SWAP2 SUB SWAP1 REVERT JUMPDEST PUSH0 DUP2 LT ISZERO PUSH2 0x46A JUMPI PUSH1 0x40 MLOAD PUSH32 0x8C379A000000000000000000000000000000000000000000000000000000000 DUP2 MSTORE PUSH1 0x4 ADD PUSH2 0x461 SWAP1 PUSH2 0xAE5 JUMP JUMPDEST PUSH1 0x40 MLOAD DUP1 SWAP2 SUB SWAP1 REVERT JUMPDEST DUP1 PUSH0 DUP1 DUP5 PUSH20 0xFFFFFFFFFFFFFFFFFFFFFFFFFFFFFFFFFFFFFFFF AND PUSH20 0xFFFFFFFFFFFFFFFFFFFFFFFFFFFFFFFFFFFFFFFF AND DUP2 MSTORE PUSH1 0x20 ADD SWAP1 DUP2 MSTORE PUSH1 0x20 ADD PUSH0 KECCAK256 PUSH0 DUP3 DUP3 SLOAD PUSH2 0x4B5 SWAP2 SWAP1 PUSH2 0xB63 JUMP JUMPDEST SWAP3 POP POP DUP2 SWAP1 SSTORE POP POP POP JUMP JUMPDEST PUSH32 0x0 PUSH20 0xFFFFFFFFFFFFFFFFFFFFFFFFFFFFFFFFFFFFFFFF AND CALLER PUSH20 0xFFFFFFFFFFFFFFFFFFFFFFFFFFFFFFFFFFFFFFFF AND EQ PUSH2 0x545 JUMPI PUSH1 0x40 MLOAD PUSH32 0xCF84D5E300000000000000000000000000000000000000000000000000000000 DUP2 MSTORE PUSH1 0x4 ADD PUSH1 0x40 MLOAD DUP1 SWAP2 SUB SWAP1 REVERT JUMPDEST DUP1 PUSH0 DUP1 DUP5 PUSH20 0xFFFFFFFFFFFFFFFFFFFFFFFFFFFFFFFFFFFFFFFF AND PUSH20 0xFFFFFFFFFFFFFFFFFFFFFFFFFFFFFFFFFFFFFFFF AND DUP2 MSTORE PUSH1 0x20 ADD SWAP1 DUP2 MSTORE PUSH1 0x20 ADD PUSH0 KECCAK256 PUSH0 DUP3 DUP3 SLOAD PUSH2 0x590 SWAP2 SWAP1 PUSH2 0xB30 JUMP JUMPDEST SWAP3 POP POP DUP2 SWAP1 SSTORE POP POP POP JUMP JUMPDEST PUSH32 0x0 PUSH20 0xFFFFFFFFFFFFFFFFFFFFFFFFFFFFFFFFFFFFFFFF AND CALLER PUSH20 0xFFFFFFFFFFFFFFFFFFFFFFFFFFFFFFFFFFFFFFFF AND EQ PUSH2 0x620 JUMPI PUSH1 0x40 MLOAD PUSH32 0xCF84D5E300000000000000000000000000000000000000000000000000000000 DUP2 MSTORE PUSH1 0x4 ADD PUSH1 0x40 MLOAD DUP1 SWAP2 SUB SWAP1 REVERT JUMPDEST PUSH0 DUP1 PUSH0 DUP4 PUSH20 0xFFFFFFFFFFFFFFFFFFFFFFFFFFFFFFFFFFFFFFFF AND PUSH20 0xFFFFFFFFFFFFFFFFFFFFFFFFFFFFFFFFFFFFFFFF AND DUP2 MSTORE PUSH1 0x20 ADD SWAP1 DUP2 MSTORE PUSH1 0x20 ADD PUSH0 KECCAK256 DUP2 SWAP1 SSTORE POP PUSH0 PUSH1 0x1 PUSH0 DUP4 PUSH20 0xFFFFFFFFFFFFFFFFFFFFFFFFFFFFFFFFFFFFFFFF AND PUSH20 0xFFFFFFFFFFFFFFFFFFFFFFFFFFFFFFFFFFFFFFFF AND DUP2 MSTORE PUSH1 0x20 ADD SWAP1 DUP2 MSTORE PUSH1 0x20 ADD PUSH0 KECCAK256 DUP2 SWAP1 SSTORE POP POP JUMP JUMPDEST PUSH32 0x0 PUSH20 0xFFFFFFFFFFFFFFFFFFFFFFFFFFFFFFFFFFFFFFFF AND CALLER PUSH20 0xFFFFFFFFFFFFFFFFFFFFFFFFFFFFFFFFFFFFFFFF AND EQ PUSH2 0x72B JUMPI PUSH1 0x40 MLOAD PUSH32 0xCF84D5E300000000000000000000000000000000000000000000000000000000 DUP2 MSTORE PUSH1 0x4 ADD PUSH1 0x40 MLOAD DUP1 SWAP2 SUB SWAP1 REVERT JUMPDEST DUP1 PUSH0 DUP1 DUP5 PUSH20 0xFFFFFFFFFFFFFFFFFFFFFFFFFFFFFFFFFFFFFFFF AND PUSH20 0xFFFFFFFFFFFFFFFFFFFFFFFFFFFFFFFFFFFFFFFF AND DUP2 MSTORE PUSH1 0x20 ADD SWAP1 DUP2 MSTORE PUSH1 0x20 ADD PUSH0 KECCAK256 SLOAD LT ISZERO PUSH2 0x7AA JUMPI PUSH1 0x40 MLOAD PUSH32 0x8C379A000000000000000000000000000000000000000000000000000000000 DUP2 MSTORE PUSH1 0x4 ADD PUSH2 0x7A1 SWAP1 PUSH2 0xC06 JUMP JUMPDEST PUSH1 0x40 MLOAD DUP1 SWAP2 SUB SWAP1 REVERT JUMPDEST PUSH0 DUP2 LT ISZERO PUSH2 0x7ED JUMPI PUSH1 0x40 MLOAD PUSH32 0x8C379A000000000000000000000000000000000000000000000000000000000 DUP2 MSTORE PUSH1 0x4 ADD PUSH2 0x7E4 SWAP1 PUSH2 0xC6E JUMP JUMPDEST PUSH1 0x40 MLOAD DUP1 SWAP2 SUB SWAP1 REVERT JUMPDEST DUP1 PUSH0 DUP1 DUP5 PUSH20 0xFFFFFFFFFFFFFFFFFFFFFFFFFFFFFFFFFFFFFFFF AND PUSH20 0xFFFFFFFFFFFFFFFFFFFFFFFFFFFFFFFFFFFFFFFF AND DUP2 MSTORE PUSH1 0x20 ADD SWAP1 DUP2 MSTORE PUSH1 0x20 ADD PUSH0 KECCAK256 PUSH0 DUP3 DUP3 SLOAD PUSH2 0x838 SWAP2 SWAP1 PUSH2 0xB63 JUMP JUMPDEST SWAP3 POP POP DUP2 SWAP1 SSTORE POP DUP1 PUSH1 0x1 PUSH0 DUP5 PUSH20 0xFFFFFFFFFFFFFFFFFFFFFFFFFFFFFFFFFFFFFFFF AND PUSH20 0xFFFFFFFFFFFFFFFFFFFFFFFFFFFFFFFFFFFFFFFF AND DUP2 MSTORE PUSH1 0x20 ADD SWAP1 DUP2 MSTORE PUSH1 0x20 ADD PUSH0 KECCAK256 PUSH0 DUP3 DUP3 SLOAD PUSH2 0x88B SWAP2 SWAP1 PUSH2 0xB30 JUMP JUMPDEST SWAP3 POP POP DUP2 SWAP1 SSTORE POP POP POP JUMP JUMPDEST PUSH0 DUP1 PUSH0 DUP4 PUSH20 0xFFFFFFFFFFFFFFFFFFFFFFFFFFFFFFFFFFFFFFFF AND PUSH20 0xFFFFFFFFFFFFFFFFFFFFFFFFFFFFFFFFFFFFFFFF AND DUP2 MSTORE PUSH1 0x20 ADD SWAP1 DUP2 MSTORE PUSH1 0x20 ADD PUSH0 KECCAK256 SLOAD SWAP1 POP SWAP2 SWAP1 POP JUMP JUMPDEST PUSH0 DUP1 REVERT JUMPDEST PUSH0 PUSH20 0xFFFFFFFFFFFFFFFFFFFFFFFFFFFFFFFFFFFFFFFF DUP3 AND SWAP1 POP SWAP2 SWAP1 POP JUMP JUMPDEST PUSH0 PUSH2 0x908 DUP3 PUSH2 0x8DF JUMP JUMPDEST SWAP1 POP SWAP2 SWAP1 POP JUMP JUMPDEST PUSH2 0x918 DUP2 PUSH2 0x8FE JUMP JUMPDEST DUP2 EQ PUSH2 0x922 JUMPI PUSH0 DUP1 REVERT JUMPDEST POP JUMP JUMPDEST PUSH0 DUP2 CALLDATALOAD SWAP1 POP PUSH2 0x933 DUP2 PUSH2 0x90F JUMP JUMPDEST SWAP3 SWAP2 POP POP JUMP JUMPDEST PUSH0 DUP2 SWAP1 POP SWAP2 SWAP1 POP JUMP JUMPDEST PUSH2 0x94B DUP2 PUSH2 0x939 JUMP JUMPDEST DUP2 EQ PUSH2 0x955 JUMPI PUSH0 DUP1 REVERT JUMPDEST POP JUMP JUMPDEST PUSH0 DUP2 CALLDATALOAD SWAP1 POP PUSH2 0x966 DUP2 PUSH2 0x942 JUMP JUMPDEST SWAP3 SWAP2 POP POP JUMP JUMPDEST PUSH0 DUP1 PUSH1 0x40 DUP4 DUP6 SUB SLT ISZERO PUSH2 0x982 JUMPI PUSH2 0x981 PUSH2 0x8DB JUMP JUMPDEST JUMPDEST PUSH0 PUSH2 0x98F DUP6 DUP3 DUP7 ADD PUSH2 0x925 JUMP JUMPDEST SWAP3 POP POP PUSH1 0x20 PUSH2 0x9A0 DUP6 DUP3 DUP7 ADD PUSH2 0x958 JUMP JUMPDEST SWAP2 POP POP SWAP3 POP SWAP3 SWAP1 POP JUMP JUMPDEST PUSH0 PUSH1 0x20 DUP3 DUP5 SUB SLT ISZERO PUSH2 0x9BF JUMPI PUSH2 0x9BE PUSH2 0x8DB JUMP JUMPDEST JUMPDEST PUSH0 PUSH2 0x9CC DUP5 DUP3 DUP6 ADD PUSH2 0x925 JUMP JUMPDEST SWAP2 POP POP SWAP3 SWAP2 POP POP JUMP JUMPDEST PUSH2 0x9DE DUP2 PUSH2 0x939 JUMP JUMPDEST DUP3 MSTORE POP POP JUMP JUMPDEST PUSH0 PUSH1 0x20 DUP3 ADD SWAP1 POP PUSH2 0x9F7 PUSH0 DUP4 ADD DUP5 PUSH2 0x9D5 JUMP JUMPDEST SWAP3 SWAP2 POP POP JUMP JUMPDEST PUSH0 DUP3 DUP3 MSTORE PUSH1 0x20 DUP3 ADD SWAP1 POP SWAP3 SWAP2 POP POP JUMP JUMPDEST PUSH32 0x756E467265657A696E6720616D6F756E74206973206772656174657220746861 PUSH0 DUP3 ADD MSTORE PUSH32 0x6E20617661696C61626C652E0000000000000000000000000000000000000000 PUSH1 0x20 DUP3 ADD MSTORE POP JUMP JUMPDEST PUSH0 PUSH2 0xA67 PUSH1 0x2C DUP4 PUSH2 0x9FD JUMP JUMPDEST SWAP2 POP PUSH2 0xA72 DUP3 PUSH2 0xA0D JUMP JUMPDEST PUSH1 0x40 DUP3 ADD SWAP1 POP SWAP2 SWAP1 POP JUMP JUMPDEST PUSH0 PUSH1 0x20 DUP3 ADD SWAP1 POP DUP2 DUP2 SUB PUSH0 DUP4 ADD MSTORE PUSH2 0xA94 DUP2 PUSH2 0xA5B JUMP JUMPDEST SWAP1 POP SWAP2 SWAP1 POP JUMP JUMPDEST PUSH32 0x756E467265657A696E6720616D6F756E74206973206E6F207A72656F00000000 PUSH0 DUP3 ADD MSTORE POP JUMP JUMPDEST PUSH0 PUSH2 0xACF PUSH1 0x1C DUP4 PUSH2 0x9FD JUMP JUMPDEST SWAP2 POP PUSH2 0xADA DUP3 PUSH2 0xA9B JUMP JUMPDEST PUSH1 0x20 DUP3 ADD SWAP1 POP SWAP2 SWAP1 POP JUMP JUMPDEST PUSH0 PUSH1 0x20 DUP3 ADD SWAP1 POP DUP2 DUP2 SUB PUSH0 DUP4 ADD MSTORE PUSH2 0xAFC DUP2 PUSH2 0xAC3 JUMP JUMPDEST SWAP1 POP SWAP2 SWAP1 POP JUMP JUMPDEST PUSH32 0x4E487B7100000000000000000000000000000000000000000000000000000000 PUSH0 MSTORE PUSH1 0x11 PUSH1 0x4 MSTORE PUSH1 0x24 PUSH0 REVERT JUMPDEST PUSH0 PUSH2 0xB3A DUP3 PUSH2 0x939 JUMP JUMPDEST SWAP2 POP PUSH2 0xB45 DUP4 PUSH2 0x939 JUMP JUMPDEST SWAP3 POP DUP3 DUP3 ADD SWAP1 POP DUP1 DUP3 GT ISZERO PUSH2 0xB5D JUMPI PUSH2 0xB5C PUSH2 0xB03 JUMP JUMPDEST JUMPDEST SWAP3 SWAP2 POP POP JUMP JUMPDEST PUSH0 PUSH2 0xB6D DUP3 PUSH2 0x939 JUMP JUMPDEST SWAP2 POP PUSH2 0xB78 DUP4 PUSH2 0x939 JUMP JUMPDEST SWAP3 POP DUP3 DUP3 SUB SWAP1 POP DUP2 DUP2 GT ISZERO PUSH2 0xB90 JUMPI PUSH2 0xB8F PUSH2 0xB03 JUMP JUMPDEST JUMPDEST SWAP3 SWAP2 POP POP JUMP JUMPDEST PUSH32 0x467265657A696E6720616D6F756E74206973206C657373207468616E20617661 PUSH0 DUP3 ADD MSTORE PUSH32 0x696C61626C652E00000000000000000000000000000000000000000000000000 PUSH1 0x20 DUP3 ADD MSTORE POP JUMP JUMPDEST PUSH0 PUSH2 0xBF0 PUSH1 0x27 DUP4 PUSH2 0x9FD JUMP JUMPDEST SWAP2 POP PUSH2 0xBFB DUP3 PUSH2 0xB96 JUMP JUMPDEST PUSH1 0x40 DUP3 ADD SWAP1 POP SWAP2 SWAP1 POP JUMP JUMPDEST PUSH0 PUSH1 0x20 DUP3 ADD SWAP1 POP DUP2 DUP2 SUB PUSH0 DUP4 ADD MSTORE PUSH2 0xC1D DUP2 PUSH2 0xBE4 JUMP JUMPDEST SWAP1 POP SWAP2 SWAP1 POP JUMP JUMPDEST PUSH32 0x467265657A696E6720616D6F756E74206973206E6F207A72656F000000000000 PUSH0 DUP3 ADD MSTORE POP JUMP JUMPDEST PUSH0 PUSH2 0xC58 PUSH1 0x1A DUP4 PUSH2 0x9FD JUMP JUMPDEST SWAP2 POP PUSH2 0xC63 DUP3 PUSH2 0xC24 JUMP JUMPDEST PUSH1 0x20 DUP3 ADD SWAP1 POP SWAP2 SWAP1 POP JUMP JUMPDEST PUSH0 PUSH1 0x20 DUP3 ADD SWAP1 POP DUP2 DUP2 SUB PUSH0 DUP4 ADD MSTORE PUSH2 0xC85 DUP2 PUSH2 0xC4C JUMP JUMPDEST SWAP1 POP SWAP2 SWAP1 POP JUMP INVALID LOG2 PUSH5 0x6970667358 0x22 SLT KECCAK256 0xED AND DIV DUP6 0xE8 0xCF 0xDC SGT DIV BYTE 0xBE 0xBE PUSH31 0xB662C50C668EF82C1C53F472D751587F9543ED64736F6C634300081A003300 "
				},
				"gasEstimates": {
					"creation": {
						"codeDepositCost": "653200",
						"executionCost": "infinite",
						"totalCost": "infinite"
					},
					"external": {
						"destoryAllAllowance(address)": "infinite",
						"destoryAllowance(address,uint256)": "infinite",
						"freezeAllowance(address,uint256)": "infinite",
						"getAllowance(address)": "2895",
						"getFrozenAllowance(address)": "2852",
						"issueAllowance(address,uint256)": "infinite",
						"unFreezeAllowance(address,uint256)": "infinite"
					}
				},
				"methodIdentifiers": {
					"destoryAllAllowance(address)": "adfd3a5f",
					"destoryAllowance(address,uint256)": "6c586a06",
					"freezeAllowance(address,uint256)": "d107a5cc",
					"getAllowance(address)": "eb5a662e",
					"getFrozenAllowance(address)": "69a83c84",
					"issueAllowance(address,uint256)": "733da7c8",
					"unFreezeAllowance(address,uint256)": "19ec73e0"
				}
			},
			"storageLayout": {
				"storage": [
					{
						"astId": 9,
						"contract": "CarbonTrader.sol:CarbonTrader",
						"label": "s_addressToAllowances",
						"offset": 0,
						"slot": "0",
						"type": "t_mapping(t_address,t_uint256)"
					},
					{
						"astId": 14,
						"contract": "CarbonTrader.sol:CarbonTrader",
						"label": "s_frozenAllowances",
						"offset": 0,
						"slot": "1",
						"type": "t_mapping(t_address,t_uint256)"
					}
				],
				"types": {
					"t_address": {
						"encoding": "inplace",
						"label": "address",
						"numberOfBytes": "20"
					},
					"t_mapping(t_address,t_uint256)": {
						"encoding": "mapping",
						"key": "t_address",
						"label": "mapping(address => uint256)",
						"numberOfBytes": "32",
						"value": "t_uint256"
					},
					"t_uint256": {
						"encoding": "inplace",
						"label": "uint256",
						"numberOfBytes": "32"
					}
				}
			},
			"userdoc": {
				"kind": "user",
				"methods": {
					"constructor": {
						"notice": "合约部署时调用，将部署者设置为主人"
					},
					"destoryAllAllowance(address)": {
						"notice": "销毁所有额度"
					},
					"destoryAllowance(address,uint256)": {
						"notice": "销毁某些人的额度"
					},
					"freezeAllowance(address,uint256)": {
						"notice": "冻结额度"
					},
					"getAllowance(address)": {
						"notice": "查看自己的额度"
					},
					"getFrozenAllowance(address)": {
						"notice": "查询冻结额度"
					},
					"issueAllowance(address,uint256)": {
						"notice": "发放额度，用于给每个用户发放额度"
					},
					"unFreezeAllowance(address,uint256)": {
						"notice": "解冻额度"
					}
				},
				"notice": "余额管理",
				"version": 1
			}
		}
	}
}