{
	"CarbonTrader.sol": {
		"CarbonTrader": {
			"abi": [
				{
					"inputs": [
						{
							"internalType": "address",
							"name": "usdtTokenAddress",
							"type": "address"
						}
					],
					"stateMutability": "nonpayable",
					"type": "constructor"
				},
				{
					"inputs": [],
					"name": "CarbonTrader__NotOwner",
					"type": "error"
				},
				{
					"inputs": [],
					"name": "CarbonTrader__ParamError",
					"type": "error"
				},
				{
					"inputs": [],
					"name": "CarbonTrader__TransferFailed",
					"type": "error"
				},
				{
					"inputs": [
						{
							"internalType": "string",
							"name": "tradeId",
							"type": "string"
						},
						{
							"internalType": "uint256",
							"name": "amount",
							"type": "uint256"
						},
						{
							"internalType": "string",
							"name": "info",
							"type": "string"
						}
					],
					"name": "deposit",
					"outputs": [],
					"stateMutability": "nonpayable",
					"type": "function"
				},
				{
					"inputs": [
						{
							"internalType": "address",
							"name": "uesr",
							"type": "address"
						}
					],
					"name": "destoryAllAllowance",
					"outputs": [],
					"stateMutability": "nonpayable",
					"type": "function"
				},
				{
					"inputs": [
						{
							"internalType": "address",
							"name": "uesr",
							"type": "address"
						},
						{
							"internalType": "uint256",
							"name": "destoryAmount",
							"type": "uint256"
						}
					],
					"name": "destoryAllowance",
					"outputs": [],
					"stateMutability": "nonpayable",
					"type": "function"
				},
				{
					"inputs": [
						{
							"internalType": "string",
							"name": "tradeId",
							"type": "string"
						},
						{
							"internalType": "uint256",
							"name": "allowanceAmount",
							"type": "uint256"
						},
						{
							"internalType": "uint256",
							"name": "addtionalAmountToPay",
							"type": "uint256"
						}
					],
					"name": "finalizeAuctionAndTransferCarbon",
					"outputs": [],
					"stateMutability": "nonpayable",
					"type": "function"
				},
				{
					"inputs": [
						{
							"internalType": "address",
							"name": "uesr",
							"type": "address"
						},
						{
							"internalType": "uint256",
							"name": "freezedAmount",
							"type": "uint256"
						}
					],
					"name": "freezeAllowance",
					"outputs": [],
					"stateMutability": "nonpayable",
					"type": "function"
				},
				{
					"inputs": [
						{
							"internalType": "address",
							"name": "uesr",
							"type": "address"
						}
					],
					"name": "getAllowance",
					"outputs": [
						{
							"internalType": "uint256",
							"name": "",
							"type": "uint256"
						}
					],
					"stateMutability": "view",
					"type": "function"
				},
				{
					"inputs": [
						{
							"internalType": "string",
							"name": "tradeId",
							"type": "string"
						}
					],
					"name": "getBidInfo",
					"outputs": [
						{
							"internalType": "string",
							"name": "",
							"type": "string"
						}
					],
					"stateMutability": "view",
					"type": "function"
				},
				{
					"inputs": [
						{
							"internalType": "address",
							"name": "uesr",
							"type": "address"
						}
					],
					"name": "getFrozenAllowance",
					"outputs": [
						{
							"internalType": "uint256",
							"name": "",
							"type": "uint256"
						}
					],
					"stateMutability": "view",
					"type": "function"
				},
				{
					"inputs": [
						{
							"internalType": "string",
							"name": "tradeId",
							"type": "string"
						}
					],
					"name": "getTrade",
					"outputs": [
						{
							"internalType": "address",
							"name": "",
							"type": "address"
						},
						{
							"internalType": "uint256",
							"name": "",
							"type": "uint256"
						},
						{
							"internalType": "uint256",
							"name": "",
							"type": "uint256"
						},
						{
							"internalType": "uint256",
							"name": "",
							"type": "uint256"
						},
						{
							"internalType": "uint256",
							"name": "",
							"type": "uint256"
						},
						{
							"internalType": "uint256",
							"name": "",
							"type": "uint256"
						}
					],
					"stateMutability": "view",
					"type": "function"
				},
				{
					"inputs": [
						{
							"internalType": "address",
							"name": "uesr",
							"type": "address"
						},
						{
							"internalType": "uint256",
							"name": "amount",
							"type": "uint256"
						}
					],
					"name": "issueAllowance",
					"outputs": [],
					"stateMutability": "nonpayable",
					"type": "function"
				},
				{
					"inputs": [
						{
							"internalType": "string",
							"name": "tradeId",
							"type": "string"
						}
					],
					"name": "refundDeposit",
					"outputs": [],
					"stateMutability": "nonpayable",
					"type": "function"
				},
				{
					"inputs": [
						{
							"internalType": "string",
							"name": "tradeId",
							"type": "string"
						},
						{
							"internalType": "string",
							"name": "info",
							"type": "string"
						}
					],
					"name": "setBidInfo",
					"outputs": [],
					"stateMutability": "nonpayable",
					"type": "function"
				},
				{
					"inputs": [
						{
							"internalType": "string",
							"name": "tradeId",
							"type": "string"
						},
						{
							"internalType": "string",
							"name": "secret",
							"type": "string"
						}
					],
					"name": "setBidSecret",
					"outputs": [],
					"stateMutability": "nonpayable",
					"type": "function"
				},
				{
					"inputs": [
						{
							"internalType": "string",
							"name": "tradeId",
							"type": "string"
						},
						{
							"internalType": "uint256",
							"name": "amount",
							"type": "uint256"
						},
						{
							"internalType": "uint256",
							"name": "startTimestamp",
							"type": "uint256"
						},
						{
							"internalType": "uint256",
							"name": "endTimestamp",
							"type": "uint256"
						},
						{
							"internalType": "uint256",
							"name": "minimumBidAmount",
							"type": "uint256"
						},
						{
							"internalType": "uint256",
							"name": "initPriceOfUnit",
							"type": "uint256"
						}
					],
					"name": "startTrade",
					"outputs": [],
					"stateMutability": "nonpayable",
					"type": "function"
				},
				{
					"inputs": [
						{
							"internalType": "address",
							"name": "uesr",
							"type": "address"
						},
						{
							"internalType": "uint256",
							"name": "unFreezedAmount",
							"type": "uint256"
						}
					],
					"name": "unFreezeAllowance",
					"outputs": [],
					"stateMutability": "nonpayable",
					"type": "function"
				},
				{
					"inputs": [],
					"name": "withdrawAcutionAmount",
					"outputs": [],
					"stateMutability": "nonpayable",
					"type": "function"
				}
			],
			"devdoc": {
				"kind": "dev",
				"methods": {},
				"version": 1
			},
			"evm": {
				"assembly": "    /* \"CarbonTrader.sol\":245:7940  contract CarbonTrader {... */\n  mstore(0x40, 0xc0)\n    /* \"CarbonTrader.sol\":1549:1672  constructor(address usdtTokenAddress) {... */\n  callvalue\n  dup1\n  iszero\n  tag_1\n  jumpi\n  0x00\n  dup1\n  revert\ntag_1:\n  pop\n  mload(0x40)\n  sub(codesize, bytecodeSize)\n  dup1\n  bytecodeSize\n  dup4\n  codecopy\n  dup2\n  dup2\n  add\n  0x40\n  mstore\n  dup2\n  add\n  swap1\n  tag_2\n  swap2\n  swap1\n  tag_3\n  jump\t// in\ntag_2:\n    /* \"CarbonTrader.sol\":1607:1617  msg.sender */\n  caller\n    /* \"CarbonTrader.sol\":1597:1617  i_owner = msg.sender */\n  0xffffffffffffffffffffffffffffffffffffffff\n  and\n  0x80\n  dup2\n  0xffffffffffffffffffffffffffffffffffffffff\n  and\n  dup2\n  mstore\n  pop\n  pop\n    /* \"CarbonTrader.sol\":1648:1664  usdtTokenAddress */\n  dup1\n    /* \"CarbonTrader.sol\":1627:1665  i_usdtToken = IERC20(usdtTokenAddress) */\n  0xffffffffffffffffffffffffffffffffffffffff\n  and\n  0xa0\n  dup2\n  0xffffffffffffffffffffffffffffffffffffffff\n  and\n  dup2\n  mstore\n  pop\n  pop\n    /* \"CarbonTrader.sol\":1549:1672  constructor(address usdtTokenAddress) {... */\n  pop\n    /* \"CarbonTrader.sol\":245:7940  contract CarbonTrader {... */\n  jump(tag_6)\n    /* \"#utility.yul\":88:205   */\ntag_8:\n    /* \"#utility.yul\":197:198   */\n  0x00\n    /* \"#utility.yul\":194:195   */\n  dup1\n    /* \"#utility.yul\":187:199   */\n  revert\n    /* \"#utility.yul\":334:460   */\ntag_10:\n    /* \"#utility.yul\":371:378   */\n  0x00\n    /* \"#utility.yul\":411:453   */\n  0xffffffffffffffffffffffffffffffffffffffff\n    /* \"#utility.yul\":404:409   */\n  dup3\n    /* \"#utility.yul\":400:454   */\n  and\n    /* \"#utility.yul\":389:454   */\n  swap1\n  pop\n    /* \"#utility.yul\":334:460   */\n  swap2\n  swap1\n  pop\n  jump\t// out\n    /* \"#utility.yul\":466:562   */\ntag_11:\n    /* \"#utility.yul\":503:510   */\n  0x00\n    /* \"#utility.yul\":532:556   */\n  tag_20\n    /* \"#utility.yul\":550:555   */\n  dup3\n    /* \"#utility.yul\":532:556   */\n  tag_10\n  jump\t// in\ntag_20:\n    /* \"#utility.yul\":521:556   */\n  swap1\n  pop\n    /* \"#utility.yul\":466:562   */\n  swap2\n  swap1\n  pop\n  jump\t// out\n    /* \"#utility.yul\":568:690   */\ntag_12:\n    /* \"#utility.yul\":641:665   */\n  tag_22\n    /* \"#utility.yul\":659:664   */\n  dup2\n    /* \"#utility.yul\":641:665   */\n  tag_11\n  jump\t// in\ntag_22:\n    /* \"#utility.yul\":634:639   */\n  dup2\n    /* \"#utility.yul\":631:666   */\n  eq\n    /* \"#utility.yul\":621:684   */\n  tag_23\n  jumpi\n    /* \"#utility.yul\":680:681   */\n  0x00\n    /* \"#utility.yul\":677:678   */\n  dup1\n    /* \"#utility.yul\":670:682   */\n  revert\n    /* \"#utility.yul\":621:684   */\ntag_23:\n    /* \"#utility.yul\":568:690   */\n  pop\n  jump\t// out\n    /* \"#utility.yul\":696:839   */\ntag_13:\n    /* \"#utility.yul\":753:758   */\n  0x00\n    /* \"#utility.yul\":784:790   */\n  dup2\n    /* \"#utility.yul\":778:791   */\n  mload\n    /* \"#utility.yul\":769:791   */\n  swap1\n  pop\n    /* \"#utility.yul\":800:833   */\n  tag_25\n    /* \"#utility.yul\":827:832   */\n  dup2\n    /* \"#utility.yul\":800:833   */\n  tag_12\n  jump\t// in\ntag_25:\n    /* \"#utility.yul\":696:839   */\n  swap3\n  swap2\n  pop\n  pop\n  jump\t// out\n    /* \"#utility.yul\":845:1196   */\ntag_3:\n    /* \"#utility.yul\":915:921   */\n  0x00\n    /* \"#utility.yul\":964:966   */\n  0x20\n    /* \"#utility.yul\":952:961   */\n  dup3\n    /* \"#utility.yul\":943:950   */\n  dup5\n    /* \"#utility.yul\":939:962   */\n  sub\n    /* \"#utility.yul\":935:967   */\n  slt\n    /* \"#utility.yul\":932:1051   */\n  iszero\n  tag_27\n  jumpi\n    /* \"#utility.yul\":970:1049   */\n  tag_28\n  tag_8\n  jump\t// in\ntag_28:\n    /* \"#utility.yul\":932:1051   */\ntag_27:\n    /* \"#utility.yul\":1090:1091   */\n  0x00\n    /* \"#utility.yul\":1115:1179   */\n  tag_29\n    /* \"#utility.yul\":1171:1178   */\n  dup5\n    /* \"#utility.yul\":1162:1168   */\n  dup3\n    /* \"#utility.yul\":1151:1160   */\n  dup6\n    /* \"#utility.yul\":1147:1169   */\n  add\n    /* \"#utility.yul\":1115:1179   */\n  tag_13\n  jump\t// in\ntag_29:\n    /* \"#utility.yul\":1105:1179   */\n  swap2\n  pop\n    /* \"#utility.yul\":1061:1189   */\n  pop\n    /* \"#utility.yul\":845:1196   */\n  swap3\n  swap2\n  pop\n  pop\n  jump\t// out\n    /* \"CarbonTrader.sol\":245:7940  contract CarbonTrader {... */\ntag_6:\n  mload(0x80)\n  mload(0xa0)\n  codecopy(0x00, dataOffset(sub_0), dataSize(sub_0))\n  0x00\n  assignImmutable(\"0x26a975632f70533c9512e57b565b8ce8e2befee6b08dfbc27c4a897a20e2c1d6\")\n  0x00\n  assignImmutable(\"0x6fadbaf86d2aa9c9e34a85df385a2c9afa9509e09756634e72bbcf94a5ceb213\")\n  return(0x00, dataSize(sub_0))\nstop\n\nsub_0: assembly {\n        /* \"CarbonTrader.sol\":245:7940  contract CarbonTrader {... */\n      mstore(0x40, 0x80)\n      callvalue\n      dup1\n      iszero\n      tag_1\n      jumpi\n      0x00\n      dup1\n      revert\n    tag_1:\n      pop\n      jumpi(tag_2, lt(calldatasize, 0x04))\n      shr(0xe0, calldataload(0x00))\n      dup1\n      0x7feab380\n      gt\n      tag_19\n      jumpi\n      dup1\n      0xd0606507\n      gt\n      tag_20\n      jumpi\n      dup1\n      0xd0606507\n      eq\n      tag_15\n      jumpi\n      dup1\n      0xd107a5cc\n      eq\n      tag_16\n      jumpi\n      dup1\n      0xd62b58ca\n      eq\n      tag_17\n      jumpi\n      dup1\n      0xeb5a662e\n      eq\n      tag_18\n      jumpi\n      jump(tag_2)\n    tag_20:\n      dup1\n      0x7feab380\n      eq\n      tag_11\n      jumpi\n      dup1\n      0x8eae8d53\n      eq\n      tag_12\n      jumpi\n      dup1\n      0x9fa637a8\n      eq\n      tag_13\n      jumpi\n      dup1\n      0xadfd3a5f\n      eq\n      tag_14\n      jumpi\n      jump(tag_2)\n    tag_19:\n      dup1\n      0x69524d31\n      gt\n      tag_21\n      jumpi\n      dup1\n      0x69524d31\n      eq\n      tag_7\n      jumpi\n      dup1\n      0x69a83c84\n      eq\n      tag_8\n      jumpi\n      dup1\n      0x6c586a06\n      eq\n      tag_9\n      jumpi\n      dup1\n      0x733da7c8\n      eq\n      tag_10\n      jumpi\n      jump(tag_2)\n    tag_21:\n      dup1\n      0x3997bd\n      eq\n      tag_3\n      jumpi\n      dup1\n      0x19ec73e0\n      eq\n      tag_4\n      jumpi\n      dup1\n      0x4fe19125\n      eq\n      tag_5\n      jumpi\n      dup1\n      0x68b377ca\n      eq\n      tag_6\n      jumpi\n    tag_2:\n      0x00\n      dup1\n      revert\n        /* \"CarbonTrader.sol\":6482:6664  function getBidInfo(string memory tradeId) public view returns(string memory) {... */\n    tag_3:\n      tag_22\n      0x04\n      dup1\n      calldatasize\n      sub\n      dup2\n      add\n      swap1\n      tag_23\n      swap2\n      swap1\n      tag_24\n      jump\t// in\n    tag_23:\n      tag_25\n      jump\t// in\n    tag_22:\n      mload(0x40)\n      tag_26\n      swap2\n      swap1\n      tag_27\n      jump\t// in\n    tag_26:\n      mload(0x40)\n      dup1\n      swap2\n      sub\n      swap1\n      return\n        /* \"CarbonTrader.sol\":2704:3086  function unFreezeAllowance(address uesr, uint256 unFreezedAmount) public onlyOwner {... */\n    tag_4:\n      tag_28\n      0x04\n      dup1\n      calldatasize\n      sub\n      dup2\n      add\n      swap1\n      tag_29\n      swap2\n      swap1\n      tag_30\n      jump\t// in\n    tag_29:\n      tag_31\n      jump\t// in\n    tag_28:\n      stop\n        /* \"CarbonTrader.sol\":6243:6425  function setBidSecret(string memory tradeId, string memory secret) public {... */\n    tag_5:\n      tag_32\n      0x04\n      dup1\n      calldatasize\n      sub\n      dup2\n      add\n      swap1\n      tag_33\n      swap2\n      swap1\n      tag_34\n      jump\t// in\n    tag_33:\n      tag_35\n      jump\t// in\n    tag_32:\n      stop\n        /* \"CarbonTrader.sol\":5098:5496  function deposit(string memory tradeId, uint256 amount, string memory info) public {... */\n    tag_6:\n      tag_36\n      0x04\n      dup1\n      calldatasize\n      sub\n      dup2\n      add\n      swap1\n      tag_37\n      swap2\n      swap1\n      tag_38\n      jump\t// in\n    tag_37:\n      tag_39\n      jump\t// in\n    tag_36:\n      stop\n        /* \"CarbonTrader.sol\":5538:5973  function refundDeposit(string memory tradeId) public {... */\n    tag_7:\n      tag_40\n      0x04\n      dup1\n      calldatasize\n      sub\n      dup2\n      add\n      swap1\n      tag_41\n      swap2\n      swap1\n      tag_24\n      jump\t// in\n    tag_41:\n      tag_42\n      jump\t// in\n    tag_40:\n      stop\n        /* \"CarbonTrader.sol\":3134:3254  function getFrozenAllowance(address uesr) public view returns (uint256) {... */\n    tag_8:\n      tag_43\n      0x04\n      dup1\n      calldatasize\n      sub\n      dup2\n      add\n      swap1\n      tag_44\n      swap2\n      swap1\n      tag_45\n      jump\t// in\n    tag_44:\n      tag_46\n      jump\t// in\n    tag_43:\n      mload(0x40)\n      tag_47\n      swap2\n      swap1\n      tag_48\n      jump\t// in\n    tag_47:\n      mload(0x40)\n      dup1\n      swap2\n      sub\n      swap1\n      return\n        /* \"CarbonTrader.sol\":3308:3519  function destoryAllowance(address uesr, uint256 destoryAmount) public onlyOwner {... */\n    tag_9:\n      tag_49\n      0x04\n      dup1\n      calldatasize\n      sub\n      dup2\n      add\n      swap1\n      tag_50\n      swap2\n      swap1\n      tag_30\n      jump\t// in\n    tag_50:\n      tag_51\n      jump\t// in\n    tag_49:\n      stop\n        /* \"CarbonTrader.sol\":1962:2087  function issueAllowance(address uesr, uint256 amount) public onlyOwner {... */\n    tag_10:\n      tag_52\n      0x04\n      dup1\n      calldatasize\n      sub\n      dup2\n      add\n      swap1\n      tag_53\n      swap2\n      swap1\n      tag_30\n      jump\t// in\n    tag_53:\n      tag_54\n      jump\t// in\n    tag_52:\n      stop\n        /* \"CarbonTrader.sol\":7572:7937  function withdrawAcutionAmount() public {... */\n    tag_11:\n      tag_55\n      tag_56\n      jump\t// in\n    tag_55:\n      stop\n        /* \"CarbonTrader.sol\":3755:4597  function startTrade (... */\n    tag_12:\n      tag_57\n      0x04\n      dup1\n      calldatasize\n      sub\n      dup2\n      add\n      swap1\n      tag_58\n      swap2\n      swap1\n      tag_59\n      jump\t// in\n    tag_58:\n      tag_60\n      jump\t// in\n    tag_57:\n      stop\n        /* \"CarbonTrader.sol\":4645:5056  function getTrade(string memory tradeId) public view returns(address, uint256, uint256, uint256, uint256, uint256) {... */\n    tag_13:\n      tag_61\n      0x04\n      dup1\n      calldatasize\n      sub\n      dup2\n      add\n      swap1\n      tag_62\n      swap2\n      swap1\n      tag_24\n      jump\t// in\n    tag_62:\n      tag_63\n      jump\t// in\n    tag_61:\n      mload(0x40)\n      tag_64\n      swap7\n      swap6\n      swap5\n      swap4\n      swap3\n      swap2\n      swap1\n      tag_65\n      jump\t// in\n    tag_64:\n      mload(0x40)\n      dup1\n      swap2\n      sub\n      swap1\n      return\n        /* \"CarbonTrader.sol\":3567:3713  function destoryAllAllowance(address uesr) public onlyOwner {... */\n    tag_14:\n      tag_66\n      0x04\n      dup1\n      calldatasize\n      sub\n      dup2\n      add\n      swap1\n      tag_67\n      swap2\n      swap1\n      tag_45\n      jump\t// in\n    tag_67:\n      tag_68\n      jump\t// in\n    tag_66:\n      stop\n        /* \"CarbonTrader.sol\":6021:6195  function setBidInfo(string memory tradeId, string memory info) public {... */\n    tag_15:\n      tag_69\n      0x04\n      dup1\n      calldatasize\n      sub\n      dup2\n      add\n      swap1\n      tag_70\n      swap2\n      swap1\n      tag_34\n      jump\t// in\n    tag_70:\n      tag_71\n      jump\t// in\n    tag_69:\n      stop\n        /* \"CarbonTrader.sol\":2296:2662  function freezeAllowance(address uesr, uint256 freezedAmount) public onlyOwner {... */\n    tag_16:\n      tag_72\n      0x04\n      dup1\n      calldatasize\n      sub\n      dup2\n      add\n      swap1\n      tag_73\n      swap2\n      swap1\n      tag_30\n      jump\t// in\n    tag_73:\n      tag_74\n      jump\t// in\n    tag_72:\n      stop\n        /* \"CarbonTrader.sol\":6704:7527  function finalizeAuctionAndTransferCarbon(... */\n    tag_17:\n      tag_75\n      0x04\n      dup1\n      calldatasize\n      sub\n      dup2\n      add\n      swap1\n      tag_76\n      swap2\n      swap1\n      tag_77\n      jump\t// in\n    tag_76:\n      tag_78\n      jump\t// in\n    tag_75:\n      stop\n        /* \"CarbonTrader.sol\":2138:2254  function getAllowance(address uesr) public view returns(uint256) {... */\n    tag_18:\n      tag_79\n      0x04\n      dup1\n      calldatasize\n      sub\n      dup2\n      add\n      swap1\n      tag_80\n      swap2\n      swap1\n      tag_45\n      jump\t// in\n    tag_80:\n      tag_81\n      jump\t// in\n    tag_79:\n      mload(0x40)\n      tag_82\n      swap2\n      swap1\n      tag_48\n      jump\t// in\n    tag_82:\n      mload(0x40)\n      dup1\n      swap2\n      sub\n      swap1\n      return\n        /* \"CarbonTrader.sol\":6482:6664  function getBidInfo(string memory tradeId) public view returns(string memory) {... */\n    tag_25:\n        /* \"CarbonTrader.sol\":6545:6558  string memory */\n      0x60\n        /* \"CarbonTrader.sol\":6570:6592  trade storage curTrade */\n      0x00\n        /* \"CarbonTrader.sol\":6595:6602  s_trade */\n      0x03\n        /* \"CarbonTrader.sol\":6603:6610  tradeId */\n      dup4\n        /* \"CarbonTrader.sol\":6595:6611  s_trade[tradeId] */\n      mload(0x40)\n      tag_84\n      swap2\n      swap1\n      tag_85\n      jump\t// in\n    tag_84:\n      swap1\n      dup2\n      mstore\n      0x20\n      add\n      mload(0x40)\n      dup1\n      swap2\n      sub\n      swap1\n      keccak256\n        /* \"CarbonTrader.sol\":6570:6611  trade storage curTrade = s_trade[tradeId] */\n      swap1\n      pop\n        /* \"CarbonTrader.sol\":6628:6636  curTrade */\n      dup1\n        /* \"CarbonTrader.sol\":6628:6645  curTrade.bidinfos */\n      0x07\n      add\n        /* \"CarbonTrader.sol\":6628:6657  curTrade.bidinfos[msg.sender] */\n      0x00\n        /* \"CarbonTrader.sol\":6646:6656  msg.sender */\n      caller\n        /* \"CarbonTrader.sol\":6628:6657  curTrade.bidinfos[msg.sender] */\n      0xffffffffffffffffffffffffffffffffffffffff\n      and\n      0xffffffffffffffffffffffffffffffffffffffff\n      and\n      dup2\n      mstore\n      0x20\n      add\n      swap1\n      dup2\n      mstore\n      0x20\n      add\n      0x00\n      keccak256\n        /* \"CarbonTrader.sol\":6621:6657  return curTrade.bidinfos[msg.sender] */\n      dup1\n      sload\n      tag_86\n      swap1\n      tag_87\n      jump\t// in\n    tag_86:\n      dup1\n      0x1f\n      add\n      0x20\n      dup1\n      swap2\n      div\n      mul\n      0x20\n      add\n      mload(0x40)\n      swap1\n      dup2\n      add\n      0x40\n      mstore\n      dup1\n      swap3\n      swap2\n      swap1\n      dup2\n      dup2\n      mstore\n      0x20\n      add\n      dup3\n      dup1\n      sload\n      tag_88\n      swap1\n      tag_87\n      jump\t// in\n    tag_88:\n      dup1\n      iszero\n      tag_89\n      jumpi\n      dup1\n      0x1f\n      lt\n      tag_90\n      jumpi\n      0x0100\n      dup1\n      dup4\n      sload\n      div\n      mul\n      dup4\n      mstore\n      swap2\n      0x20\n      add\n      swap2\n      jump(tag_89)\n    tag_90:\n      dup3\n      add\n      swap2\n      swap1\n      0x00\n      mstore\n      keccak256(0x00, 0x20)\n      swap1\n    tag_91:\n      dup2\n      sload\n      dup2\n      mstore\n      swap1\n      0x01\n      add\n      swap1\n      0x20\n      add\n      dup1\n      dup4\n      gt\n      tag_91\n      jumpi\n      dup3\n      swap1\n      sub\n      0x1f\n      and\n      dup3\n      add\n      swap2\n    tag_89:\n      pop\n      pop\n      pop\n      pop\n      pop\n      swap2\n      pop\n      pop\n        /* \"CarbonTrader.sol\":6482:6664  function getBidInfo(string memory tradeId) public view returns(string memory) {... */\n      swap2\n      swap1\n      pop\n      jump\t// out\n        /* \"CarbonTrader.sol\":2704:3086  function unFreezeAllowance(address uesr, uint256 unFreezedAmount) public onlyOwner {... */\n    tag_31:\n        /* \"CarbonTrader.sol\":1802:1809  i_owner */\n      immutable(\"0x6fadbaf86d2aa9c9e34a85df385a2c9afa9509e09756634e72bbcf94a5ceb213\")\n        /* \"CarbonTrader.sol\":1788:1809  msg.sender != i_owner */\n      0xffffffffffffffffffffffffffffffffffffffff\n      and\n        /* \"CarbonTrader.sol\":1788:1798  msg.sender */\n      caller\n        /* \"CarbonTrader.sol\":1788:1809  msg.sender != i_owner */\n      0xffffffffffffffffffffffffffffffffffffffff\n      and\n      eq\n        /* \"CarbonTrader.sol\":1784:1867  if (msg.sender != i_owner) {... */\n      tag_93\n      jumpi\n        /* \"CarbonTrader.sol\":1832:1856  CarbonTrader__NotOwner() */\n      mload(0x40)\n      0xcf84d5e300000000000000000000000000000000000000000000000000000000\n      dup2\n      mstore\n      0x04\n      add\n      mload(0x40)\n      dup1\n      swap2\n      sub\n      swap1\n      revert\n        /* \"CarbonTrader.sol\":1784:1867  if (msg.sender != i_owner) {... */\n    tag_93:\n        /* \"CarbonTrader.sol\":2834:2849  unFreezedAmount */\n      dup1\n        /* \"CarbonTrader.sol\":2806:2824  s_frozenAllowances */\n      0x02\n        /* \"CarbonTrader.sol\":2806:2830  s_frozenAllowances[uesr] */\n      0x00\n        /* \"CarbonTrader.sol\":2825:2829  uesr */\n      dup5\n        /* \"CarbonTrader.sol\":2806:2830  s_frozenAllowances[uesr] */\n      0xffffffffffffffffffffffffffffffffffffffff\n      and\n      0xffffffffffffffffffffffffffffffffffffffff\n      and\n      dup2\n      mstore\n      0x20\n      add\n      swap1\n      dup2\n      mstore\n      0x20\n      add\n      0x00\n      keccak256\n      sload\n        /* \"CarbonTrader.sol\":2806:2849  s_frozenAllowances[uesr] <= unFreezedAmount */\n      gt\n      iszero\n        /* \"CarbonTrader.sol\":2797:2898  require (s_frozenAllowances[uesr] <= unFreezedAmount, \"unFreezing amount is greater than available.\") */\n      tag_95\n      jumpi\n      mload(0x40)\n      0x08c379a000000000000000000000000000000000000000000000000000000000\n      dup2\n      mstore\n      0x04\n      add\n      tag_96\n      swap1\n      tag_97\n      jump\t// in\n    tag_96:\n      mload(0x40)\n      dup1\n      swap2\n      sub\n      swap1\n      revert\n    tag_95:\n        /* \"CarbonTrader.sol\":2936:2937  0 */\n      0x00\n        /* \"CarbonTrader.sol\":2917:2932  unFreezedAmount */\n      dup2\n        /* \"CarbonTrader.sol\":2917:2937  unFreezedAmount >= 0 */\n      lt\n      iszero\n        /* \"CarbonTrader.sol\":2908:2970  require (unFreezedAmount >= 0, \"unFreezing amount is no zreo\") */\n      tag_98\n      jumpi\n      mload(0x40)\n      0x08c379a000000000000000000000000000000000000000000000000000000000\n      dup2\n      mstore\n      0x04\n      add\n      tag_99\n      swap1\n      tag_100\n      jump\t// in\n    tag_99:\n      mload(0x40)\n      dup1\n      swap2\n      sub\n      swap1\n      revert\n    tag_98:\n        /* \"CarbonTrader.sol\":3011:3026  unFreezedAmount */\n      dup1\n        /* \"CarbonTrader.sol\":2980:3001  s_addressToAllowances */\n      0x01\n        /* \"CarbonTrader.sol\":2980:3007  s_addressToAllowances[uesr] */\n      0x00\n        /* \"CarbonTrader.sol\":3002:3006  uesr */\n      dup5\n        /* \"CarbonTrader.sol\":2980:3007  s_addressToAllowances[uesr] */\n      0xffffffffffffffffffffffffffffffffffffffff\n      and\n      0xffffffffffffffffffffffffffffffffffffffff\n      and\n      dup2\n      mstore\n      0x20\n      add\n      swap1\n      dup2\n      mstore\n      0x20\n      add\n      0x00\n      keccak256\n      0x00\n        /* \"CarbonTrader.sol\":2980:3026  s_addressToAllowances[uesr] += unFreezedAmount */\n      dup3\n      dup3\n      sload\n      tag_101\n      swap2\n      swap1\n      tag_102\n      jump\t// in\n    tag_101:\n      swap3\n      pop\n      pop\n      dup2\n      swap1\n      sstore\n      pop\n        /* \"CarbonTrader.sol\":3064:3079  unFreezedAmount */\n      dup1\n        /* \"CarbonTrader.sol\":3036:3054  s_frozenAllowances */\n      0x02\n        /* \"CarbonTrader.sol\":3036:3060  s_frozenAllowances[uesr] */\n      0x00\n        /* \"CarbonTrader.sol\":3055:3059  uesr */\n      dup5\n        /* \"CarbonTrader.sol\":3036:3060  s_frozenAllowances[uesr] */\n      0xffffffffffffffffffffffffffffffffffffffff\n      and\n      0xffffffffffffffffffffffffffffffffffffffff\n      and\n      dup2\n      mstore\n      0x20\n      add\n      swap1\n      dup2\n      mstore\n      0x20\n      add\n      0x00\n      keccak256\n      0x00\n        /* \"CarbonTrader.sol\":3036:3079  s_frozenAllowances[uesr] -= unFreezedAmount */\n      dup3\n      dup3\n      sload\n      tag_103\n      swap2\n      swap1\n      tag_104\n      jump\t// in\n    tag_103:\n      swap3\n      pop\n      pop\n      dup2\n      swap1\n      sstore\n      pop\n        /* \"CarbonTrader.sol\":2704:3086  function unFreezeAllowance(address uesr, uint256 unFreezedAmount) public onlyOwner {... */\n      pop\n      pop\n      jump\t// out\n        /* \"CarbonTrader.sol\":6243:6425  function setBidSecret(string memory tradeId, string memory secret) public {... */\n    tag_35:\n        /* \"CarbonTrader.sol\":6327:6349  trade storage curTrade */\n      0x00\n        /* \"CarbonTrader.sol\":6352:6359  s_trade */\n      0x03\n        /* \"CarbonTrader.sol\":6360:6367  tradeId */\n      dup4\n        /* \"CarbonTrader.sol\":6352:6368  s_trade[tradeId] */\n      mload(0x40)\n      tag_106\n      swap2\n      swap1\n      tag_85\n      jump\t// in\n    tag_106:\n      swap1\n      dup2\n      mstore\n      0x20\n      add\n      mload(0x40)\n      dup1\n      swap2\n      sub\n      swap1\n      keccak256\n        /* \"CarbonTrader.sol\":6327:6368  trade storage curTrade = s_trade[tradeId] */\n      swap1\n      pop\n        /* \"CarbonTrader.sol\":6412:6418  secret */\n      dup2\n        /* \"CarbonTrader.sol\":6378:6386  curTrade */\n      dup2\n        /* \"CarbonTrader.sol\":6378:6397  curTrade.bidSecrets */\n      0x08\n      add\n        /* \"CarbonTrader.sol\":6378:6409  curTrade.bidSecrets[msg.sender] */\n      0x00\n        /* \"CarbonTrader.sol\":6398:6408  msg.sender */\n      caller\n        /* \"CarbonTrader.sol\":6378:6409  curTrade.bidSecrets[msg.sender] */\n      0xffffffffffffffffffffffffffffffffffffffff\n      and\n      0xffffffffffffffffffffffffffffffffffffffff\n      and\n      dup2\n      mstore\n      0x20\n      add\n      swap1\n      dup2\n      mstore\n      0x20\n      add\n      0x00\n      keccak256\n        /* \"CarbonTrader.sol\":6378:6418  curTrade.bidSecrets[msg.sender] = secret */\n      swap1\n      dup2\n      tag_107\n      swap2\n      swap1\n      tag_108\n      jump\t// in\n    tag_107:\n      pop\n        /* \"CarbonTrader.sol\":6317:6425  {... */\n      pop\n        /* \"CarbonTrader.sol\":6243:6425  function setBidSecret(string memory tradeId, string memory secret) public {... */\n      pop\n      pop\n      jump\t// out\n        /* \"CarbonTrader.sol\":5098:5496  function deposit(string memory tradeId, uint256 amount, string memory info) public {... */\n    tag_39:\n        /* \"CarbonTrader.sol\":5191:5213  trade storage curTrade */\n      0x00\n        /* \"CarbonTrader.sol\":5216:5223  s_trade */\n      0x03\n        /* \"CarbonTrader.sol\":5224:5231  tradeId */\n      dup5\n        /* \"CarbonTrader.sol\":5216:5232  s_trade[tradeId] */\n      mload(0x40)\n      tag_110\n      swap2\n      swap1\n      tag_85\n      jump\t// in\n    tag_110:\n      swap1\n      dup2\n      mstore\n      0x20\n      add\n      mload(0x40)\n      dup1\n      swap2\n      sub\n      swap1\n      keccak256\n        /* \"CarbonTrader.sol\":5191:5232  trade storage curTrade = s_trade[tradeId] */\n      swap1\n      pop\n        /* \"CarbonTrader.sol\":5243:5255  bool success */\n      0x00\n        /* \"CarbonTrader.sol\":5258:5269  i_usdtToken */\n      immutable(\"0x26a975632f70533c9512e57b565b8ce8e2befee6b08dfbc27c4a897a20e2c1d6\")\n        /* \"CarbonTrader.sol\":5258:5282  i_usdtToken.transferFrom */\n      0xffffffffffffffffffffffffffffffffffffffff\n      and\n      0x23b872dd\n        /* \"CarbonTrader.sol\":5283:5293  msg.sender */\n      caller\n        /* \"CarbonTrader.sol\":5303:5307  this */\n      address\n        /* \"CarbonTrader.sol\":5310:5316  amount */\n      dup8\n        /* \"CarbonTrader.sol\":5258:5317  i_usdtToken.transferFrom(msg.sender, address(this), amount) */\n      mload(0x40)\n      dup5\n      0xffffffff\n      and\n      0xe0\n      shl\n      dup2\n      mstore\n      0x04\n      add\n      tag_111\n      swap4\n      swap3\n      swap2\n      swap1\n      tag_112\n      jump\t// in\n    tag_111:\n      0x20\n      mload(0x40)\n      dup1\n      dup4\n      sub\n      dup2\n      0x00\n      dup8\n      gas\n      call\n      iszero\n      dup1\n      iszero\n      tag_114\n      jumpi\n      returndatasize\n      0x00\n      dup1\n      returndatacopy\n      revert(0x00, returndatasize)\n    tag_114:\n      pop\n      pop\n      pop\n      pop\n      mload(0x40)\n      returndatasize\n      not(0x1f)\n      0x1f\n      dup3\n      add\n      and\n      dup3\n      add\n      dup1\n      0x40\n      mstore\n      pop\n      dup2\n      add\n      swap1\n      tag_115\n      swap2\n      swap1\n      tag_116\n      jump\t// in\n    tag_115:\n        /* \"CarbonTrader.sol\":5243:5317  bool success = i_usdtToken.transferFrom(msg.sender, address(this), amount) */\n      swap1\n      pop\n        /* \"CarbonTrader.sol\":5333:5340  success */\n      dup1\n        /* \"CarbonTrader.sol\":5328:5379  if (!success) revert CarbonTrader__TransferFailed() */\n      tag_117\n      jumpi\n        /* \"CarbonTrader.sol\":5349:5379  CarbonTrader__TransferFailed() */\n      mload(0x40)\n      0x43280ec900000000000000000000000000000000000000000000000000000000\n      dup2\n      mstore\n      0x04\n      add\n      mload(0x40)\n      dup1\n      swap2\n      sub\n      swap1\n      revert\n        /* \"CarbonTrader.sol\":5328:5379  if (!success) revert CarbonTrader__TransferFailed() */\n    tag_117:\n        /* \"CarbonTrader.sol\":5422:5428  amount */\n      dup4\n        /* \"CarbonTrader.sol\":5390:5398  curTrade */\n      dup3\n        /* \"CarbonTrader.sol\":5390:5407  curTrade.deposits */\n      0x06\n      add\n        /* \"CarbonTrader.sol\":5390:5419  curTrade.deposits[msg.sender] */\n      0x00\n        /* \"CarbonTrader.sol\":5408:5418  msg.sender */\n      caller\n        /* \"CarbonTrader.sol\":5390:5419  curTrade.deposits[msg.sender] */\n      0xffffffffffffffffffffffffffffffffffffffff\n      and\n      0xffffffffffffffffffffffffffffffffffffffff\n      and\n      dup2\n      mstore\n      0x20\n      add\n      swap1\n      dup2\n      mstore\n      0x20\n      add\n      0x00\n      keccak256\n        /* \"CarbonTrader.sol\":5390:5428  curTrade.deposits[msg.sender] = amount */\n      dup2\n      swap1\n      sstore\n      pop\n        /* \"CarbonTrader.sol\":5463:5488  setBidInfo(tradeId, info) */\n      tag_118\n        /* \"CarbonTrader.sol\":5474:5481  tradeId */\n      dup6\n        /* \"CarbonTrader.sol\":5483:5487  info */\n      dup5\n        /* \"CarbonTrader.sol\":5463:5473  setBidInfo */\n      tag_71\n        /* \"CarbonTrader.sol\":5463:5488  setBidInfo(tradeId, info) */\n      jump\t// in\n    tag_118:\n        /* \"CarbonTrader.sol\":5181:5496  {... */\n      pop\n      pop\n        /* \"CarbonTrader.sol\":5098:5496  function deposit(string memory tradeId, uint256 amount, string memory info) public {... */\n      pop\n      pop\n      pop\n      jump\t// out\n        /* \"CarbonTrader.sol\":5538:5973  function refundDeposit(string memory tradeId) public {... */\n    tag_42:\n        /* \"CarbonTrader.sol\":5601:5623  trade storage curTrade */\n      0x00\n        /* \"CarbonTrader.sol\":5626:5633  s_trade */\n      0x03\n        /* \"CarbonTrader.sol\":5634:5641  tradeId */\n      dup3\n        /* \"CarbonTrader.sol\":5626:5642  s_trade[tradeId] */\n      mload(0x40)\n      tag_120\n      swap2\n      swap1\n      tag_85\n      jump\t// in\n    tag_120:\n      swap1\n      dup2\n      mstore\n      0x20\n      add\n      mload(0x40)\n      dup1\n      swap2\n      sub\n      swap1\n      keccak256\n        /* \"CarbonTrader.sol\":5601:5642  trade storage curTrade = s_trade[tradeId] */\n      swap1\n      pop\n        /* \"CarbonTrader.sol\":5652:5673  uint256 depositAmount */\n      0x00\n        /* \"CarbonTrader.sol\":5676:5684  curTrade */\n      dup2\n        /* \"CarbonTrader.sol\":5676:5693  curTrade.deposits */\n      0x06\n      add\n        /* \"CarbonTrader.sol\":5676:5705  curTrade.deposits[msg.sender] */\n      0x00\n        /* \"CarbonTrader.sol\":5694:5704  msg.sender */\n      caller\n        /* \"CarbonTrader.sol\":5676:5705  curTrade.deposits[msg.sender] */\n      0xffffffffffffffffffffffffffffffffffffffff\n      and\n      0xffffffffffffffffffffffffffffffffffffffff\n      and\n      dup2\n      mstore\n      0x20\n      add\n      swap1\n      dup2\n      mstore\n      0x20\n      add\n      0x00\n      keccak256\n      sload\n        /* \"CarbonTrader.sol\":5652:5705  uint256 depositAmount = curTrade.deposits[msg.sender] */\n      swap1\n      pop\n        /* \"CarbonTrader.sol\":5747:5748  0 */\n      0x00\n        /* \"CarbonTrader.sol\":5715:5723  curTrade */\n      dup3\n        /* \"CarbonTrader.sol\":5715:5732  curTrade.deposits */\n      0x06\n      add\n        /* \"CarbonTrader.sol\":5715:5744  curTrade.deposits[msg.sender] */\n      0x00\n        /* \"CarbonTrader.sol\":5733:5743  msg.sender */\n      caller\n        /* \"CarbonTrader.sol\":5715:5744  curTrade.deposits[msg.sender] */\n      0xffffffffffffffffffffffffffffffffffffffff\n      and\n      0xffffffffffffffffffffffffffffffffffffffff\n      and\n      dup2\n      mstore\n      0x20\n      add\n      swap1\n      dup2\n      mstore\n      0x20\n      add\n      0x00\n      keccak256\n        /* \"CarbonTrader.sol\":5715:5748  curTrade.deposits[msg.sender] = 0 */\n      dup2\n      swap1\n      sstore\n      pop\n        /* \"CarbonTrader.sol\":5759:5771  bool success */\n      0x00\n        /* \"CarbonTrader.sol\":5774:5785  i_usdtToken */\n      immutable(\"0x26a975632f70533c9512e57b565b8ce8e2befee6b08dfbc27c4a897a20e2c1d6\")\n        /* \"CarbonTrader.sol\":5774:5794  i_usdtToken.transfer */\n      0xffffffffffffffffffffffffffffffffffffffff\n      and\n      0xa9059cbb\n        /* \"CarbonTrader.sol\":5795:5805  msg.sender */\n      caller\n        /* \"CarbonTrader.sol\":5807:5820  depositAmount */\n      dup5\n        /* \"CarbonTrader.sol\":5774:5821  i_usdtToken.transfer(msg.sender, depositAmount) */\n      mload(0x40)\n      dup4\n      0xffffffff\n      and\n      0xe0\n      shl\n      dup2\n      mstore\n      0x04\n      add\n      tag_121\n      swap3\n      swap2\n      swap1\n      tag_122\n      jump\t// in\n    tag_121:\n      0x20\n      mload(0x40)\n      dup1\n      dup4\n      sub\n      dup2\n      0x00\n      dup8\n      gas\n      call\n      iszero\n      dup1\n      iszero\n      tag_124\n      jumpi\n      returndatasize\n      0x00\n      dup1\n      returndatacopy\n      revert(0x00, returndatasize)\n    tag_124:\n      pop\n      pop\n      pop\n      pop\n      mload(0x40)\n      returndatasize\n      not(0x1f)\n      0x1f\n      dup3\n      add\n      and\n      dup3\n      add\n      dup1\n      0x40\n      mstore\n      pop\n      dup2\n      add\n      swap1\n      tag_125\n      swap2\n      swap1\n      tag_116\n      jump\t// in\n    tag_125:\n        /* \"CarbonTrader.sol\":5759:5821  bool success = i_usdtToken.transfer(msg.sender, depositAmount) */\n      swap1\n      pop\n        /* \"CarbonTrader.sol\":5837:5844  success */\n      dup1\n        /* \"CarbonTrader.sol\":5832:5967  if (!success) {... */\n      tag_126\n      jumpi\n        /* \"CarbonTrader.sol\":5892:5905  depositAmount */\n      dup2\n        /* \"CarbonTrader.sol\":5860:5868  curTrade */\n      dup4\n        /* \"CarbonTrader.sol\":5860:5877  curTrade.deposits */\n      0x06\n      add\n        /* \"CarbonTrader.sol\":5860:5889  curTrade.deposits[msg.sender] */\n      0x00\n        /* \"CarbonTrader.sol\":5878:5888  msg.sender */\n      caller\n        /* \"CarbonTrader.sol\":5860:5889  curTrade.deposits[msg.sender] */\n      0xffffffffffffffffffffffffffffffffffffffff\n      and\n      0xffffffffffffffffffffffffffffffffffffffff\n      and\n      dup2\n      mstore\n      0x20\n      add\n      swap1\n      dup2\n      mstore\n      0x20\n      add\n      0x00\n      keccak256\n        /* \"CarbonTrader.sol\":5860:5905  curTrade.deposits[msg.sender] = depositAmount */\n      dup2\n      swap1\n      sstore\n      pop\n        /* \"CarbonTrader.sol\":5926:5956  CarbonTrader__TransferFailed() */\n      mload(0x40)\n      0x43280ec900000000000000000000000000000000000000000000000000000000\n      dup2\n      mstore\n      0x04\n      add\n      mload(0x40)\n      dup1\n      swap2\n      sub\n      swap1\n      revert\n        /* \"CarbonTrader.sol\":5832:5967  if (!success) {... */\n    tag_126:\n        /* \"CarbonTrader.sol\":5591:5973  {... */\n      pop\n      pop\n      pop\n        /* \"CarbonTrader.sol\":5538:5973  function refundDeposit(string memory tradeId) public {... */\n      pop\n      jump\t// out\n        /* \"CarbonTrader.sol\":3134:3254  function getFrozenAllowance(address uesr) public view returns (uint256) {... */\n    tag_46:\n        /* \"CarbonTrader.sol\":3197:3204  uint256 */\n      0x00\n        /* \"CarbonTrader.sol\":3223:3241  s_frozenAllowances */\n      0x02\n        /* \"CarbonTrader.sol\":3223:3247  s_frozenAllowances[uesr] */\n      0x00\n        /* \"CarbonTrader.sol\":3242:3246  uesr */\n      dup4\n        /* \"CarbonTrader.sol\":3223:3247  s_frozenAllowances[uesr] */\n      0xffffffffffffffffffffffffffffffffffffffff\n      and\n      0xffffffffffffffffffffffffffffffffffffffff\n      and\n      dup2\n      mstore\n      0x20\n      add\n      swap1\n      dup2\n      mstore\n      0x20\n      add\n      0x00\n      keccak256\n      sload\n        /* \"CarbonTrader.sol\":3216:3247  return s_frozenAllowances[uesr] */\n      swap1\n      pop\n        /* \"CarbonTrader.sol\":3134:3254  function getFrozenAllowance(address uesr) public view returns (uint256) {... */\n      swap2\n      swap1\n      pop\n      jump\t// out\n        /* \"CarbonTrader.sol\":3308:3519  function destoryAllowance(address uesr, uint256 destoryAmount) public onlyOwner {... */\n    tag_51:\n        /* \"CarbonTrader.sol\":1802:1809  i_owner */\n      immutable(\"0x6fadbaf86d2aa9c9e34a85df385a2c9afa9509e09756634e72bbcf94a5ceb213\")\n        /* \"CarbonTrader.sol\":1788:1809  msg.sender != i_owner */\n      0xffffffffffffffffffffffffffffffffffffffff\n      and\n        /* \"CarbonTrader.sol\":1788:1798  msg.sender */\n      caller\n        /* \"CarbonTrader.sol\":1788:1809  msg.sender != i_owner */\n      0xffffffffffffffffffffffffffffffffffffffff\n      and\n      eq\n        /* \"CarbonTrader.sol\":1784:1867  if (msg.sender != i_owner) {... */\n      tag_129\n      jumpi\n        /* \"CarbonTrader.sol\":1832:1856  CarbonTrader__NotOwner() */\n      mload(0x40)\n      0xcf84d5e300000000000000000000000000000000000000000000000000000000\n      dup2\n      mstore\n      0x04\n      add\n      mload(0x40)\n      dup1\n      swap2\n      sub\n      swap1\n      revert\n        /* \"CarbonTrader.sol\":1784:1867  if (msg.sender != i_owner) {... */\n    tag_129:\n        /* \"CarbonTrader.sol\":3424:3425  0 */\n      0x00\n        /* \"CarbonTrader.sol\":3407:3420  destoryAmount */\n      dup2\n        /* \"CarbonTrader.sol\":3407:3425  destoryAmount >= 0 */\n      lt\n      iszero\n        /* \"CarbonTrader.sol\":3398:3458  require (destoryAmount >= 0, \"unFreezing amount is no zreo\") */\n      tag_131\n      jumpi\n      mload(0x40)\n      0x08c379a000000000000000000000000000000000000000000000000000000000\n      dup2\n      mstore\n      0x04\n      add\n      tag_132\n      swap1\n      tag_100\n      jump\t// in\n    tag_132:\n      mload(0x40)\n      dup1\n      swap2\n      sub\n      swap1\n      revert\n    tag_131:\n        /* \"CarbonTrader.sol\":3499:3512  destoryAmount */\n      dup1\n        /* \"CarbonTrader.sol\":3468:3489  s_addressToAllowances */\n      0x01\n        /* \"CarbonTrader.sol\":3468:3495  s_addressToAllowances[uesr] */\n      0x00\n        /* \"CarbonTrader.sol\":3490:3494  uesr */\n      dup5\n        /* \"CarbonTrader.sol\":3468:3495  s_addressToAllowances[uesr] */\n      0xffffffffffffffffffffffffffffffffffffffff\n      and\n      0xffffffffffffffffffffffffffffffffffffffff\n      and\n      dup2\n      mstore\n      0x20\n      add\n      swap1\n      dup2\n      mstore\n      0x20\n      add\n      0x00\n      keccak256\n      0x00\n        /* \"CarbonTrader.sol\":3468:3512  s_addressToAllowances[uesr] -= destoryAmount */\n      dup3\n      dup3\n      sload\n      tag_133\n      swap2\n      swap1\n      tag_104\n      jump\t// in\n    tag_133:\n      swap3\n      pop\n      pop\n      dup2\n      swap1\n      sstore\n      pop\n        /* \"CarbonTrader.sol\":3308:3519  function destoryAllowance(address uesr, uint256 destoryAmount) public onlyOwner {... */\n      pop\n      pop\n      jump\t// out\n        /* \"CarbonTrader.sol\":1962:2087  function issueAllowance(address uesr, uint256 amount) public onlyOwner {... */\n    tag_54:\n        /* \"CarbonTrader.sol\":1802:1809  i_owner */\n      immutable(\"0x6fadbaf86d2aa9c9e34a85df385a2c9afa9509e09756634e72bbcf94a5ceb213\")\n        /* \"CarbonTrader.sol\":1788:1809  msg.sender != i_owner */\n      0xffffffffffffffffffffffffffffffffffffffff\n      and\n        /* \"CarbonTrader.sol\":1788:1798  msg.sender */\n      caller\n        /* \"CarbonTrader.sol\":1788:1809  msg.sender != i_owner */\n      0xffffffffffffffffffffffffffffffffffffffff\n      and\n      eq\n        /* \"CarbonTrader.sol\":1784:1867  if (msg.sender != i_owner) {... */\n      tag_135\n      jumpi\n        /* \"CarbonTrader.sol\":1832:1856  CarbonTrader__NotOwner() */\n      mload(0x40)\n      0xcf84d5e300000000000000000000000000000000000000000000000000000000\n      dup2\n      mstore\n      0x04\n      add\n      mload(0x40)\n      dup1\n      swap2\n      sub\n      swap1\n      revert\n        /* \"CarbonTrader.sol\":1784:1867  if (msg.sender != i_owner) {... */\n    tag_135:\n        /* \"CarbonTrader.sol\":2074:2080  amount */\n      dup1\n        /* \"CarbonTrader.sol\":2043:2064  s_addressToAllowances */\n      0x01\n        /* \"CarbonTrader.sol\":2043:2070  s_addressToAllowances[uesr] */\n      0x00\n        /* \"CarbonTrader.sol\":2065:2069  uesr */\n      dup5\n        /* \"CarbonTrader.sol\":2043:2070  s_addressToAllowances[uesr] */\n      0xffffffffffffffffffffffffffffffffffffffff\n      and\n      0xffffffffffffffffffffffffffffffffffffffff\n      and\n      dup2\n      mstore\n      0x20\n      add\n      swap1\n      dup2\n      mstore\n      0x20\n      add\n      0x00\n      keccak256\n      0x00\n        /* \"CarbonTrader.sol\":2043:2080  s_addressToAllowances[uesr] += amount */\n      dup3\n      dup3\n      sload\n      tag_137\n      swap2\n      swap1\n      tag_102\n      jump\t// in\n    tag_137:\n      swap3\n      pop\n      pop\n      dup2\n      swap1\n      sstore\n      pop\n        /* \"CarbonTrader.sol\":1962:2087  function issueAllowance(address uesr, uint256 amount) public onlyOwner {... */\n      pop\n      pop\n      jump\t// out\n        /* \"CarbonTrader.sol\":7572:7937  function withdrawAcutionAmount() public {... */\n    tag_56:\n        /* \"CarbonTrader.sol\":7622:7643  uint256 auctionAmount */\n      0x00\n        /* \"CarbonTrader.sol\":7646:7661  s_auctionAmount */\n      dup1\n        /* \"CarbonTrader.sol\":7646:7673  s_auctionAmount[msg.sender] */\n      0x00\n        /* \"CarbonTrader.sol\":7662:7672  msg.sender */\n      caller\n        /* \"CarbonTrader.sol\":7646:7673  s_auctionAmount[msg.sender] */\n      0xffffffffffffffffffffffffffffffffffffffff\n      and\n      0xffffffffffffffffffffffffffffffffffffffff\n      and\n      dup2\n      mstore\n      0x20\n      add\n      swap1\n      dup2\n      mstore\n      0x20\n      add\n      0x00\n      keccak256\n      sload\n        /* \"CarbonTrader.sol\":7622:7673  uint256 auctionAmount = s_auctionAmount[msg.sender] */\n      swap1\n      pop\n        /* \"CarbonTrader.sol\":7713:7714  0 */\n      0x00\n        /* \"CarbonTrader.sol\":7683:7698  s_auctionAmount */\n      dup1\n        /* \"CarbonTrader.sol\":7683:7710  s_auctionAmount[msg.sender] */\n      0x00\n        /* \"CarbonTrader.sol\":7699:7709  msg.sender */\n      caller\n        /* \"CarbonTrader.sol\":7683:7710  s_auctionAmount[msg.sender] */\n      0xffffffffffffffffffffffffffffffffffffffff\n      and\n      0xffffffffffffffffffffffffffffffffffffffff\n      and\n      dup2\n      mstore\n      0x20\n      add\n      swap1\n      dup2\n      mstore\n      0x20\n      add\n      0x00\n      keccak256\n        /* \"CarbonTrader.sol\":7683:7714  s_auctionAmount[msg.sender] = 0 */\n      dup2\n      swap1\n      sstore\n      pop\n        /* \"CarbonTrader.sol\":7725:7737  bool success */\n      0x00\n        /* \"CarbonTrader.sol\":7740:7751  i_usdtToken */\n      immutable(\"0x26a975632f70533c9512e57b565b8ce8e2befee6b08dfbc27c4a897a20e2c1d6\")\n        /* \"CarbonTrader.sol\":7740:7760  i_usdtToken.transfer */\n      0xffffffffffffffffffffffffffffffffffffffff\n      and\n      0xa9059cbb\n        /* \"CarbonTrader.sol\":7761:7771  msg.sender */\n      caller\n        /* \"CarbonTrader.sol\":7773:7786  auctionAmount */\n      dup5\n        /* \"CarbonTrader.sol\":7740:7787  i_usdtToken.transfer(msg.sender, auctionAmount) */\n      mload(0x40)\n      dup4\n      0xffffffff\n      and\n      0xe0\n      shl\n      dup2\n      mstore\n      0x04\n      add\n      tag_139\n      swap3\n      swap2\n      swap1\n      tag_122\n      jump\t// in\n    tag_139:\n      0x20\n      mload(0x40)\n      dup1\n      dup4\n      sub\n      dup2\n      0x00\n      dup8\n      gas\n      call\n      iszero\n      dup1\n      iszero\n      tag_141\n      jumpi\n      returndatasize\n      0x00\n      dup1\n      returndatacopy\n      revert(0x00, returndatasize)\n    tag_141:\n      pop\n      pop\n      pop\n      pop\n      mload(0x40)\n      returndatasize\n      not(0x1f)\n      0x1f\n      dup3\n      add\n      and\n      dup3\n      add\n      dup1\n      0x40\n      mstore\n      pop\n      dup2\n      add\n      swap1\n      tag_142\n      swap2\n      swap1\n      tag_116\n      jump\t// in\n    tag_142:\n        /* \"CarbonTrader.sol\":7725:7787  bool success = i_usdtToken.transfer(msg.sender, auctionAmount) */\n      swap1\n      pop\n        /* \"CarbonTrader.sol\":7803:7810  success */\n      dup1\n        /* \"CarbonTrader.sol\":7798:7931  if (!success) {... */\n      tag_143\n      jumpi\n        /* \"CarbonTrader.sol\":7856:7869  auctionAmount */\n      dup2\n        /* \"CarbonTrader.sol\":7826:7841  s_auctionAmount */\n      0x00\n        /* \"CarbonTrader.sol\":7826:7853  s_auctionAmount[msg.sender] */\n      dup1\n        /* \"CarbonTrader.sol\":7842:7852  msg.sender */\n      caller\n        /* \"CarbonTrader.sol\":7826:7853  s_auctionAmount[msg.sender] */\n      0xffffffffffffffffffffffffffffffffffffffff\n      and\n      0xffffffffffffffffffffffffffffffffffffffff\n      and\n      dup2\n      mstore\n      0x20\n      add\n      swap1\n      dup2\n      mstore\n      0x20\n      add\n      0x00\n      keccak256\n        /* \"CarbonTrader.sol\":7826:7869  s_auctionAmount[msg.sender] = auctionAmount */\n      dup2\n      swap1\n      sstore\n      pop\n        /* \"CarbonTrader.sol\":7890:7920  CarbonTrader__TransferFailed() */\n      mload(0x40)\n      0x43280ec900000000000000000000000000000000000000000000000000000000\n      dup2\n      mstore\n      0x04\n      add\n      mload(0x40)\n      dup1\n      swap2\n      sub\n      swap1\n      revert\n        /* \"CarbonTrader.sol\":7798:7931  if (!success) {... */\n    tag_143:\n        /* \"CarbonTrader.sol\":7612:7937  {... */\n      pop\n      pop\n        /* \"CarbonTrader.sol\":7572:7937  function withdrawAcutionAmount() public {... */\n      jump\t// out\n        /* \"CarbonTrader.sol\":3755:4597  function startTrade (... */\n    tag_60:\n        /* \"CarbonTrader.sol\":4010:4011  0 */\n      0x00\n        /* \"CarbonTrader.sol\":4000:4006  amount */\n      dup6\n        /* \"CarbonTrader.sol\":4000:4011  amount <= 0 */\n      gt\n      iszero\n        /* \"CarbonTrader.sol\":4000:4045  amount <= 0 || startTimestamp >= endTimestamp */\n      dup1\n      tag_145\n      jumpi\n      pop\n        /* \"CarbonTrader.sol\":4033:4045  endTimestamp */\n      dup3\n        /* \"CarbonTrader.sol\":4015:4029  startTimestamp */\n      dup5\n        /* \"CarbonTrader.sol\":4015:4045  startTimestamp >= endTimestamp */\n      lt\n      iszero\n        /* \"CarbonTrader.sol\":4000:4045  amount <= 0 || startTimestamp >= endTimestamp */\n    tag_145:\n        /* \"CarbonTrader.sol\":4000:4082  amount <= 0 || startTimestamp >= endTimestamp ||... */\n      dup1\n      tag_146\n      jumpi\n      pop\n        /* \"CarbonTrader.sol\":4081:4082  0 */\n      0x00\n        /* \"CarbonTrader.sol\":4061:4077  minimumBidAmount */\n      dup3\n        /* \"CarbonTrader.sol\":4061:4082  minimumBidAmount <= 0 */\n      gt\n      iszero\n        /* \"CarbonTrader.sol\":4000:4082  amount <= 0 || startTimestamp >= endTimestamp ||... */\n    tag_146:\n        /* \"CarbonTrader.sol\":4000:4106  amount <= 0 || startTimestamp >= endTimestamp ||... */\n      dup1\n      tag_147\n      jumpi\n      pop\n        /* \"CarbonTrader.sol\":4105:4106  0 */\n      0x00\n        /* \"CarbonTrader.sol\":4086:4101  initPriceOfUnit */\n      dup2\n        /* \"CarbonTrader.sol\":4086:4106  initPriceOfUnit <= 0 */\n      gt\n      iszero\n        /* \"CarbonTrader.sol\":4000:4106  amount <= 0 || startTimestamp >= endTimestamp ||... */\n    tag_147:\n        /* \"CarbonTrader.sol\":4000:4147  amount <= 0 || startTimestamp >= endTimestamp ||... */\n      dup1\n      tag_148\n      jumpi\n      pop\n        /* \"CarbonTrader.sol\":4141:4147  amount */\n      dup5\n        /* \"CarbonTrader.sol\":4122:4138  minimumBidAmount */\n      dup3\n        /* \"CarbonTrader.sol\":4122:4147  minimumBidAmount > amount */\n      gt\n        /* \"CarbonTrader.sol\":4000:4147  amount <= 0 || startTimestamp >= endTimestamp ||... */\n    tag_148:\n        /* \"CarbonTrader.sol\":3983:4191  if (... */\n      iszero\n      tag_149\n      jumpi\n        /* \"CarbonTrader.sol\":4165:4191  CarbonTrader__ParamError() */\n      mload(0x40)\n      0x9821950800000000000000000000000000000000000000000000000000000000\n      dup2\n      mstore\n      0x04\n      add\n      mload(0x40)\n      dup1\n      swap2\n      sub\n      swap1\n      revert\n        /* \"CarbonTrader.sol\":3983:4191  if (... */\n    tag_149:\n        /* \"CarbonTrader.sol\":4202:4224  trade storage newTrade */\n      0x00\n        /* \"CarbonTrader.sol\":4227:4234  s_trade */\n      0x03\n        /* \"CarbonTrader.sol\":4235:4242  tradeId */\n      dup8\n        /* \"CarbonTrader.sol\":4227:4243  s_trade[tradeId] */\n      mload(0x40)\n      tag_150\n      swap2\n      swap1\n      tag_85\n      jump\t// in\n    tag_150:\n      swap1\n      dup2\n      mstore\n      0x20\n      add\n      mload(0x40)\n      dup1\n      swap2\n      sub\n      swap1\n      keccak256\n        /* \"CarbonTrader.sol\":4202:4243  trade storage newTrade = s_trade[tradeId] */\n      swap1\n      pop\n        /* \"CarbonTrader.sol\":4271:4281  msg.sender */\n      caller\n        /* \"CarbonTrader.sol\":4253:4261  newTrade */\n      dup2\n        /* \"CarbonTrader.sol\":4253:4268  newTrade.seller */\n      0x00\n      add\n      0x00\n        /* \"CarbonTrader.sol\":4253:4281  newTrade.seller = msg.sender */\n      0x0100\n      exp\n      dup2\n      sload\n      dup2\n      0xffffffffffffffffffffffffffffffffffffffff\n      mul\n      not\n      and\n      swap1\n      dup4\n      0xffffffffffffffffffffffffffffffffffffffff\n      and\n      mul\n      or\n      swap1\n      sstore\n      pop\n        /* \"CarbonTrader.sol\":4313:4319  amount */\n      dup6\n        /* \"CarbonTrader.sol\":4291:4299  newTrade */\n      dup2\n        /* \"CarbonTrader.sol\":4291:4310  newTrade.sellAmount */\n      0x01\n      add\n        /* \"CarbonTrader.sol\":4291:4319  newTrade.sellAmount = amount */\n      dup2\n      swap1\n      sstore\n      pop\n        /* \"CarbonTrader.sol\":4355:4369  startTimestamp */\n      dup5\n        /* \"CarbonTrader.sol\":4329:4337  newTrade */\n      dup2\n        /* \"CarbonTrader.sol\":4329:4352  newTrade.startTimestamp */\n      0x02\n      add\n        /* \"CarbonTrader.sol\":4329:4369  newTrade.startTimestamp = startTimestamp */\n      dup2\n      swap1\n      sstore\n      pop\n        /* \"CarbonTrader.sol\":4403:4415  endTimestamp */\n      dup4\n        /* \"CarbonTrader.sol\":4379:4387  newTrade */\n      dup2\n        /* \"CarbonTrader.sol\":4379:4400  newTrade.endTimestamp */\n      0x03\n      add\n        /* \"CarbonTrader.sol\":4379:4415  newTrade.endTimestamp = endTimestamp */\n      dup2\n      swap1\n      sstore\n      pop\n        /* \"CarbonTrader.sol\":4453:4469  minimumBidAmount */\n      dup3\n        /* \"CarbonTrader.sol\":4425:4433  newTrade */\n      dup2\n        /* \"CarbonTrader.sol\":4425:4450  newTrade.minimumBidAmount */\n      0x04\n      add\n        /* \"CarbonTrader.sol\":4425:4469  newTrade.minimumBidAmount = minimumBidAmount */\n      dup2\n      swap1\n      sstore\n      pop\n        /* \"CarbonTrader.sol\":4506:4521  initPriceOfUnit */\n      dup2\n        /* \"CarbonTrader.sol\":4479:4487  newTrade */\n      dup2\n        /* \"CarbonTrader.sol\":4479:4503  newTrade.initPriceOfUnit */\n      0x05\n      add\n        /* \"CarbonTrader.sol\":4479:4521  newTrade.initPriceOfUnit = initPriceOfUnit */\n      dup2\n      swap1\n      sstore\n      pop\n        /* \"CarbonTrader.sol\":4555:4590  freezeAllowance(msg.sender, amount) */\n      tag_151\n        /* \"CarbonTrader.sol\":4571:4581  msg.sender */\n      caller\n        /* \"CarbonTrader.sol\":4583:4589  amount */\n      dup8\n        /* \"CarbonTrader.sol\":4555:4570  freezeAllowance */\n      tag_74\n        /* \"CarbonTrader.sol\":4555:4590  freezeAllowance(msg.sender, amount) */\n      jump\t// in\n    tag_151:\n        /* \"CarbonTrader.sol\":3973:4597  {... */\n      pop\n        /* \"CarbonTrader.sol\":3755:4597  function startTrade (... */\n      pop\n      pop\n      pop\n      pop\n      pop\n      pop\n      jump\t// out\n        /* \"CarbonTrader.sol\":4645:5056  function getTrade(string memory tradeId) public view returns(address, uint256, uint256, uint256, uint256, uint256) {... */\n    tag_63:\n        /* \"CarbonTrader.sol\":4706:4713  address */\n      0x00\n        /* \"CarbonTrader.sol\":4715:4722  uint256 */\n      dup1\n        /* \"CarbonTrader.sol\":4724:4731  uint256 */\n      0x00\n        /* \"CarbonTrader.sol\":4733:4740  uint256 */\n      dup1\n        /* \"CarbonTrader.sol\":4742:4749  uint256 */\n      0x00\n        /* \"CarbonTrader.sol\":4751:4758  uint256 */\n      dup1\n        /* \"CarbonTrader.sol\":4770:4792  trade storage curTrade */\n      0x00\n        /* \"CarbonTrader.sol\":4795:4802  s_trade */\n      0x03\n        /* \"CarbonTrader.sol\":4803:4810  tradeId */\n      dup9\n        /* \"CarbonTrader.sol\":4795:4811  s_trade[tradeId] */\n      mload(0x40)\n      tag_153\n      swap2\n      swap1\n      tag_85\n      jump\t// in\n    tag_153:\n      swap1\n      dup2\n      mstore\n      0x20\n      add\n      mload(0x40)\n      dup1\n      swap2\n      sub\n      swap1\n      keccak256\n        /* \"CarbonTrader.sol\":4770:4811  trade storage curTrade = s_trade[tradeId] */\n      swap1\n      pop\n        /* \"CarbonTrader.sol\":4842:4850  curTrade */\n      dup1\n        /* \"CarbonTrader.sol\":4842:4857  curTrade.seller */\n      0x00\n      add\n      0x00\n      swap1\n      sload\n      swap1\n      0x0100\n      exp\n      swap1\n      div\n      0xffffffffffffffffffffffffffffffffffffffff\n      and\n        /* \"CarbonTrader.sol\":4871:4879  curTrade */\n      dup2\n        /* \"CarbonTrader.sol\":4871:4890  curTrade.sellAmount */\n      0x01\n      add\n      sload\n        /* \"CarbonTrader.sol\":4904:4912  curTrade */\n      dup3\n        /* \"CarbonTrader.sol\":4904:4927  curTrade.startTimestamp */\n      0x02\n      add\n      sload\n        /* \"CarbonTrader.sol\":4941:4949  curTrade */\n      dup4\n        /* \"CarbonTrader.sol\":4941:4962  curTrade.endTimestamp */\n      0x03\n      add\n      sload\n        /* \"CarbonTrader.sol\":4976:4984  curTrade */\n      dup5\n        /* \"CarbonTrader.sol\":4976:5001  curTrade.minimumBidAmount */\n      0x04\n      add\n      sload\n        /* \"CarbonTrader.sol\":5015:5023  curTrade */\n      dup6\n        /* \"CarbonTrader.sol\":5015:5039  curTrade.initPriceOfUnit */\n      0x05\n      add\n      sload\n        /* \"CarbonTrader.sol\":4821:5049  return (... */\n      swap7\n      pop\n      swap7\n      pop\n      swap7\n      pop\n      swap7\n      pop\n      swap7\n      pop\n      swap7\n      pop\n      pop\n        /* \"CarbonTrader.sol\":4645:5056  function getTrade(string memory tradeId) public view returns(address, uint256, uint256, uint256, uint256, uint256) {... */\n      swap2\n      swap4\n      swap6\n      pop\n      swap2\n      swap4\n      swap6\n      jump\t// out\n        /* \"CarbonTrader.sol\":3567:3713  function destoryAllAllowance(address uesr) public onlyOwner {... */\n    tag_68:\n        /* \"CarbonTrader.sol\":1802:1809  i_owner */\n      immutable(\"0x6fadbaf86d2aa9c9e34a85df385a2c9afa9509e09756634e72bbcf94a5ceb213\")\n        /* \"CarbonTrader.sol\":1788:1809  msg.sender != i_owner */\n      0xffffffffffffffffffffffffffffffffffffffff\n      and\n        /* \"CarbonTrader.sol\":1788:1798  msg.sender */\n      caller\n        /* \"CarbonTrader.sol\":1788:1809  msg.sender != i_owner */\n      0xffffffffffffffffffffffffffffffffffffffff\n      and\n      eq\n        /* \"CarbonTrader.sol\":1784:1867  if (msg.sender != i_owner) {... */\n      tag_155\n      jumpi\n        /* \"CarbonTrader.sol\":1832:1856  CarbonTrader__NotOwner() */\n      mload(0x40)\n      0xcf84d5e300000000000000000000000000000000000000000000000000000000\n      dup2\n      mstore\n      0x04\n      add\n      mload(0x40)\n      dup1\n      swap2\n      sub\n      swap1\n      revert\n        /* \"CarbonTrader.sol\":1784:1867  if (msg.sender != i_owner) {... */\n    tag_155:\n        /* \"CarbonTrader.sol\":3667:3668  0 */\n      0x00\n        /* \"CarbonTrader.sol\":3637:3658  s_addressToAllowances */\n      0x01\n        /* \"CarbonTrader.sol\":3637:3664  s_addressToAllowances[uesr] */\n      0x00\n        /* \"CarbonTrader.sol\":3659:3663  uesr */\n      dup4\n        /* \"CarbonTrader.sol\":3637:3664  s_addressToAllowances[uesr] */\n      0xffffffffffffffffffffffffffffffffffffffff\n      and\n      0xffffffffffffffffffffffffffffffffffffffff\n      and\n      dup2\n      mstore\n      0x20\n      add\n      swap1\n      dup2\n      mstore\n      0x20\n      add\n      0x00\n      keccak256\n        /* \"CarbonTrader.sol\":3637:3668  s_addressToAllowances[uesr] = 0 */\n      dup2\n      swap1\n      sstore\n      pop\n        /* \"CarbonTrader.sol\":3705:3706  0 */\n      0x00\n        /* \"CarbonTrader.sol\":3678:3696  s_frozenAllowances */\n      0x02\n        /* \"CarbonTrader.sol\":3678:3702  s_frozenAllowances[uesr] */\n      0x00\n        /* \"CarbonTrader.sol\":3697:3701  uesr */\n      dup4\n        /* \"CarbonTrader.sol\":3678:3702  s_frozenAllowances[uesr] */\n      0xffffffffffffffffffffffffffffffffffffffff\n      and\n      0xffffffffffffffffffffffffffffffffffffffff\n      and\n      dup2\n      mstore\n      0x20\n      add\n      swap1\n      dup2\n      mstore\n      0x20\n      add\n      0x00\n      keccak256\n        /* \"CarbonTrader.sol\":3678:3706  s_frozenAllowances[uesr] = 0 */\n      dup2\n      swap1\n      sstore\n      pop\n        /* \"CarbonTrader.sol\":3567:3713  function destoryAllAllowance(address uesr) public onlyOwner {... */\n      pop\n      jump\t// out\n        /* \"CarbonTrader.sol\":6021:6195  function setBidInfo(string memory tradeId, string memory info) public {... */\n    tag_71:\n        /* \"CarbonTrader.sol\":6101:6123  trade storage curTrade */\n      0x00\n        /* \"CarbonTrader.sol\":6126:6133  s_trade */\n      0x03\n        /* \"CarbonTrader.sol\":6134:6141  tradeId */\n      dup4\n        /* \"CarbonTrader.sol\":6126:6142  s_trade[tradeId] */\n      mload(0x40)\n      tag_158\n      swap2\n      swap1\n      tag_85\n      jump\t// in\n    tag_158:\n      swap1\n      dup2\n      mstore\n      0x20\n      add\n      mload(0x40)\n      dup1\n      swap2\n      sub\n      swap1\n      keccak256\n        /* \"CarbonTrader.sol\":6101:6142  trade storage curTrade = s_trade[tradeId] */\n      swap1\n      pop\n        /* \"CarbonTrader.sol\":6184:6188  info */\n      dup2\n        /* \"CarbonTrader.sol\":6152:6160  curTrade */\n      dup2\n        /* \"CarbonTrader.sol\":6152:6169  curTrade.bidinfos */\n      0x07\n      add\n        /* \"CarbonTrader.sol\":6152:6181  curTrade.bidinfos[msg.sender] */\n      0x00\n        /* \"CarbonTrader.sol\":6170:6180  msg.sender */\n      caller\n        /* \"CarbonTrader.sol\":6152:6181  curTrade.bidinfos[msg.sender] */\n      0xffffffffffffffffffffffffffffffffffffffff\n      and\n      0xffffffffffffffffffffffffffffffffffffffff\n      and\n      dup2\n      mstore\n      0x20\n      add\n      swap1\n      dup2\n      mstore\n      0x20\n      add\n      0x00\n      keccak256\n        /* \"CarbonTrader.sol\":6152:6188  curTrade.bidinfos[msg.sender] = info */\n      swap1\n      dup2\n      tag_159\n      swap2\n      swap1\n      tag_108\n      jump\t// in\n    tag_159:\n      pop\n        /* \"CarbonTrader.sol\":6091:6195  {... */\n      pop\n        /* \"CarbonTrader.sol\":6021:6195  function setBidInfo(string memory tradeId, string memory info) public {... */\n      pop\n      pop\n      jump\t// out\n        /* \"CarbonTrader.sol\":2296:2662  function freezeAllowance(address uesr, uint256 freezedAmount) public onlyOwner {... */\n    tag_74:\n        /* \"CarbonTrader.sol\":1802:1809  i_owner */\n      immutable(\"0x6fadbaf86d2aa9c9e34a85df385a2c9afa9509e09756634e72bbcf94a5ceb213\")\n        /* \"CarbonTrader.sol\":1788:1809  msg.sender != i_owner */\n      0xffffffffffffffffffffffffffffffffffffffff\n      and\n        /* \"CarbonTrader.sol\":1788:1798  msg.sender */\n      caller\n        /* \"CarbonTrader.sol\":1788:1809  msg.sender != i_owner */\n      0xffffffffffffffffffffffffffffffffffffffff\n      and\n      eq\n        /* \"CarbonTrader.sol\":1784:1867  if (msg.sender != i_owner) {... */\n      tag_161\n      jumpi\n        /* \"CarbonTrader.sol\":1832:1856  CarbonTrader__NotOwner() */\n      mload(0x40)\n      0xcf84d5e300000000000000000000000000000000000000000000000000000000\n      dup2\n      mstore\n      0x04\n      add\n      mload(0x40)\n      dup1\n      swap2\n      sub\n      swap1\n      revert\n        /* \"CarbonTrader.sol\":1784:1867  if (msg.sender != i_owner) {... */\n    tag_161:\n        /* \"CarbonTrader.sol\":2425:2438  freezedAmount */\n      dup1\n        /* \"CarbonTrader.sol\":2394:2415  s_addressToAllowances */\n      0x01\n        /* \"CarbonTrader.sol\":2394:2421  s_addressToAllowances[uesr] */\n      0x00\n        /* \"CarbonTrader.sol\":2416:2420  uesr */\n      dup5\n        /* \"CarbonTrader.sol\":2394:2421  s_addressToAllowances[uesr] */\n      0xffffffffffffffffffffffffffffffffffffffff\n      and\n      0xffffffffffffffffffffffffffffffffffffffff\n      and\n      dup2\n      mstore\n      0x20\n      add\n      swap1\n      dup2\n      mstore\n      0x20\n      add\n      0x00\n      keccak256\n      sload\n        /* \"CarbonTrader.sol\":2394:2438  s_addressToAllowances[uesr] >= freezedAmount */\n      lt\n      iszero\n        /* \"CarbonTrader.sol\":2385:2482  require (s_addressToAllowances[uesr] >= freezedAmount, \"Freezing amount is less than available.\") */\n      tag_163\n      jumpi\n      mload(0x40)\n      0x08c379a000000000000000000000000000000000000000000000000000000000\n      dup2\n      mstore\n      0x04\n      add\n      tag_164\n      swap1\n      tag_165\n      jump\t// in\n    tag_164:\n      mload(0x40)\n      dup1\n      swap2\n      sub\n      swap1\n      revert\n    tag_163:\n        /* \"CarbonTrader.sol\":2518:2519  0 */\n      0x00\n        /* \"CarbonTrader.sol\":2501:2514  freezedAmount */\n      dup2\n        /* \"CarbonTrader.sol\":2501:2519  freezedAmount >= 0 */\n      lt\n      iszero\n        /* \"CarbonTrader.sol\":2492:2550  require (freezedAmount >= 0, \"Freezing amount is no zreo\") */\n      tag_166\n      jumpi\n      mload(0x40)\n      0x08c379a000000000000000000000000000000000000000000000000000000000\n      dup2\n      mstore\n      0x04\n      add\n      tag_167\n      swap1\n      tag_168\n      jump\t// in\n    tag_167:\n      mload(0x40)\n      dup1\n      swap2\n      sub\n      swap1\n      revert\n    tag_166:\n        /* \"CarbonTrader.sol\":2591:2604  freezedAmount */\n      dup1\n        /* \"CarbonTrader.sol\":2560:2581  s_addressToAllowances */\n      0x01\n        /* \"CarbonTrader.sol\":2560:2587  s_addressToAllowances[uesr] */\n      0x00\n        /* \"CarbonTrader.sol\":2582:2586  uesr */\n      dup5\n        /* \"CarbonTrader.sol\":2560:2587  s_addressToAllowances[uesr] */\n      0xffffffffffffffffffffffffffffffffffffffff\n      and\n      0xffffffffffffffffffffffffffffffffffffffff\n      and\n      dup2\n      mstore\n      0x20\n      add\n      swap1\n      dup2\n      mstore\n      0x20\n      add\n      0x00\n      keccak256\n      0x00\n        /* \"CarbonTrader.sol\":2560:2604  s_addressToAllowances[uesr] -= freezedAmount */\n      dup3\n      dup3\n      sload\n      tag_169\n      swap2\n      swap1\n      tag_104\n      jump\t// in\n    tag_169:\n      swap3\n      pop\n      pop\n      dup2\n      swap1\n      sstore\n      pop\n        /* \"CarbonTrader.sol\":2642:2655  freezedAmount */\n      dup1\n        /* \"CarbonTrader.sol\":2614:2632  s_frozenAllowances */\n      0x02\n        /* \"CarbonTrader.sol\":2614:2638  s_frozenAllowances[uesr] */\n      0x00\n        /* \"CarbonTrader.sol\":2633:2637  uesr */\n      dup5\n        /* \"CarbonTrader.sol\":2614:2638  s_frozenAllowances[uesr] */\n      0xffffffffffffffffffffffffffffffffffffffff\n      and\n      0xffffffffffffffffffffffffffffffffffffffff\n      and\n      dup2\n      mstore\n      0x20\n      add\n      swap1\n      dup2\n      mstore\n      0x20\n      add\n      0x00\n      keccak256\n      0x00\n        /* \"CarbonTrader.sol\":2614:2655  s_frozenAllowances[uesr] += freezedAmount */\n      dup3\n      dup3\n      sload\n      tag_170\n      swap2\n      swap1\n      tag_102\n      jump\t// in\n    tag_170:\n      swap3\n      pop\n      pop\n      dup2\n      swap1\n      sstore\n      pop\n        /* \"CarbonTrader.sol\":2296:2662  function freezeAllowance(address uesr, uint256 freezedAmount) public onlyOwner {... */\n      pop\n      pop\n      jump\t// out\n        /* \"CarbonTrader.sol\":6704:7527  function finalizeAuctionAndTransferCarbon(... */\n    tag_78:\n        /* \"CarbonTrader.sol\":6898:6919  uint256 depositAmount */\n      0x00\n        /* \"CarbonTrader.sol\":6922:6929  s_trade */\n      0x03\n        /* \"CarbonTrader.sol\":6930:6937  tradeId */\n      dup5\n        /* \"CarbonTrader.sol\":6922:6938  s_trade[tradeId] */\n      mload(0x40)\n      tag_172\n      swap2\n      swap1\n      tag_85\n      jump\t// in\n    tag_172:\n      swap1\n      dup2\n      mstore\n      0x20\n      add\n      mload(0x40)\n      dup1\n      swap2\n      sub\n      swap1\n      keccak256\n        /* \"CarbonTrader.sol\":6922:6947  s_trade[tradeId].deposits */\n      0x06\n      add\n        /* \"CarbonTrader.sol\":6922:6959  s_trade[tradeId].deposits[msg.sender] */\n      0x00\n        /* \"CarbonTrader.sol\":6948:6958  msg.sender */\n      caller\n        /* \"CarbonTrader.sol\":6922:6959  s_trade[tradeId].deposits[msg.sender] */\n      0xffffffffffffffffffffffffffffffffffffffff\n      and\n      0xffffffffffffffffffffffffffffffffffffffff\n      and\n      dup2\n      mstore\n      0x20\n      add\n      swap1\n      dup2\n      mstore\n      0x20\n      add\n      0x00\n      keccak256\n      sload\n        /* \"CarbonTrader.sol\":6898:6959  uint256 depositAmount = s_trade[tradeId].deposits[msg.sender] */\n      swap1\n      pop\n        /* \"CarbonTrader.sol\":7009:7010  0 */\n      0x00\n        /* \"CarbonTrader.sol\":6969:6976  s_trade */\n      0x03\n        /* \"CarbonTrader.sol\":6977:6984  tradeId */\n      dup6\n        /* \"CarbonTrader.sol\":6969:6985  s_trade[tradeId] */\n      mload(0x40)\n      tag_173\n      swap2\n      swap1\n      tag_85\n      jump\t// in\n    tag_173:\n      swap1\n      dup2\n      mstore\n      0x20\n      add\n      mload(0x40)\n      dup1\n      swap2\n      sub\n      swap1\n      keccak256\n        /* \"CarbonTrader.sol\":6969:6994  s_trade[tradeId].deposits */\n      0x06\n      add\n        /* \"CarbonTrader.sol\":6969:7006  s_trade[tradeId].deposits[msg.sender] */\n      0x00\n        /* \"CarbonTrader.sol\":6995:7005  msg.sender */\n      caller\n        /* \"CarbonTrader.sol\":6969:7006  s_trade[tradeId].deposits[msg.sender] */\n      0xffffffffffffffffffffffffffffffffffffffff\n      and\n      0xffffffffffffffffffffffffffffffffffffffff\n      and\n      dup2\n      mstore\n      0x20\n      add\n      swap1\n      dup2\n      mstore\n      0x20\n      add\n      0x00\n      keccak256\n        /* \"CarbonTrader.sol\":6969:7010  s_trade[tradeId].deposits[msg.sender] = 0 */\n      dup2\n      swap1\n      sstore\n      pop\n        /* \"CarbonTrader.sol\":7075:7089  address seller */\n      0x00\n        /* \"CarbonTrader.sol\":7092:7099  s_trade */\n      0x03\n        /* \"CarbonTrader.sol\":7100:7107  tradeId */\n      dup6\n        /* \"CarbonTrader.sol\":7092:7108  s_trade[tradeId] */\n      mload(0x40)\n      tag_174\n      swap2\n      swap1\n      tag_85\n      jump\t// in\n    tag_174:\n      swap1\n      dup2\n      mstore\n      0x20\n      add\n      mload(0x40)\n      dup1\n      swap2\n      sub\n      swap1\n      keccak256\n        /* \"CarbonTrader.sol\":7092:7115  s_trade[tradeId].seller */\n      0x00\n      add\n      0x00\n      swap1\n      sload\n      swap1\n      0x0100\n      exp\n      swap1\n      div\n      0xffffffffffffffffffffffffffffffffffffffff\n      and\n        /* \"CarbonTrader.sol\":7075:7115  address seller = s_trade[tradeId].seller */\n      swap1\n      pop\n        /* \"CarbonTrader.sol\":7169:7189  addtionalAmountToPay */\n      dup3\n        /* \"CarbonTrader.sol\":7153:7166  depositAmount */\n      dup3\n        /* \"CarbonTrader.sol\":7153:7189  depositAmount + addtionalAmountToPay */\n      tag_175\n      swap2\n      swap1\n      tag_102\n      jump\t// in\n    tag_175:\n        /* \"CarbonTrader.sol\":7125:7140  s_auctionAmount */\n      0x00\n        /* \"CarbonTrader.sol\":7125:7148  s_auctionAmount[seller] */\n      dup1\n        /* \"CarbonTrader.sol\":7141:7147  seller */\n      dup4\n        /* \"CarbonTrader.sol\":7125:7148  s_auctionAmount[seller] */\n      0xffffffffffffffffffffffffffffffffffffffff\n      and\n      0xffffffffffffffffffffffffffffffffffffffff\n      and\n      dup2\n      mstore\n      0x20\n      add\n      swap1\n      dup2\n      mstore\n      0x20\n      add\n      0x00\n      keccak256\n      0x00\n        /* \"CarbonTrader.sol\":7125:7190  s_auctionAmount[seller] += (depositAmount + addtionalAmountToPay) */\n      dup3\n      dup3\n      sload\n      tag_176\n      swap2\n      swap1\n      tag_102\n      jump\t// in\n    tag_176:\n      swap3\n      pop\n      pop\n      dup2\n      swap1\n      sstore\n      pop\n        /* \"CarbonTrader.sol\":7263:7264  0 */\n      0x00\n        /* \"CarbonTrader.sol\":7234:7252  s_frozenAllowances */\n      0x02\n        /* \"CarbonTrader.sol\":7234:7260  s_frozenAllowances[seller] */\n      0x00\n        /* \"CarbonTrader.sol\":7253:7259  seller */\n      dup4\n        /* \"CarbonTrader.sol\":7234:7260  s_frozenAllowances[seller] */\n      0xffffffffffffffffffffffffffffffffffffffff\n      and\n      0xffffffffffffffffffffffffffffffffffffffff\n      and\n      dup2\n      mstore\n      0x20\n      add\n      swap1\n      dup2\n      mstore\n      0x20\n      add\n      0x00\n      keccak256\n        /* \"CarbonTrader.sol\":7234:7264  s_frozenAllowances[seller] = 0 */\n      dup2\n      swap1\n      sstore\n      pop\n        /* \"CarbonTrader.sol\":7345:7360  allowanceAmount */\n      dup4\n        /* \"CarbonTrader.sol\":7308:7329  s_addressToAllowances */\n      0x01\n        /* \"CarbonTrader.sol\":7308:7341  s_addressToAllowances[msg.sender] */\n      0x00\n        /* \"CarbonTrader.sol\":7330:7340  msg.sender */\n      caller\n        /* \"CarbonTrader.sol\":7308:7341  s_addressToAllowances[msg.sender] */\n      0xffffffffffffffffffffffffffffffffffffffff\n      and\n      0xffffffffffffffffffffffffffffffffffffffff\n      and\n      dup2\n      mstore\n      0x20\n      add\n      swap1\n      dup2\n      mstore\n      0x20\n      add\n      0x00\n      keccak256\n      0x00\n        /* \"CarbonTrader.sol\":7308:7360  s_addressToAllowances[msg.sender] += allowanceAmount */\n      dup3\n      dup3\n      sload\n      tag_177\n      swap2\n      swap1\n      tag_102\n      jump\t// in\n    tag_177:\n      swap3\n      pop\n      pop\n      dup2\n      swap1\n      sstore\n      pop\n        /* \"CarbonTrader.sol\":7371:7383  bool success */\n      0x00\n        /* \"CarbonTrader.sol\":7386:7397  i_usdtToken */\n      immutable(\"0x26a975632f70533c9512e57b565b8ce8e2befee6b08dfbc27c4a897a20e2c1d6\")\n        /* \"CarbonTrader.sol\":7386:7410  i_usdtToken.transferFrom */\n      0xffffffffffffffffffffffffffffffffffffffff\n      and\n      0x23b872dd\n        /* \"CarbonTrader.sol\":7411:7421  msg.sender */\n      caller\n        /* \"CarbonTrader.sol\":7431:7435  this */\n      address\n        /* \"CarbonTrader.sol\":7438:7458  addtionalAmountToPay */\n      dup8\n        /* \"CarbonTrader.sol\":7386:7459  i_usdtToken.transferFrom(msg.sender, address(this), addtionalAmountToPay) */\n      mload(0x40)\n      dup5\n      0xffffffff\n      and\n      0xe0\n      shl\n      dup2\n      mstore\n      0x04\n      add\n      tag_178\n      swap4\n      swap3\n      swap2\n      swap1\n      tag_112\n      jump\t// in\n    tag_178:\n      0x20\n      mload(0x40)\n      dup1\n      dup4\n      sub\n      dup2\n      0x00\n      dup8\n      gas\n      call\n      iszero\n      dup1\n      iszero\n      tag_180\n      jumpi\n      returndatasize\n      0x00\n      dup1\n      returndatacopy\n      revert(0x00, returndatasize)\n    tag_180:\n      pop\n      pop\n      pop\n      pop\n      mload(0x40)\n      returndatasize\n      not(0x1f)\n      0x1f\n      dup3\n      add\n      and\n      dup3\n      add\n      dup1\n      0x40\n      mstore\n      pop\n      dup2\n      add\n      swap1\n      tag_181\n      swap2\n      swap1\n      tag_116\n      jump\t// in\n    tag_181:\n        /* \"CarbonTrader.sol\":7371:7459  bool success = i_usdtToken.transferFrom(msg.sender, address(this), addtionalAmountToPay) */\n      swap1\n      pop\n        /* \"CarbonTrader.sol\":7474:7481  success */\n      dup1\n        /* \"CarbonTrader.sol\":7469:7520  if (!success) revert CarbonTrader__TransferFailed() */\n      tag_182\n      jumpi\n        /* \"CarbonTrader.sol\":7490:7520  CarbonTrader__TransferFailed() */\n      mload(0x40)\n      0x43280ec900000000000000000000000000000000000000000000000000000000\n      dup2\n      mstore\n      0x04\n      add\n      mload(0x40)\n      dup1\n      swap2\n      sub\n      swap1\n      revert\n        /* \"CarbonTrader.sol\":7469:7520  if (!success) revert CarbonTrader__TransferFailed() */\n    tag_182:\n        /* \"CarbonTrader.sol\":6861:7527  {... */\n      pop\n      pop\n      pop\n        /* \"CarbonTrader.sol\":6704:7527  function finalizeAuctionAndTransferCarbon(... */\n      pop\n      pop\n      pop\n      jump\t// out\n        /* \"CarbonTrader.sol\":2138:2254  function getAllowance(address uesr) public view returns(uint256) {... */\n    tag_81:\n        /* \"CarbonTrader.sol\":2194:2201  uint256 */\n      0x00\n        /* \"CarbonTrader.sol\":2220:2241  s_addressToAllowances */\n      0x01\n        /* \"CarbonTrader.sol\":2220:2247  s_addressToAllowances[uesr] */\n      0x00\n        /* \"CarbonTrader.sol\":2242:2246  uesr */\n      dup4\n        /* \"CarbonTrader.sol\":2220:2247  s_addressToAllowances[uesr] */\n      0xffffffffffffffffffffffffffffffffffffffff\n      and\n      0xffffffffffffffffffffffffffffffffffffffff\n      and\n      dup2\n      mstore\n      0x20\n      add\n      swap1\n      dup2\n      mstore\n      0x20\n      add\n      0x00\n      keccak256\n      sload\n        /* \"CarbonTrader.sol\":2213:2247  return s_addressToAllowances[uesr] */\n      swap1\n      pop\n        /* \"CarbonTrader.sol\":2138:2254  function getAllowance(address uesr) public view returns(uint256) {... */\n      swap2\n      swap1\n      pop\n      jump\t// out\n        /* \"#utility.yul\":7:82   */\n    tag_184:\n        /* \"#utility.yul\":40:46   */\n      0x00\n        /* \"#utility.yul\":73:75   */\n      0x40\n        /* \"#utility.yul\":67:76   */\n      mload\n        /* \"#utility.yul\":57:76   */\n      swap1\n      pop\n        /* \"#utility.yul\":7:82   */\n      swap1\n      jump\t// out\n        /* \"#utility.yul\":88:205   */\n    tag_185:\n        /* \"#utility.yul\":197:198   */\n      0x00\n        /* \"#utility.yul\":194:195   */\n      dup1\n        /* \"#utility.yul\":187:199   */\n      revert\n        /* \"#utility.yul\":211:328   */\n    tag_186:\n        /* \"#utility.yul\":320:321   */\n      0x00\n        /* \"#utility.yul\":317:318   */\n      dup1\n        /* \"#utility.yul\":310:322   */\n      revert\n        /* \"#utility.yul\":334:451   */\n    tag_187:\n        /* \"#utility.yul\":443:444   */\n      0x00\n        /* \"#utility.yul\":440:441   */\n      dup1\n        /* \"#utility.yul\":433:445   */\n      revert\n        /* \"#utility.yul\":457:574   */\n    tag_188:\n        /* \"#utility.yul\":566:567   */\n      0x00\n        /* \"#utility.yul\":563:564   */\n      dup1\n        /* \"#utility.yul\":556:568   */\n      revert\n        /* \"#utility.yul\":580:682   */\n    tag_189:\n        /* \"#utility.yul\":621:627   */\n      0x00\n        /* \"#utility.yul\":672:674   */\n      0x1f\n        /* \"#utility.yul\":668:675   */\n      not\n        /* \"#utility.yul\":663:665   */\n      0x1f\n        /* \"#utility.yul\":656:661   */\n      dup4\n        /* \"#utility.yul\":652:666   */\n      add\n        /* \"#utility.yul\":648:676   */\n      and\n        /* \"#utility.yul\":638:676   */\n      swap1\n      pop\n        /* \"#utility.yul\":580:682   */\n      swap2\n      swap1\n      pop\n      jump\t// out\n        /* \"#utility.yul\":688:868   */\n    tag_190:\n        /* \"#utility.yul\":736:813   */\n      0x4e487b7100000000000000000000000000000000000000000000000000000000\n        /* \"#utility.yul\":733:734   */\n      0x00\n        /* \"#utility.yul\":726:814   */\n      mstore\n        /* \"#utility.yul\":833:837   */\n      0x41\n        /* \"#utility.yul\":830:831   */\n      0x04\n        /* \"#utility.yul\":823:838   */\n      mstore\n        /* \"#utility.yul\":857:861   */\n      0x24\n        /* \"#utility.yul\":854:855   */\n      0x00\n        /* \"#utility.yul\":847:862   */\n      revert\n        /* \"#utility.yul\":874:1155   */\n    tag_191:\n        /* \"#utility.yul\":957:984   */\n      tag_249\n        /* \"#utility.yul\":979:983   */\n      dup3\n        /* \"#utility.yul\":957:984   */\n      tag_189\n      jump\t// in\n    tag_249:\n        /* \"#utility.yul\":949:955   */\n      dup2\n        /* \"#utility.yul\":945:985   */\n      add\n        /* \"#utility.yul\":1087:1093   */\n      dup2\n        /* \"#utility.yul\":1075:1085   */\n      dup2\n        /* \"#utility.yul\":1072:1094   */\n      lt\n        /* \"#utility.yul\":1051:1069   */\n      0xffffffffffffffff\n        /* \"#utility.yul\":1039:1049   */\n      dup3\n        /* \"#utility.yul\":1036:1070   */\n      gt\n        /* \"#utility.yul\":1033:1095   */\n      or\n        /* \"#utility.yul\":1030:1118   */\n      iszero\n      tag_250\n      jumpi\n        /* \"#utility.yul\":1098:1116   */\n      tag_251\n      tag_190\n      jump\t// in\n    tag_251:\n        /* \"#utility.yul\":1030:1118   */\n    tag_250:\n        /* \"#utility.yul\":1138:1148   */\n      dup1\n        /* \"#utility.yul\":1134:1136   */\n      0x40\n        /* \"#utility.yul\":1127:1149   */\n      mstore\n        /* \"#utility.yul\":917:1155   */\n      pop\n        /* \"#utility.yul\":874:1155   */\n      pop\n      pop\n      jump\t// out\n        /* \"#utility.yul\":1161:1290   */\n    tag_192:\n        /* \"#utility.yul\":1195:1201   */\n      0x00\n        /* \"#utility.yul\":1222:1242   */\n      tag_253\n      tag_184\n      jump\t// in\n    tag_253:\n        /* \"#utility.yul\":1212:1242   */\n      swap1\n      pop\n        /* \"#utility.yul\":1251:1284   */\n      tag_254\n        /* \"#utility.yul\":1279:1283   */\n      dup3\n        /* \"#utility.yul\":1271:1277   */\n      dup3\n        /* \"#utility.yul\":1251:1284   */\n      tag_191\n      jump\t// in\n    tag_254:\n        /* \"#utility.yul\":1161:1290   */\n      swap2\n      swap1\n      pop\n      jump\t// out\n        /* \"#utility.yul\":1296:1604   */\n    tag_193:\n        /* \"#utility.yul\":1358:1362   */\n      0x00\n        /* \"#utility.yul\":1448:1466   */\n      0xffffffffffffffff\n        /* \"#utility.yul\":1440:1446   */\n      dup3\n        /* \"#utility.yul\":1437:1467   */\n      gt\n        /* \"#utility.yul\":1434:1490   */\n      iszero\n      tag_256\n      jumpi\n        /* \"#utility.yul\":1470:1488   */\n      tag_257\n      tag_190\n      jump\t// in\n    tag_257:\n        /* \"#utility.yul\":1434:1490   */\n    tag_256:\n        /* \"#utility.yul\":1508:1537   */\n      tag_258\n        /* \"#utility.yul\":1530:1536   */\n      dup3\n        /* \"#utility.yul\":1508:1537   */\n      tag_189\n      jump\t// in\n    tag_258:\n        /* \"#utility.yul\":1500:1537   */\n      swap1\n      pop\n        /* \"#utility.yul\":1592:1596   */\n      0x20\n        /* \"#utility.yul\":1586:1590   */\n      dup2\n        /* \"#utility.yul\":1582:1597   */\n      add\n        /* \"#utility.yul\":1574:1597   */\n      swap1\n      pop\n        /* \"#utility.yul\":1296:1604   */\n      swap2\n      swap1\n      pop\n      jump\t// out\n        /* \"#utility.yul\":1610:1758   */\n    tag_194:\n        /* \"#utility.yul\":1708:1714   */\n      dup3\n        /* \"#utility.yul\":1703:1706   */\n      dup2\n        /* \"#utility.yul\":1698:1701   */\n      dup4\n        /* \"#utility.yul\":1685:1715   */\n      calldatacopy\n        /* \"#utility.yul\":1749:1750   */\n      0x00\n        /* \"#utility.yul\":1740:1746   */\n      dup4\n        /* \"#utility.yul\":1735:1738   */\n      dup4\n        /* \"#utility.yul\":1731:1747   */\n      add\n        /* \"#utility.yul\":1724:1751   */\n      mstore\n        /* \"#utility.yul\":1610:1758   */\n      pop\n      pop\n      pop\n      jump\t// out\n        /* \"#utility.yul\":1764:2189   */\n    tag_195:\n        /* \"#utility.yul\":1842:1847   */\n      0x00\n        /* \"#utility.yul\":1867:1933   */\n      tag_261\n        /* \"#utility.yul\":1883:1932   */\n      tag_262\n        /* \"#utility.yul\":1925:1931   */\n      dup5\n        /* \"#utility.yul\":1883:1932   */\n      tag_193\n      jump\t// in\n    tag_262:\n        /* \"#utility.yul\":1867:1933   */\n      tag_192\n      jump\t// in\n    tag_261:\n        /* \"#utility.yul\":1858:1933   */\n      swap1\n      pop\n        /* \"#utility.yul\":1956:1962   */\n      dup3\n        /* \"#utility.yul\":1949:1954   */\n      dup2\n        /* \"#utility.yul\":1942:1963   */\n      mstore\n        /* \"#utility.yul\":1994:1998   */\n      0x20\n        /* \"#utility.yul\":1987:1992   */\n      dup2\n        /* \"#utility.yul\":1983:1999   */\n      add\n        /* \"#utility.yul\":2032:2035   */\n      dup5\n        /* \"#utility.yul\":2023:2029   */\n      dup5\n        /* \"#utility.yul\":2018:2021   */\n      dup5\n        /* \"#utility.yul\":2014:2030   */\n      add\n        /* \"#utility.yul\":2011:2036   */\n      gt\n        /* \"#utility.yul\":2008:2120   */\n      iszero\n      tag_263\n      jumpi\n        /* \"#utility.yul\":2039:2118   */\n      tag_264\n      tag_188\n      jump\t// in\n    tag_264:\n        /* \"#utility.yul\":2008:2120   */\n    tag_263:\n        /* \"#utility.yul\":2129:2183   */\n      tag_265\n        /* \"#utility.yul\":2176:2182   */\n      dup5\n        /* \"#utility.yul\":2171:2174   */\n      dup3\n        /* \"#utility.yul\":2166:2169   */\n      dup6\n        /* \"#utility.yul\":2129:2183   */\n      tag_194\n      jump\t// in\n    tag_265:\n        /* \"#utility.yul\":1848:2189   */\n      pop\n        /* \"#utility.yul\":1764:2189   */\n      swap4\n      swap3\n      pop\n      pop\n      pop\n      jump\t// out\n        /* \"#utility.yul\":2209:2549   */\n    tag_196:\n        /* \"#utility.yul\":2265:2270   */\n      0x00\n        /* \"#utility.yul\":2314:2317   */\n      dup3\n        /* \"#utility.yul\":2307:2311   */\n      0x1f\n        /* \"#utility.yul\":2299:2305   */\n      dup4\n        /* \"#utility.yul\":2295:2312   */\n      add\n        /* \"#utility.yul\":2291:2318   */\n      slt\n        /* \"#utility.yul\":2281:2403   */\n      tag_267\n      jumpi\n        /* \"#utility.yul\":2322:2401   */\n      tag_268\n      tag_187\n      jump\t// in\n    tag_268:\n        /* \"#utility.yul\":2281:2403   */\n    tag_267:\n        /* \"#utility.yul\":2439:2445   */\n      dup2\n        /* \"#utility.yul\":2426:2446   */\n      calldataload\n        /* \"#utility.yul\":2464:2543   */\n      tag_269\n        /* \"#utility.yul\":2539:2542   */\n      dup5\n        /* \"#utility.yul\":2531:2537   */\n      dup3\n        /* \"#utility.yul\":2524:2528   */\n      0x20\n        /* \"#utility.yul\":2516:2522   */\n      dup7\n        /* \"#utility.yul\":2512:2529   */\n      add\n        /* \"#utility.yul\":2464:2543   */\n      tag_195\n      jump\t// in\n    tag_269:\n        /* \"#utility.yul\":2455:2543   */\n      swap2\n      pop\n        /* \"#utility.yul\":2271:2549   */\n      pop\n        /* \"#utility.yul\":2209:2549   */\n      swap3\n      swap2\n      pop\n      pop\n      jump\t// out\n        /* \"#utility.yul\":2555:3064   */\n    tag_24:\n        /* \"#utility.yul\":2624:2630   */\n      0x00\n        /* \"#utility.yul\":2673:2675   */\n      0x20\n        /* \"#utility.yul\":2661:2670   */\n      dup3\n        /* \"#utility.yul\":2652:2659   */\n      dup5\n        /* \"#utility.yul\":2648:2671   */\n      sub\n        /* \"#utility.yul\":2644:2676   */\n      slt\n        /* \"#utility.yul\":2641:2760   */\n      iszero\n      tag_271\n      jumpi\n        /* \"#utility.yul\":2679:2758   */\n      tag_272\n      tag_185\n      jump\t// in\n    tag_272:\n        /* \"#utility.yul\":2641:2760   */\n    tag_271:\n        /* \"#utility.yul\":2827:2828   */\n      0x00\n        /* \"#utility.yul\":2816:2825   */\n      dup3\n        /* \"#utility.yul\":2812:2829   */\n      add\n        /* \"#utility.yul\":2799:2830   */\n      calldataload\n        /* \"#utility.yul\":2857:2875   */\n      0xffffffffffffffff\n        /* \"#utility.yul\":2849:2855   */\n      dup2\n        /* \"#utility.yul\":2846:2876   */\n      gt\n        /* \"#utility.yul\":2843:2960   */\n      iszero\n      tag_273\n      jumpi\n        /* \"#utility.yul\":2879:2958   */\n      tag_274\n      tag_186\n      jump\t// in\n    tag_274:\n        /* \"#utility.yul\":2843:2960   */\n    tag_273:\n        /* \"#utility.yul\":2984:3047   */\n      tag_275\n        /* \"#utility.yul\":3039:3046   */\n      dup5\n        /* \"#utility.yul\":3030:3036   */\n      dup3\n        /* \"#utility.yul\":3019:3028   */\n      dup6\n        /* \"#utility.yul\":3015:3037   */\n      add\n        /* \"#utility.yul\":2984:3047   */\n      tag_196\n      jump\t// in\n    tag_275:\n        /* \"#utility.yul\":2974:3047   */\n      swap2\n      pop\n        /* \"#utility.yul\":2770:3057   */\n      pop\n        /* \"#utility.yul\":2555:3064   */\n      swap3\n      swap2\n      pop\n      pop\n      jump\t// out\n        /* \"#utility.yul\":3070:3169   */\n    tag_197:\n        /* \"#utility.yul\":3122:3128   */\n      0x00\n        /* \"#utility.yul\":3156:3161   */\n      dup2\n        /* \"#utility.yul\":3150:3162   */\n      mload\n        /* \"#utility.yul\":3140:3162   */\n      swap1\n      pop\n        /* \"#utility.yul\":3070:3169   */\n      swap2\n      swap1\n      pop\n      jump\t// out\n        /* \"#utility.yul\":3175:3344   */\n    tag_198:\n        /* \"#utility.yul\":3259:3270   */\n      0x00\n        /* \"#utility.yul\":3293:3299   */\n      dup3\n        /* \"#utility.yul\":3288:3291   */\n      dup3\n        /* \"#utility.yul\":3281:3300   */\n      mstore\n        /* \"#utility.yul\":3333:3337   */\n      0x20\n        /* \"#utility.yul\":3328:3331   */\n      dup3\n        /* \"#utility.yul\":3324:3338   */\n      add\n        /* \"#utility.yul\":3309:3338   */\n      swap1\n      pop\n        /* \"#utility.yul\":3175:3344   */\n      swap3\n      swap2\n      pop\n      pop\n      jump\t// out\n        /* \"#utility.yul\":3350:3489   */\n    tag_199:\n        /* \"#utility.yul\":3439:3445   */\n      dup3\n        /* \"#utility.yul\":3434:3437   */\n      dup2\n        /* \"#utility.yul\":3429:3432   */\n      dup4\n        /* \"#utility.yul\":3423:3446   */\n      mcopy\n        /* \"#utility.yul\":3480:3481   */\n      0x00\n        /* \"#utility.yul\":3471:3477   */\n      dup4\n        /* \"#utility.yul\":3466:3469   */\n      dup4\n        /* \"#utility.yul\":3462:3478   */\n      add\n        /* \"#utility.yul\":3455:3482   */\n      mstore\n        /* \"#utility.yul\":3350:3489   */\n      pop\n      pop\n      pop\n      jump\t// out\n        /* \"#utility.yul\":3495:3872   */\n    tag_200:\n        /* \"#utility.yul\":3583:3586   */\n      0x00\n        /* \"#utility.yul\":3611:3650   */\n      tag_280\n        /* \"#utility.yul\":3644:3649   */\n      dup3\n        /* \"#utility.yul\":3611:3650   */\n      tag_197\n      jump\t// in\n    tag_280:\n        /* \"#utility.yul\":3666:3737   */\n      tag_281\n        /* \"#utility.yul\":3730:3736   */\n      dup2\n        /* \"#utility.yul\":3725:3728   */\n      dup6\n        /* \"#utility.yul\":3666:3737   */\n      tag_198\n      jump\t// in\n    tag_281:\n        /* \"#utility.yul\":3659:3737   */\n      swap4\n      pop\n        /* \"#utility.yul\":3746:3811   */\n      tag_282\n        /* \"#utility.yul\":3804:3810   */\n      dup2\n        /* \"#utility.yul\":3799:3802   */\n      dup6\n        /* \"#utility.yul\":3792:3796   */\n      0x20\n        /* \"#utility.yul\":3785:3790   */\n      dup7\n        /* \"#utility.yul\":3781:3797   */\n      add\n        /* \"#utility.yul\":3746:3811   */\n      tag_199\n      jump\t// in\n    tag_282:\n        /* \"#utility.yul\":3836:3865   */\n      tag_283\n        /* \"#utility.yul\":3858:3864   */\n      dup2\n        /* \"#utility.yul\":3836:3865   */\n      tag_189\n      jump\t// in\n    tag_283:\n        /* \"#utility.yul\":3831:3834   */\n      dup5\n        /* \"#utility.yul\":3827:3866   */\n      add\n        /* \"#utility.yul\":3820:3866   */\n      swap2\n      pop\n        /* \"#utility.yul\":3587:3872   */\n      pop\n        /* \"#utility.yul\":3495:3872   */\n      swap3\n      swap2\n      pop\n      pop\n      jump\t// out\n        /* \"#utility.yul\":3878:4191   */\n    tag_27:\n        /* \"#utility.yul\":3991:3995   */\n      0x00\n        /* \"#utility.yul\":4029:4031   */\n      0x20\n        /* \"#utility.yul\":4018:4027   */\n      dup3\n        /* \"#utility.yul\":4014:4032   */\n      add\n        /* \"#utility.yul\":4006:4032   */\n      swap1\n      pop\n        /* \"#utility.yul\":4078:4087   */\n      dup2\n        /* \"#utility.yul\":4072:4076   */\n      dup2\n        /* \"#utility.yul\":4068:4088   */\n      sub\n        /* \"#utility.yul\":4064:4065   */\n      0x00\n        /* \"#utility.yul\":4053:4062   */\n      dup4\n        /* \"#utility.yul\":4049:4066   */\n      add\n        /* \"#utility.yul\":4042:4089   */\n      mstore\n        /* \"#utility.yul\":4106:4184   */\n      tag_285\n        /* \"#utility.yul\":4179:4183   */\n      dup2\n        /* \"#utility.yul\":4170:4176   */\n      dup5\n        /* \"#utility.yul\":4106:4184   */\n      tag_200\n      jump\t// in\n    tag_285:\n        /* \"#utility.yul\":4098:4184   */\n      swap1\n      pop\n        /* \"#utility.yul\":3878:4191   */\n      swap3\n      swap2\n      pop\n      pop\n      jump\t// out\n        /* \"#utility.yul\":4197:4323   */\n    tag_201:\n        /* \"#utility.yul\":4234:4241   */\n      0x00\n        /* \"#utility.yul\":4274:4316   */\n      0xffffffffffffffffffffffffffffffffffffffff\n        /* \"#utility.yul\":4267:4272   */\n      dup3\n        /* \"#utility.yul\":4263:4317   */\n      and\n        /* \"#utility.yul\":4252:4317   */\n      swap1\n      pop\n        /* \"#utility.yul\":4197:4323   */\n      swap2\n      swap1\n      pop\n      jump\t// out\n        /* \"#utility.yul\":4329:4425   */\n    tag_202:\n        /* \"#utility.yul\":4366:4373   */\n      0x00\n        /* \"#utility.yul\":4395:4419   */\n      tag_288\n        /* \"#utility.yul\":4413:4418   */\n      dup3\n        /* \"#utility.yul\":4395:4419   */\n      tag_201\n      jump\t// in\n    tag_288:\n        /* \"#utility.yul\":4384:4419   */\n      swap1\n      pop\n        /* \"#utility.yul\":4329:4425   */\n      swap2\n      swap1\n      pop\n      jump\t// out\n        /* \"#utility.yul\":4431:4553   */\n    tag_203:\n        /* \"#utility.yul\":4504:4528   */\n      tag_290\n        /* \"#utility.yul\":4522:4527   */\n      dup2\n        /* \"#utility.yul\":4504:4528   */\n      tag_202\n      jump\t// in\n    tag_290:\n        /* \"#utility.yul\":4497:4502   */\n      dup2\n        /* \"#utility.yul\":4494:4529   */\n      eq\n        /* \"#utility.yul\":4484:4547   */\n      tag_291\n      jumpi\n        /* \"#utility.yul\":4543:4544   */\n      0x00\n        /* \"#utility.yul\":4540:4541   */\n      dup1\n        /* \"#utility.yul\":4533:4545   */\n      revert\n        /* \"#utility.yul\":4484:4547   */\n    tag_291:\n        /* \"#utility.yul\":4431:4553   */\n      pop\n      jump\t// out\n        /* \"#utility.yul\":4559:4698   */\n    tag_204:\n        /* \"#utility.yul\":4605:4610   */\n      0x00\n        /* \"#utility.yul\":4643:4649   */\n      dup2\n        /* \"#utility.yul\":4630:4650   */\n      calldataload\n        /* \"#utility.yul\":4621:4650   */\n      swap1\n      pop\n        /* \"#utility.yul\":4659:4692   */\n      tag_293\n        /* \"#utility.yul\":4686:4691   */\n      dup2\n        /* \"#utility.yul\":4659:4692   */\n      tag_203\n      jump\t// in\n    tag_293:\n        /* \"#utility.yul\":4559:4698   */\n      swap3\n      swap2\n      pop\n      pop\n      jump\t// out\n        /* \"#utility.yul\":4704:4781   */\n    tag_205:\n        /* \"#utility.yul\":4741:4748   */\n      0x00\n        /* \"#utility.yul\":4770:4775   */\n      dup2\n        /* \"#utility.yul\":4759:4775   */\n      swap1\n      pop\n        /* \"#utility.yul\":4704:4781   */\n      swap2\n      swap1\n      pop\n      jump\t// out\n        /* \"#utility.yul\":4787:4909   */\n    tag_206:\n        /* \"#utility.yul\":4860:4884   */\n      tag_296\n        /* \"#utility.yul\":4878:4883   */\n      dup2\n        /* \"#utility.yul\":4860:4884   */\n      tag_205\n      jump\t// in\n    tag_296:\n        /* \"#utility.yul\":4853:4858   */\n      dup2\n        /* \"#utility.yul\":4850:4885   */\n      eq\n        /* \"#utility.yul\":4840:4903   */\n      tag_297\n      jumpi\n        /* \"#utility.yul\":4899:4900   */\n      0x00\n        /* \"#utility.yul\":4896:4897   */\n      dup1\n        /* \"#utility.yul\":4889:4901   */\n      revert\n        /* \"#utility.yul\":4840:4903   */\n    tag_297:\n        /* \"#utility.yul\":4787:4909   */\n      pop\n      jump\t// out\n        /* \"#utility.yul\":4915:5054   */\n    tag_207:\n        /* \"#utility.yul\":4961:4966   */\n      0x00\n        /* \"#utility.yul\":4999:5005   */\n      dup2\n        /* \"#utility.yul\":4986:5006   */\n      calldataload\n        /* \"#utility.yul\":4977:5006   */\n      swap1\n      pop\n        /* \"#utility.yul\":5015:5048   */\n      tag_299\n        /* \"#utility.yul\":5042:5047   */\n      dup2\n        /* \"#utility.yul\":5015:5048   */\n      tag_206\n      jump\t// in\n    tag_299:\n        /* \"#utility.yul\":4915:5054   */\n      swap3\n      swap2\n      pop\n      pop\n      jump\t// out\n        /* \"#utility.yul\":5060:5534   */\n    tag_30:\n        /* \"#utility.yul\":5128:5134   */\n      0x00\n        /* \"#utility.yul\":5136:5142   */\n      dup1\n        /* \"#utility.yul\":5185:5187   */\n      0x40\n        /* \"#utility.yul\":5173:5182   */\n      dup4\n        /* \"#utility.yul\":5164:5171   */\n      dup6\n        /* \"#utility.yul\":5160:5183   */\n      sub\n        /* \"#utility.yul\":5156:5188   */\n      slt\n        /* \"#utility.yul\":5153:5272   */\n      iszero\n      tag_301\n      jumpi\n        /* \"#utility.yul\":5191:5270   */\n      tag_302\n      tag_185\n      jump\t// in\n    tag_302:\n        /* \"#utility.yul\":5153:5272   */\n    tag_301:\n        /* \"#utility.yul\":5311:5312   */\n      0x00\n        /* \"#utility.yul\":5336:5389   */\n      tag_303\n        /* \"#utility.yul\":5381:5388   */\n      dup6\n        /* \"#utility.yul\":5372:5378   */\n      dup3\n        /* \"#utility.yul\":5361:5370   */\n      dup7\n        /* \"#utility.yul\":5357:5379   */\n      add\n        /* \"#utility.yul\":5336:5389   */\n      tag_204\n      jump\t// in\n    tag_303:\n        /* \"#utility.yul\":5326:5389   */\n      swap3\n      pop\n        /* \"#utility.yul\":5282:5399   */\n      pop\n        /* \"#utility.yul\":5438:5440   */\n      0x20\n        /* \"#utility.yul\":5464:5517   */\n      tag_304\n        /* \"#utility.yul\":5509:5516   */\n      dup6\n        /* \"#utility.yul\":5500:5506   */\n      dup3\n        /* \"#utility.yul\":5489:5498   */\n      dup7\n        /* \"#utility.yul\":5485:5507   */\n      add\n        /* \"#utility.yul\":5464:5517   */\n      tag_207\n      jump\t// in\n    tag_304:\n        /* \"#utility.yul\":5454:5517   */\n      swap2\n      pop\n        /* \"#utility.yul\":5409:5527   */\n      pop\n        /* \"#utility.yul\":5060:5534   */\n      swap3\n      pop\n      swap3\n      swap1\n      pop\n      jump\t// out\n        /* \"#utility.yul\":5540:6374   */\n    tag_34:\n        /* \"#utility.yul\":5628:5634   */\n      0x00\n        /* \"#utility.yul\":5636:5642   */\n      dup1\n        /* \"#utility.yul\":5685:5687   */\n      0x40\n        /* \"#utility.yul\":5673:5682   */\n      dup4\n        /* \"#utility.yul\":5664:5671   */\n      dup6\n        /* \"#utility.yul\":5660:5683   */\n      sub\n        /* \"#utility.yul\":5656:5688   */\n      slt\n        /* \"#utility.yul\":5653:5772   */\n      iszero\n      tag_306\n      jumpi\n        /* \"#utility.yul\":5691:5770   */\n      tag_307\n      tag_185\n      jump\t// in\n    tag_307:\n        /* \"#utility.yul\":5653:5772   */\n    tag_306:\n        /* \"#utility.yul\":5839:5840   */\n      0x00\n        /* \"#utility.yul\":5828:5837   */\n      dup4\n        /* \"#utility.yul\":5824:5841   */\n      add\n        /* \"#utility.yul\":5811:5842   */\n      calldataload\n        /* \"#utility.yul\":5869:5887   */\n      0xffffffffffffffff\n        /* \"#utility.yul\":5861:5867   */\n      dup2\n        /* \"#utility.yul\":5858:5888   */\n      gt\n        /* \"#utility.yul\":5855:5972   */\n      iszero\n      tag_308\n      jumpi\n        /* \"#utility.yul\":5891:5970   */\n      tag_309\n      tag_186\n      jump\t// in\n    tag_309:\n        /* \"#utility.yul\":5855:5972   */\n    tag_308:\n        /* \"#utility.yul\":5996:6059   */\n      tag_310\n        /* \"#utility.yul\":6051:6058   */\n      dup6\n        /* \"#utility.yul\":6042:6048   */\n      dup3\n        /* \"#utility.yul\":6031:6040   */\n      dup7\n        /* \"#utility.yul\":6027:6049   */\n      add\n        /* \"#utility.yul\":5996:6059   */\n      tag_196\n      jump\t// in\n    tag_310:\n        /* \"#utility.yul\":5986:6059   */\n      swap3\n      pop\n        /* \"#utility.yul\":5782:6069   */\n      pop\n        /* \"#utility.yul\":6136:6138   */\n      0x20\n        /* \"#utility.yul\":6125:6134   */\n      dup4\n        /* \"#utility.yul\":6121:6139   */\n      add\n        /* \"#utility.yul\":6108:6140   */\n      calldataload\n        /* \"#utility.yul\":6167:6185   */\n      0xffffffffffffffff\n        /* \"#utility.yul\":6159:6165   */\n      dup2\n        /* \"#utility.yul\":6156:6186   */\n      gt\n        /* \"#utility.yul\":6153:6270   */\n      iszero\n      tag_311\n      jumpi\n        /* \"#utility.yul\":6189:6268   */\n      tag_312\n      tag_186\n      jump\t// in\n    tag_312:\n        /* \"#utility.yul\":6153:6270   */\n    tag_311:\n        /* \"#utility.yul\":6294:6357   */\n      tag_313\n        /* \"#utility.yul\":6349:6356   */\n      dup6\n        /* \"#utility.yul\":6340:6346   */\n      dup3\n        /* \"#utility.yul\":6329:6338   */\n      dup7\n        /* \"#utility.yul\":6325:6347   */\n      add\n        /* \"#utility.yul\":6294:6357   */\n      tag_196\n      jump\t// in\n    tag_313:\n        /* \"#utility.yul\":6284:6357   */\n      swap2\n      pop\n        /* \"#utility.yul\":6079:6367   */\n      pop\n        /* \"#utility.yul\":5540:6374   */\n      swap3\n      pop\n      swap3\n      swap1\n      pop\n      jump\t// out\n        /* \"#utility.yul\":6380:7359   */\n    tag_38:\n        /* \"#utility.yul\":6477:6483   */\n      0x00\n        /* \"#utility.yul\":6485:6491   */\n      dup1\n        /* \"#utility.yul\":6493:6499   */\n      0x00\n        /* \"#utility.yul\":6542:6544   */\n      0x60\n        /* \"#utility.yul\":6530:6539   */\n      dup5\n        /* \"#utility.yul\":6521:6528   */\n      dup7\n        /* \"#utility.yul\":6517:6540   */\n      sub\n        /* \"#utility.yul\":6513:6545   */\n      slt\n        /* \"#utility.yul\":6510:6629   */\n      iszero\n      tag_315\n      jumpi\n        /* \"#utility.yul\":6548:6627   */\n      tag_316\n      tag_185\n      jump\t// in\n    tag_316:\n        /* \"#utility.yul\":6510:6629   */\n    tag_315:\n        /* \"#utility.yul\":6696:6697   */\n      0x00\n        /* \"#utility.yul\":6685:6694   */\n      dup5\n        /* \"#utility.yul\":6681:6698   */\n      add\n        /* \"#utility.yul\":6668:6699   */\n      calldataload\n        /* \"#utility.yul\":6726:6744   */\n      0xffffffffffffffff\n        /* \"#utility.yul\":6718:6724   */\n      dup2\n        /* \"#utility.yul\":6715:6745   */\n      gt\n        /* \"#utility.yul\":6712:6829   */\n      iszero\n      tag_317\n      jumpi\n        /* \"#utility.yul\":6748:6827   */\n      tag_318\n      tag_186\n      jump\t// in\n    tag_318:\n        /* \"#utility.yul\":6712:6829   */\n    tag_317:\n        /* \"#utility.yul\":6853:6916   */\n      tag_319\n        /* \"#utility.yul\":6908:6915   */\n      dup7\n        /* \"#utility.yul\":6899:6905   */\n      dup3\n        /* \"#utility.yul\":6888:6897   */\n      dup8\n        /* \"#utility.yul\":6884:6906   */\n      add\n        /* \"#utility.yul\":6853:6916   */\n      tag_196\n      jump\t// in\n    tag_319:\n        /* \"#utility.yul\":6843:6916   */\n      swap4\n      pop\n        /* \"#utility.yul\":6639:6926   */\n      pop\n        /* \"#utility.yul\":6965:6967   */\n      0x20\n        /* \"#utility.yul\":6991:7044   */\n      tag_320\n        /* \"#utility.yul\":7036:7043   */\n      dup7\n        /* \"#utility.yul\":7027:7033   */\n      dup3\n        /* \"#utility.yul\":7016:7025   */\n      dup8\n        /* \"#utility.yul\":7012:7034   */\n      add\n        /* \"#utility.yul\":6991:7044   */\n      tag_207\n      jump\t// in\n    tag_320:\n        /* \"#utility.yul\":6981:7044   */\n      swap3\n      pop\n        /* \"#utility.yul\":6936:7054   */\n      pop\n        /* \"#utility.yul\":7121:7123   */\n      0x40\n        /* \"#utility.yul\":7110:7119   */\n      dup5\n        /* \"#utility.yul\":7106:7124   */\n      add\n        /* \"#utility.yul\":7093:7125   */\n      calldataload\n        /* \"#utility.yul\":7152:7170   */\n      0xffffffffffffffff\n        /* \"#utility.yul\":7144:7150   */\n      dup2\n        /* \"#utility.yul\":7141:7171   */\n      gt\n        /* \"#utility.yul\":7138:7255   */\n      iszero\n      tag_321\n      jumpi\n        /* \"#utility.yul\":7174:7253   */\n      tag_322\n      tag_186\n      jump\t// in\n    tag_322:\n        /* \"#utility.yul\":7138:7255   */\n    tag_321:\n        /* \"#utility.yul\":7279:7342   */\n      tag_323\n        /* \"#utility.yul\":7334:7341   */\n      dup7\n        /* \"#utility.yul\":7325:7331   */\n      dup3\n        /* \"#utility.yul\":7314:7323   */\n      dup8\n        /* \"#utility.yul\":7310:7332   */\n      add\n        /* \"#utility.yul\":7279:7342   */\n      tag_196\n      jump\t// in\n    tag_323:\n        /* \"#utility.yul\":7269:7342   */\n      swap2\n      pop\n        /* \"#utility.yul\":7064:7352   */\n      pop\n        /* \"#utility.yul\":6380:7359   */\n      swap3\n      pop\n      swap3\n      pop\n      swap3\n      jump\t// out\n        /* \"#utility.yul\":7365:7694   */\n    tag_45:\n        /* \"#utility.yul\":7424:7430   */\n      0x00\n        /* \"#utility.yul\":7473:7475   */\n      0x20\n        /* \"#utility.yul\":7461:7470   */\n      dup3\n        /* \"#utility.yul\":7452:7459   */\n      dup5\n        /* \"#utility.yul\":7448:7471   */\n      sub\n        /* \"#utility.yul\":7444:7476   */\n      slt\n        /* \"#utility.yul\":7441:7560   */\n      iszero\n      tag_325\n      jumpi\n        /* \"#utility.yul\":7479:7558   */\n      tag_326\n      tag_185\n      jump\t// in\n    tag_326:\n        /* \"#utility.yul\":7441:7560   */\n    tag_325:\n        /* \"#utility.yul\":7599:7600   */\n      0x00\n        /* \"#utility.yul\":7624:7677   */\n      tag_327\n        /* \"#utility.yul\":7669:7676   */\n      dup5\n        /* \"#utility.yul\":7660:7666   */\n      dup3\n        /* \"#utility.yul\":7649:7658   */\n      dup6\n        /* \"#utility.yul\":7645:7667   */\n      add\n        /* \"#utility.yul\":7624:7677   */\n      tag_204\n      jump\t// in\n    tag_327:\n        /* \"#utility.yul\":7614:7677   */\n      swap2\n      pop\n        /* \"#utility.yul\":7570:7687   */\n      pop\n        /* \"#utility.yul\":7365:7694   */\n      swap3\n      swap2\n      pop\n      pop\n      jump\t// out\n        /* \"#utility.yul\":7700:7818   */\n    tag_208:\n        /* \"#utility.yul\":7787:7811   */\n      tag_329\n        /* \"#utility.yul\":7805:7810   */\n      dup2\n        /* \"#utility.yul\":7787:7811   */\n      tag_205\n      jump\t// in\n    tag_329:\n        /* \"#utility.yul\":7782:7785   */\n      dup3\n        /* \"#utility.yul\":7775:7812   */\n      mstore\n        /* \"#utility.yul\":7700:7818   */\n      pop\n      pop\n      jump\t// out\n        /* \"#utility.yul\":7824:8046   */\n    tag_48:\n        /* \"#utility.yul\":7917:7921   */\n      0x00\n        /* \"#utility.yul\":7955:7957   */\n      0x20\n        /* \"#utility.yul\":7944:7953   */\n      dup3\n        /* \"#utility.yul\":7940:7958   */\n      add\n        /* \"#utility.yul\":7932:7958   */\n      swap1\n      pop\n        /* \"#utility.yul\":7968:8039   */\n      tag_331\n        /* \"#utility.yul\":8036:8037   */\n      0x00\n        /* \"#utility.yul\":8025:8034   */\n      dup4\n        /* \"#utility.yul\":8021:8038   */\n      add\n        /* \"#utility.yul\":8012:8018   */\n      dup5\n        /* \"#utility.yul\":7968:8039   */\n      tag_208\n      jump\t// in\n    tag_331:\n        /* \"#utility.yul\":7824:8046   */\n      swap3\n      swap2\n      pop\n      pop\n      jump\t// out\n        /* \"#utility.yul\":8052:9289   */\n    tag_59:\n        /* \"#utility.yul\":8166:8172   */\n      0x00\n        /* \"#utility.yul\":8174:8180   */\n      dup1\n        /* \"#utility.yul\":8182:8188   */\n      0x00\n        /* \"#utility.yul\":8190:8196   */\n      dup1\n        /* \"#utility.yul\":8198:8204   */\n      0x00\n        /* \"#utility.yul\":8206:8212   */\n      dup1\n        /* \"#utility.yul\":8255:8258   */\n      0xc0\n        /* \"#utility.yul\":8243:8252   */\n      dup8\n        /* \"#utility.yul\":8234:8241   */\n      dup10\n        /* \"#utility.yul\":8230:8253   */\n      sub\n        /* \"#utility.yul\":8226:8259   */\n      slt\n        /* \"#utility.yul\":8223:8343   */\n      iszero\n      tag_333\n      jumpi\n        /* \"#utility.yul\":8262:8341   */\n      tag_334\n      tag_185\n      jump\t// in\n    tag_334:\n        /* \"#utility.yul\":8223:8343   */\n    tag_333:\n        /* \"#utility.yul\":8410:8411   */\n      0x00\n        /* \"#utility.yul\":8399:8408   */\n      dup8\n        /* \"#utility.yul\":8395:8412   */\n      add\n        /* \"#utility.yul\":8382:8413   */\n      calldataload\n        /* \"#utility.yul\":8440:8458   */\n      0xffffffffffffffff\n        /* \"#utility.yul\":8432:8438   */\n      dup2\n        /* \"#utility.yul\":8429:8459   */\n      gt\n        /* \"#utility.yul\":8426:8543   */\n      iszero\n      tag_335\n      jumpi\n        /* \"#utility.yul\":8462:8541   */\n      tag_336\n      tag_186\n      jump\t// in\n    tag_336:\n        /* \"#utility.yul\":8426:8543   */\n    tag_335:\n        /* \"#utility.yul\":8567:8630   */\n      tag_337\n        /* \"#utility.yul\":8622:8629   */\n      dup10\n        /* \"#utility.yul\":8613:8619   */\n      dup3\n        /* \"#utility.yul\":8602:8611   */\n      dup11\n        /* \"#utility.yul\":8598:8620   */\n      add\n        /* \"#utility.yul\":8567:8630   */\n      tag_196\n      jump\t// in\n    tag_337:\n        /* \"#utility.yul\":8557:8630   */\n      swap7\n      pop\n        /* \"#utility.yul\":8353:8640   */\n      pop\n        /* \"#utility.yul\":8679:8681   */\n      0x20\n        /* \"#utility.yul\":8705:8758   */\n      tag_338\n        /* \"#utility.yul\":8750:8757   */\n      dup10\n        /* \"#utility.yul\":8741:8747   */\n      dup3\n        /* \"#utility.yul\":8730:8739   */\n      dup11\n        /* \"#utility.yul\":8726:8748   */\n      add\n        /* \"#utility.yul\":8705:8758   */\n      tag_207\n      jump\t// in\n    tag_338:\n        /* \"#utility.yul\":8695:8758   */\n      swap6\n      pop\n        /* \"#utility.yul\":8650:8768   */\n      pop\n        /* \"#utility.yul\":8807:8809   */\n      0x40\n        /* \"#utility.yul\":8833:8886   */\n      tag_339\n        /* \"#utility.yul\":8878:8885   */\n      dup10\n        /* \"#utility.yul\":8869:8875   */\n      dup3\n        /* \"#utility.yul\":8858:8867   */\n      dup11\n        /* \"#utility.yul\":8854:8876   */\n      add\n        /* \"#utility.yul\":8833:8886   */\n      tag_207\n      jump\t// in\n    tag_339:\n        /* \"#utility.yul\":8823:8886   */\n      swap5\n      pop\n        /* \"#utility.yul\":8778:8896   */\n      pop\n        /* \"#utility.yul\":8935:8937   */\n      0x60\n        /* \"#utility.yul\":8961:9014   */\n      tag_340\n        /* \"#utility.yul\":9006:9013   */\n      dup10\n        /* \"#utility.yul\":8997:9003   */\n      dup3\n        /* \"#utility.yul\":8986:8995   */\n      dup11\n        /* \"#utility.yul\":8982:9004   */\n      add\n        /* \"#utility.yul\":8961:9014   */\n      tag_207\n      jump\t// in\n    tag_340:\n        /* \"#utility.yul\":8951:9014   */\n      swap4\n      pop\n        /* \"#utility.yul\":8906:9024   */\n      pop\n        /* \"#utility.yul\":9063:9066   */\n      0x80\n        /* \"#utility.yul\":9090:9143   */\n      tag_341\n        /* \"#utility.yul\":9135:9142   */\n      dup10\n        /* \"#utility.yul\":9126:9132   */\n      dup3\n        /* \"#utility.yul\":9115:9124   */\n      dup11\n        /* \"#utility.yul\":9111:9133   */\n      add\n        /* \"#utility.yul\":9090:9143   */\n      tag_207\n      jump\t// in\n    tag_341:\n        /* \"#utility.yul\":9080:9143   */\n      swap3\n      pop\n        /* \"#utility.yul\":9034:9153   */\n      pop\n        /* \"#utility.yul\":9192:9195   */\n      0xa0\n        /* \"#utility.yul\":9219:9272   */\n      tag_342\n        /* \"#utility.yul\":9264:9271   */\n      dup10\n        /* \"#utility.yul\":9255:9261   */\n      dup3\n        /* \"#utility.yul\":9244:9253   */\n      dup11\n        /* \"#utility.yul\":9240:9262   */\n      add\n        /* \"#utility.yul\":9219:9272   */\n      tag_207\n      jump\t// in\n    tag_342:\n        /* \"#utility.yul\":9209:9272   */\n      swap2\n      pop\n        /* \"#utility.yul\":9163:9282   */\n      pop\n        /* \"#utility.yul\":8052:9289   */\n      swap3\n      swap6\n      pop\n      swap3\n      swap6\n      pop\n      swap3\n      swap6\n      jump\t// out\n        /* \"#utility.yul\":9295:9413   */\n    tag_209:\n        /* \"#utility.yul\":9382:9406   */\n      tag_344\n        /* \"#utility.yul\":9400:9405   */\n      dup2\n        /* \"#utility.yul\":9382:9406   */\n      tag_202\n      jump\t// in\n    tag_344:\n        /* \"#utility.yul\":9377:9380   */\n      dup3\n        /* \"#utility.yul\":9370:9407   */\n      mstore\n        /* \"#utility.yul\":9295:9413   */\n      pop\n      pop\n      jump\t// out\n        /* \"#utility.yul\":9419:10194   */\n    tag_65:\n        /* \"#utility.yul\":9652:9656   */\n      0x00\n        /* \"#utility.yul\":9690:9693   */\n      0xc0\n        /* \"#utility.yul\":9679:9688   */\n      dup3\n        /* \"#utility.yul\":9675:9694   */\n      add\n        /* \"#utility.yul\":9667:9694   */\n      swap1\n      pop\n        /* \"#utility.yul\":9704:9775   */\n      tag_346\n        /* \"#utility.yul\":9772:9773   */\n      0x00\n        /* \"#utility.yul\":9761:9770   */\n      dup4\n        /* \"#utility.yul\":9757:9774   */\n      add\n        /* \"#utility.yul\":9748:9754   */\n      dup10\n        /* \"#utility.yul\":9704:9775   */\n      tag_209\n      jump\t// in\n    tag_346:\n        /* \"#utility.yul\":9785:9857   */\n      tag_347\n        /* \"#utility.yul\":9853:9855   */\n      0x20\n        /* \"#utility.yul\":9842:9851   */\n      dup4\n        /* \"#utility.yul\":9838:9856   */\n      add\n        /* \"#utility.yul\":9829:9835   */\n      dup9\n        /* \"#utility.yul\":9785:9857   */\n      tag_208\n      jump\t// in\n    tag_347:\n        /* \"#utility.yul\":9867:9939   */\n      tag_348\n        /* \"#utility.yul\":9935:9937   */\n      0x40\n        /* \"#utility.yul\":9924:9933   */\n      dup4\n        /* \"#utility.yul\":9920:9938   */\n      add\n        /* \"#utility.yul\":9911:9917   */\n      dup8\n        /* \"#utility.yul\":9867:9939   */\n      tag_208\n      jump\t// in\n    tag_348:\n        /* \"#utility.yul\":9949:10021   */\n      tag_349\n        /* \"#utility.yul\":10017:10019   */\n      0x60\n        /* \"#utility.yul\":10006:10015   */\n      dup4\n        /* \"#utility.yul\":10002:10020   */\n      add\n        /* \"#utility.yul\":9993:9999   */\n      dup7\n        /* \"#utility.yul\":9949:10021   */\n      tag_208\n      jump\t// in\n    tag_349:\n        /* \"#utility.yul\":10031:10104   */\n      tag_350\n        /* \"#utility.yul\":10099:10102   */\n      0x80\n        /* \"#utility.yul\":10088:10097   */\n      dup4\n        /* \"#utility.yul\":10084:10103   */\n      add\n        /* \"#utility.yul\":10075:10081   */\n      dup6\n        /* \"#utility.yul\":10031:10104   */\n      tag_208\n      jump\t// in\n    tag_350:\n        /* \"#utility.yul\":10114:10187   */\n      tag_351\n        /* \"#utility.yul\":10182:10185   */\n      0xa0\n        /* \"#utility.yul\":10171:10180   */\n      dup4\n        /* \"#utility.yul\":10167:10186   */\n      add\n        /* \"#utility.yul\":10158:10164   */\n      dup5\n        /* \"#utility.yul\":10114:10187   */\n      tag_208\n      jump\t// in\n    tag_351:\n        /* \"#utility.yul\":9419:10194   */\n      swap8\n      swap7\n      pop\n      pop\n      pop\n      pop\n      pop\n      pop\n      pop\n      jump\t// out\n        /* \"#utility.yul\":10200:10999   */\n    tag_77:\n        /* \"#utility.yul\":10287:10293   */\n      0x00\n        /* \"#utility.yul\":10295:10301   */\n      dup1\n        /* \"#utility.yul\":10303:10309   */\n      0x00\n        /* \"#utility.yul\":10352:10354   */\n      0x60\n        /* \"#utility.yul\":10340:10349   */\n      dup5\n        /* \"#utility.yul\":10331:10338   */\n      dup7\n        /* \"#utility.yul\":10327:10350   */\n      sub\n        /* \"#utility.yul\":10323:10355   */\n      slt\n        /* \"#utility.yul\":10320:10439   */\n      iszero\n      tag_353\n      jumpi\n        /* \"#utility.yul\":10358:10437   */\n      tag_354\n      tag_185\n      jump\t// in\n    tag_354:\n        /* \"#utility.yul\":10320:10439   */\n    tag_353:\n        /* \"#utility.yul\":10506:10507   */\n      0x00\n        /* \"#utility.yul\":10495:10504   */\n      dup5\n        /* \"#utility.yul\":10491:10508   */\n      add\n        /* \"#utility.yul\":10478:10509   */\n      calldataload\n        /* \"#utility.yul\":10536:10554   */\n      0xffffffffffffffff\n        /* \"#utility.yul\":10528:10534   */\n      dup2\n        /* \"#utility.yul\":10525:10555   */\n      gt\n        /* \"#utility.yul\":10522:10639   */\n      iszero\n      tag_355\n      jumpi\n        /* \"#utility.yul\":10558:10637   */\n      tag_356\n      tag_186\n      jump\t// in\n    tag_356:\n        /* \"#utility.yul\":10522:10639   */\n    tag_355:\n        /* \"#utility.yul\":10663:10726   */\n      tag_357\n        /* \"#utility.yul\":10718:10725   */\n      dup7\n        /* \"#utility.yul\":10709:10715   */\n      dup3\n        /* \"#utility.yul\":10698:10707   */\n      dup8\n        /* \"#utility.yul\":10694:10716   */\n      add\n        /* \"#utility.yul\":10663:10726   */\n      tag_196\n      jump\t// in\n    tag_357:\n        /* \"#utility.yul\":10653:10726   */\n      swap4\n      pop\n        /* \"#utility.yul\":10449:10736   */\n      pop\n        /* \"#utility.yul\":10775:10777   */\n      0x20\n        /* \"#utility.yul\":10801:10854   */\n      tag_358\n        /* \"#utility.yul\":10846:10853   */\n      dup7\n        /* \"#utility.yul\":10837:10843   */\n      dup3\n        /* \"#utility.yul\":10826:10835   */\n      dup8\n        /* \"#utility.yul\":10822:10844   */\n      add\n        /* \"#utility.yul\":10801:10854   */\n      tag_207\n      jump\t// in\n    tag_358:\n        /* \"#utility.yul\":10791:10854   */\n      swap3\n      pop\n        /* \"#utility.yul\":10746:10864   */\n      pop\n        /* \"#utility.yul\":10903:10905   */\n      0x40\n        /* \"#utility.yul\":10929:10982   */\n      tag_359\n        /* \"#utility.yul\":10974:10981   */\n      dup7\n        /* \"#utility.yul\":10965:10971   */\n      dup3\n        /* \"#utility.yul\":10954:10963   */\n      dup8\n        /* \"#utility.yul\":10950:10972   */\n      add\n        /* \"#utility.yul\":10929:10982   */\n      tag_207\n      jump\t// in\n    tag_359:\n        /* \"#utility.yul\":10919:10982   */\n      swap2\n      pop\n        /* \"#utility.yul\":10874:10992   */\n      pop\n        /* \"#utility.yul\":10200:10999   */\n      swap3\n      pop\n      swap3\n      pop\n      swap3\n      jump\t// out\n        /* \"#utility.yul\":11005:11153   */\n    tag_210:\n        /* \"#utility.yul\":11107:11118   */\n      0x00\n        /* \"#utility.yul\":11144:11147   */\n      dup2\n        /* \"#utility.yul\":11129:11147   */\n      swap1\n      pop\n        /* \"#utility.yul\":11005:11153   */\n      swap3\n      swap2\n      pop\n      pop\n      jump\t// out\n        /* \"#utility.yul\":11159:11549   */\n    tag_211:\n        /* \"#utility.yul\":11265:11268   */\n      0x00\n        /* \"#utility.yul\":11293:11332   */\n      tag_362\n        /* \"#utility.yul\":11326:11331   */\n      dup3\n        /* \"#utility.yul\":11293:11332   */\n      tag_197\n      jump\t// in\n    tag_362:\n        /* \"#utility.yul\":11348:11437   */\n      tag_363\n        /* \"#utility.yul\":11430:11436   */\n      dup2\n        /* \"#utility.yul\":11425:11428   */\n      dup6\n        /* \"#utility.yul\":11348:11437   */\n      tag_210\n      jump\t// in\n    tag_363:\n        /* \"#utility.yul\":11341:11437   */\n      swap4\n      pop\n        /* \"#utility.yul\":11446:11511   */\n      tag_364\n        /* \"#utility.yul\":11504:11510   */\n      dup2\n        /* \"#utility.yul\":11499:11502   */\n      dup6\n        /* \"#utility.yul\":11492:11496   */\n      0x20\n        /* \"#utility.yul\":11485:11490   */\n      dup7\n        /* \"#utility.yul\":11481:11497   */\n      add\n        /* \"#utility.yul\":11446:11511   */\n      tag_199\n      jump\t// in\n    tag_364:\n        /* \"#utility.yul\":11536:11542   */\n      dup1\n        /* \"#utility.yul\":11531:11534   */\n      dup5\n        /* \"#utility.yul\":11527:11543   */\n      add\n        /* \"#utility.yul\":11520:11543   */\n      swap2\n      pop\n        /* \"#utility.yul\":11269:11549   */\n      pop\n        /* \"#utility.yul\":11159:11549   */\n      swap3\n      swap2\n      pop\n      pop\n      jump\t// out\n        /* \"#utility.yul\":11555:11830   */\n    tag_85:\n        /* \"#utility.yul\":11687:11690   */\n      0x00\n        /* \"#utility.yul\":11709:11804   */\n      tag_366\n        /* \"#utility.yul\":11800:11803   */\n      dup3\n        /* \"#utility.yul\":11791:11797   */\n      dup5\n        /* \"#utility.yul\":11709:11804   */\n      tag_211\n      jump\t// in\n    tag_366:\n        /* \"#utility.yul\":11702:11804   */\n      swap2\n      pop\n        /* \"#utility.yul\":11821:11824   */\n      dup2\n        /* \"#utility.yul\":11814:11824   */\n      swap1\n      pop\n        /* \"#utility.yul\":11555:11830   */\n      swap3\n      swap2\n      pop\n      pop\n      jump\t// out\n        /* \"#utility.yul\":11836:12016   */\n    tag_212:\n        /* \"#utility.yul\":11884:11961   */\n      0x4e487b7100000000000000000000000000000000000000000000000000000000\n        /* \"#utility.yul\":11881:11882   */\n      0x00\n        /* \"#utility.yul\":11874:11962   */\n      mstore\n        /* \"#utility.yul\":11981:11985   */\n      0x22\n        /* \"#utility.yul\":11978:11979   */\n      0x04\n        /* \"#utility.yul\":11971:11986   */\n      mstore\n        /* \"#utility.yul\":12005:12009   */\n      0x24\n        /* \"#utility.yul\":12002:12003   */\n      0x00\n        /* \"#utility.yul\":11995:12010   */\n      revert\n        /* \"#utility.yul\":12022:12342   */\n    tag_87:\n        /* \"#utility.yul\":12066:12072   */\n      0x00\n        /* \"#utility.yul\":12103:12104   */\n      0x02\n        /* \"#utility.yul\":12097:12101   */\n      dup3\n        /* \"#utility.yul\":12093:12105   */\n      div\n        /* \"#utility.yul\":12083:12105   */\n      swap1\n      pop\n        /* \"#utility.yul\":12150:12151   */\n      0x01\n        /* \"#utility.yul\":12144:12148   */\n      dup3\n        /* \"#utility.yul\":12140:12152   */\n      and\n        /* \"#utility.yul\":12171:12189   */\n      dup1\n        /* \"#utility.yul\":12161:12242   */\n      tag_369\n      jumpi\n        /* \"#utility.yul\":12227:12231   */\n      0x7f\n        /* \"#utility.yul\":12219:12225   */\n      dup3\n        /* \"#utility.yul\":12215:12232   */\n      and\n        /* \"#utility.yul\":12205:12232   */\n      swap2\n      pop\n        /* \"#utility.yul\":12161:12242   */\n    tag_369:\n        /* \"#utility.yul\":12289:12291   */\n      0x20\n        /* \"#utility.yul\":12281:12287   */\n      dup3\n        /* \"#utility.yul\":12278:12292   */\n      lt\n        /* \"#utility.yul\":12258:12276   */\n      dup2\n        /* \"#utility.yul\":12255:12293   */\n      sub\n        /* \"#utility.yul\":12252:12336   */\n      tag_370\n      jumpi\n        /* \"#utility.yul\":12308:12326   */\n      tag_371\n      tag_212\n      jump\t// in\n    tag_371:\n        /* \"#utility.yul\":12252:12336   */\n    tag_370:\n        /* \"#utility.yul\":12073:12342   */\n      pop\n        /* \"#utility.yul\":12022:12342   */\n      swap2\n      swap1\n      pop\n      jump\t// out\n        /* \"#utility.yul\":12348:12579   */\n    tag_213:\n        /* \"#utility.yul\":12488:12522   */\n      0x756e467265657a696e6720616d6f756e74206973206772656174657220746861\n        /* \"#utility.yul\":12484:12485   */\n      0x00\n        /* \"#utility.yul\":12476:12482   */\n      dup3\n        /* \"#utility.yul\":12472:12486   */\n      add\n        /* \"#utility.yul\":12465:12523   */\n      mstore\n        /* \"#utility.yul\":12557:12571   */\n      0x6e20617661696c61626c652e0000000000000000000000000000000000000000\n        /* \"#utility.yul\":12552:12554   */\n      0x20\n        /* \"#utility.yul\":12544:12550   */\n      dup3\n        /* \"#utility.yul\":12540:12555   */\n      add\n        /* \"#utility.yul\":12533:12572   */\n      mstore\n        /* \"#utility.yul\":12348:12579   */\n      pop\n      jump\t// out\n        /* \"#utility.yul\":12585:12951   */\n    tag_214:\n        /* \"#utility.yul\":12727:12730   */\n      0x00\n        /* \"#utility.yul\":12748:12815   */\n      tag_374\n        /* \"#utility.yul\":12812:12814   */\n      0x2c\n        /* \"#utility.yul\":12807:12810   */\n      dup4\n        /* \"#utility.yul\":12748:12815   */\n      tag_198\n      jump\t// in\n    tag_374:\n        /* \"#utility.yul\":12741:12815   */\n      swap2\n      pop\n        /* \"#utility.yul\":12824:12917   */\n      tag_375\n        /* \"#utility.yul\":12913:12916   */\n      dup3\n        /* \"#utility.yul\":12824:12917   */\n      tag_213\n      jump\t// in\n    tag_375:\n        /* \"#utility.yul\":12942:12944   */\n      0x40\n        /* \"#utility.yul\":12937:12940   */\n      dup3\n        /* \"#utility.yul\":12933:12945   */\n      add\n        /* \"#utility.yul\":12926:12945   */\n      swap1\n      pop\n        /* \"#utility.yul\":12585:12951   */\n      swap2\n      swap1\n      pop\n      jump\t// out\n        /* \"#utility.yul\":12957:13376   */\n    tag_97:\n        /* \"#utility.yul\":13123:13127   */\n      0x00\n        /* \"#utility.yul\":13161:13163   */\n      0x20\n        /* \"#utility.yul\":13150:13159   */\n      dup3\n        /* \"#utility.yul\":13146:13164   */\n      add\n        /* \"#utility.yul\":13138:13164   */\n      swap1\n      pop\n        /* \"#utility.yul\":13210:13219   */\n      dup2\n        /* \"#utility.yul\":13204:13208   */\n      dup2\n        /* \"#utility.yul\":13200:13220   */\n      sub\n        /* \"#utility.yul\":13196:13197   */\n      0x00\n        /* \"#utility.yul\":13185:13194   */\n      dup4\n        /* \"#utility.yul\":13181:13198   */\n      add\n        /* \"#utility.yul\":13174:13221   */\n      mstore\n        /* \"#utility.yul\":13238:13369   */\n      tag_377\n        /* \"#utility.yul\":13364:13368   */\n      dup2\n        /* \"#utility.yul\":13238:13369   */\n      tag_214\n      jump\t// in\n    tag_377:\n        /* \"#utility.yul\":13230:13369   */\n      swap1\n      pop\n        /* \"#utility.yul\":12957:13376   */\n      swap2\n      swap1\n      pop\n      jump\t// out\n        /* \"#utility.yul\":13382:13560   */\n    tag_215:\n        /* \"#utility.yul\":13522:13552   */\n      0x756e467265657a696e6720616d6f756e74206973206e6f207a72656f00000000\n        /* \"#utility.yul\":13518:13519   */\n      0x00\n        /* \"#utility.yul\":13510:13516   */\n      dup3\n        /* \"#utility.yul\":13506:13520   */\n      add\n        /* \"#utility.yul\":13499:13553   */\n      mstore\n        /* \"#utility.yul\":13382:13560   */\n      pop\n      jump\t// out\n        /* \"#utility.yul\":13566:13932   */\n    tag_216:\n        /* \"#utility.yul\":13708:13711   */\n      0x00\n        /* \"#utility.yul\":13729:13796   */\n      tag_380\n        /* \"#utility.yul\":13793:13795   */\n      0x1c\n        /* \"#utility.yul\":13788:13791   */\n      dup4\n        /* \"#utility.yul\":13729:13796   */\n      tag_198\n      jump\t// in\n    tag_380:\n        /* \"#utility.yul\":13722:13796   */\n      swap2\n      pop\n        /* \"#utility.yul\":13805:13898   */\n      tag_381\n        /* \"#utility.yul\":13894:13897   */\n      dup3\n        /* \"#utility.yul\":13805:13898   */\n      tag_215\n      jump\t// in\n    tag_381:\n        /* \"#utility.yul\":13923:13925   */\n      0x20\n        /* \"#utility.yul\":13918:13921   */\n      dup3\n        /* \"#utility.yul\":13914:13926   */\n      add\n        /* \"#utility.yul\":13907:13926   */\n      swap1\n      pop\n        /* \"#utility.yul\":13566:13932   */\n      swap2\n      swap1\n      pop\n      jump\t// out\n        /* \"#utility.yul\":13938:14357   */\n    tag_100:\n        /* \"#utility.yul\":14104:14108   */\n      0x00\n        /* \"#utility.yul\":14142:14144   */\n      0x20\n        /* \"#utility.yul\":14131:14140   */\n      dup3\n        /* \"#utility.yul\":14127:14145   */\n      add\n        /* \"#utility.yul\":14119:14145   */\n      swap1\n      pop\n        /* \"#utility.yul\":14191:14200   */\n      dup2\n        /* \"#utility.yul\":14185:14189   */\n      dup2\n        /* \"#utility.yul\":14181:14201   */\n      sub\n        /* \"#utility.yul\":14177:14178   */\n      0x00\n        /* \"#utility.yul\":14166:14175   */\n      dup4\n        /* \"#utility.yul\":14162:14179   */\n      add\n        /* \"#utility.yul\":14155:14202   */\n      mstore\n        /* \"#utility.yul\":14219:14350   */\n      tag_383\n        /* \"#utility.yul\":14345:14349   */\n      dup2\n        /* \"#utility.yul\":14219:14350   */\n      tag_216\n      jump\t// in\n    tag_383:\n        /* \"#utility.yul\":14211:14350   */\n      swap1\n      pop\n        /* \"#utility.yul\":13938:14357   */\n      swap2\n      swap1\n      pop\n      jump\t// out\n        /* \"#utility.yul\":14363:14543   */\n    tag_217:\n        /* \"#utility.yul\":14411:14488   */\n      0x4e487b7100000000000000000000000000000000000000000000000000000000\n        /* \"#utility.yul\":14408:14409   */\n      0x00\n        /* \"#utility.yul\":14401:14489   */\n      mstore\n        /* \"#utility.yul\":14508:14512   */\n      0x11\n        /* \"#utility.yul\":14505:14506   */\n      0x04\n        /* \"#utility.yul\":14498:14513   */\n      mstore\n        /* \"#utility.yul\":14532:14536   */\n      0x24\n        /* \"#utility.yul\":14529:14530   */\n      0x00\n        /* \"#utility.yul\":14522:14537   */\n      revert\n        /* \"#utility.yul\":14549:14740   */\n    tag_102:\n        /* \"#utility.yul\":14589:14592   */\n      0x00\n        /* \"#utility.yul\":14608:14628   */\n      tag_386\n        /* \"#utility.yul\":14626:14627   */\n      dup3\n        /* \"#utility.yul\":14608:14628   */\n      tag_205\n      jump\t// in\n    tag_386:\n        /* \"#utility.yul\":14603:14628   */\n      swap2\n      pop\n        /* \"#utility.yul\":14642:14662   */\n      tag_387\n        /* \"#utility.yul\":14660:14661   */\n      dup4\n        /* \"#utility.yul\":14642:14662   */\n      tag_205\n      jump\t// in\n    tag_387:\n        /* \"#utility.yul\":14637:14662   */\n      swap3\n      pop\n        /* \"#utility.yul\":14685:14686   */\n      dup3\n        /* \"#utility.yul\":14682:14683   */\n      dup3\n        /* \"#utility.yul\":14678:14687   */\n      add\n        /* \"#utility.yul\":14671:14687   */\n      swap1\n      pop\n        /* \"#utility.yul\":14706:14709   */\n      dup1\n        /* \"#utility.yul\":14703:14704   */\n      dup3\n        /* \"#utility.yul\":14700:14710   */\n      gt\n        /* \"#utility.yul\":14697:14733   */\n      iszero\n      tag_388\n      jumpi\n        /* \"#utility.yul\":14713:14731   */\n      tag_389\n      tag_217\n      jump\t// in\n    tag_389:\n        /* \"#utility.yul\":14697:14733   */\n    tag_388:\n        /* \"#utility.yul\":14549:14740   */\n      swap3\n      swap2\n      pop\n      pop\n      jump\t// out\n        /* \"#utility.yul\":14746:14940   */\n    tag_104:\n        /* \"#utility.yul\":14786:14790   */\n      0x00\n        /* \"#utility.yul\":14806:14826   */\n      tag_391\n        /* \"#utility.yul\":14824:14825   */\n      dup3\n        /* \"#utility.yul\":14806:14826   */\n      tag_205\n      jump\t// in\n    tag_391:\n        /* \"#utility.yul\":14801:14826   */\n      swap2\n      pop\n        /* \"#utility.yul\":14840:14860   */\n      tag_392\n        /* \"#utility.yul\":14858:14859   */\n      dup4\n        /* \"#utility.yul\":14840:14860   */\n      tag_205\n      jump\t// in\n    tag_392:\n        /* \"#utility.yul\":14835:14860   */\n      swap3\n      pop\n        /* \"#utility.yul\":14884:14885   */\n      dup3\n        /* \"#utility.yul\":14881:14882   */\n      dup3\n        /* \"#utility.yul\":14877:14886   */\n      sub\n        /* \"#utility.yul\":14869:14886   */\n      swap1\n      pop\n        /* \"#utility.yul\":14908:14909   */\n      dup2\n        /* \"#utility.yul\":14902:14906   */\n      dup2\n        /* \"#utility.yul\":14899:14910   */\n      gt\n        /* \"#utility.yul\":14896:14933   */\n      iszero\n      tag_393\n      jumpi\n        /* \"#utility.yul\":14913:14931   */\n      tag_394\n      tag_217\n      jump\t// in\n    tag_394:\n        /* \"#utility.yul\":14896:14933   */\n    tag_393:\n        /* \"#utility.yul\":14746:14940   */\n      swap3\n      swap2\n      pop\n      pop\n      jump\t// out\n        /* \"#utility.yul\":14946:15087   */\n    tag_218:\n        /* \"#utility.yul\":14995:14999   */\n      0x00\n        /* \"#utility.yul\":15018:15021   */\n      dup2\n        /* \"#utility.yul\":15010:15021   */\n      swap1\n      pop\n        /* \"#utility.yul\":15041:15044   */\n      dup2\n        /* \"#utility.yul\":15038:15039   */\n      0x00\n        /* \"#utility.yul\":15031:15045   */\n      mstore\n        /* \"#utility.yul\":15075:15079   */\n      0x20\n        /* \"#utility.yul\":15072:15073   */\n      0x00\n        /* \"#utility.yul\":15062:15080   */\n      keccak256\n        /* \"#utility.yul\":15054:15080   */\n      swap1\n      pop\n        /* \"#utility.yul\":14946:15087   */\n      swap2\n      swap1\n      pop\n      jump\t// out\n        /* \"#utility.yul\":15093:15186   */\n    tag_219:\n        /* \"#utility.yul\":15130:15136   */\n      0x00\n        /* \"#utility.yul\":15177:15179   */\n      0x20\n        /* \"#utility.yul\":15172:15174   */\n      0x1f\n        /* \"#utility.yul\":15165:15170   */\n      dup4\n        /* \"#utility.yul\":15161:15175   */\n      add\n        /* \"#utility.yul\":15157:15180   */\n      div\n        /* \"#utility.yul\":15147:15180   */\n      swap1\n      pop\n        /* \"#utility.yul\":15093:15186   */\n      swap2\n      swap1\n      pop\n      jump\t// out\n        /* \"#utility.yul\":15192:15299   */\n    tag_220:\n        /* \"#utility.yul\":15236:15244   */\n      0x00\n        /* \"#utility.yul\":15286:15291   */\n      dup3\n        /* \"#utility.yul\":15280:15284   */\n      dup3\n        /* \"#utility.yul\":15276:15292   */\n      shl\n        /* \"#utility.yul\":15255:15292   */\n      swap1\n      pop\n        /* \"#utility.yul\":15192:15299   */\n      swap3\n      swap2\n      pop\n      pop\n      jump\t// out\n        /* \"#utility.yul\":15305:15698   */\n    tag_221:\n        /* \"#utility.yul\":15374:15380   */\n      0x00\n        /* \"#utility.yul\":15424:15425   */\n      0x08\n        /* \"#utility.yul\":15412:15422   */\n      dup4\n        /* \"#utility.yul\":15408:15426   */\n      mul\n        /* \"#utility.yul\":15447:15544   */\n      tag_399\n        /* \"#utility.yul\":15477:15543   */\n      0xffffffffffffffffffffffffffffffffffffffffffffffffffffffffffffffff\n        /* \"#utility.yul\":15466:15475   */\n      dup3\n        /* \"#utility.yul\":15447:15544   */\n      tag_220\n      jump\t// in\n    tag_399:\n        /* \"#utility.yul\":15565:15604   */\n      tag_400\n        /* \"#utility.yul\":15595:15603   */\n      dup7\n        /* \"#utility.yul\":15584:15593   */\n      dup4\n        /* \"#utility.yul\":15565:15604   */\n      tag_220\n      jump\t// in\n    tag_400:\n        /* \"#utility.yul\":15553:15604   */\n      swap6\n      pop\n        /* \"#utility.yul\":15637:15641   */\n      dup1\n        /* \"#utility.yul\":15633:15642   */\n      not\n        /* \"#utility.yul\":15626:15631   */\n      dup5\n        /* \"#utility.yul\":15622:15643   */\n      and\n        /* \"#utility.yul\":15613:15643   */\n      swap4\n      pop\n        /* \"#utility.yul\":15686:15690   */\n      dup1\n        /* \"#utility.yul\":15676:15684   */\n      dup7\n        /* \"#utility.yul\":15672:15691   */\n      and\n        /* \"#utility.yul\":15665:15670   */\n      dup5\n        /* \"#utility.yul\":15662:15692   */\n      or\n        /* \"#utility.yul\":15652:15692   */\n      swap3\n      pop\n        /* \"#utility.yul\":15381:15698   */\n      pop\n      pop\n        /* \"#utility.yul\":15305:15698   */\n      swap4\n      swap3\n      pop\n      pop\n      pop\n      jump\t// out\n        /* \"#utility.yul\":15704:15764   */\n    tag_222:\n        /* \"#utility.yul\":15732:15735   */\n      0x00\n        /* \"#utility.yul\":15753:15758   */\n      dup2\n        /* \"#utility.yul\":15746:15758   */\n      swap1\n      pop\n        /* \"#utility.yul\":15704:15764   */\n      swap2\n      swap1\n      pop\n      jump\t// out\n        /* \"#utility.yul\":15770:15912   */\n    tag_223:\n        /* \"#utility.yul\":15820:15829   */\n      0x00\n        /* \"#utility.yul\":15853:15906   */\n      tag_403\n        /* \"#utility.yul\":15871:15905   */\n      tag_404\n        /* \"#utility.yul\":15880:15904   */\n      tag_405\n        /* \"#utility.yul\":15898:15903   */\n      dup5\n        /* \"#utility.yul\":15880:15904   */\n      tag_205\n      jump\t// in\n    tag_405:\n        /* \"#utility.yul\":15871:15905   */\n      tag_222\n      jump\t// in\n    tag_404:\n        /* \"#utility.yul\":15853:15906   */\n      tag_205\n      jump\t// in\n    tag_403:\n        /* \"#utility.yul\":15840:15906   */\n      swap1\n      pop\n        /* \"#utility.yul\":15770:15912   */\n      swap2\n      swap1\n      pop\n      jump\t// out\n        /* \"#utility.yul\":15918:15993   */\n    tag_224:\n        /* \"#utility.yul\":15961:15964   */\n      0x00\n        /* \"#utility.yul\":15982:15987   */\n      dup2\n        /* \"#utility.yul\":15975:15987   */\n      swap1\n      pop\n        /* \"#utility.yul\":15918:15993   */\n      swap2\n      swap1\n      pop\n      jump\t// out\n        /* \"#utility.yul\":15999:16268   */\n    tag_225:\n        /* \"#utility.yul\":16109:16148   */\n      tag_408\n        /* \"#utility.yul\":16140:16147   */\n      dup4\n        /* \"#utility.yul\":16109:16148   */\n      tag_223\n      jump\t// in\n    tag_408:\n        /* \"#utility.yul\":16170:16261   */\n      tag_409\n        /* \"#utility.yul\":16219:16260   */\n      tag_410\n        /* \"#utility.yul\":16243:16259   */\n      dup3\n        /* \"#utility.yul\":16219:16260   */\n      tag_224\n      jump\t// in\n    tag_410:\n        /* \"#utility.yul\":16211:16217   */\n      dup5\n        /* \"#utility.yul\":16204:16208   */\n      dup5\n        /* \"#utility.yul\":16198:16209   */\n      sload\n        /* \"#utility.yul\":16170:16261   */\n      tag_221\n      jump\t// in\n    tag_409:\n        /* \"#utility.yul\":16164:16168   */\n      dup3\n        /* \"#utility.yul\":16157:16262   */\n      sstore\n        /* \"#utility.yul\":16075:16268   */\n      pop\n        /* \"#utility.yul\":15999:16268   */\n      pop\n      pop\n      pop\n      jump\t// out\n        /* \"#utility.yul\":16274:16347   */\n    tag_226:\n        /* \"#utility.yul\":16319:16322   */\n      0x00\n        /* \"#utility.yul\":16274:16347   */\n      swap1\n      jump\t// out\n        /* \"#utility.yul\":16353:16542   */\n    tag_227:\n        /* \"#utility.yul\":16430:16462   */\n      tag_413\n      tag_226\n      jump\t// in\n    tag_413:\n        /* \"#utility.yul\":16471:16536   */\n      tag_414\n        /* \"#utility.yul\":16529:16535   */\n      dup2\n        /* \"#utility.yul\":16521:16527   */\n      dup5\n        /* \"#utility.yul\":16515:16519   */\n      dup5\n        /* \"#utility.yul\":16471:16536   */\n      tag_225\n      jump\t// in\n    tag_414:\n        /* \"#utility.yul\":16406:16542   */\n      pop\n        /* \"#utility.yul\":16353:16542   */\n      pop\n      pop\n      jump\t// out\n        /* \"#utility.yul\":16548:16734   */\n    tag_228:\n        /* \"#utility.yul\":16608:16728   */\n    tag_416:\n        /* \"#utility.yul\":16625:16628   */\n      dup2\n        /* \"#utility.yul\":16618:16623   */\n      dup2\n        /* \"#utility.yul\":16615:16629   */\n      lt\n        /* \"#utility.yul\":16608:16728   */\n      iszero\n      tag_418\n      jumpi\n        /* \"#utility.yul\":16679:16718   */\n      tag_419\n        /* \"#utility.yul\":16716:16717   */\n      0x00\n        /* \"#utility.yul\":16709:16714   */\n      dup3\n        /* \"#utility.yul\":16679:16718   */\n      tag_227\n      jump\t// in\n    tag_419:\n        /* \"#utility.yul\":16652:16653   */\n      0x01\n        /* \"#utility.yul\":16645:16650   */\n      dup2\n        /* \"#utility.yul\":16641:16654   */\n      add\n        /* \"#utility.yul\":16632:16654   */\n      swap1\n      pop\n        /* \"#utility.yul\":16608:16728   */\n      jump(tag_416)\n    tag_418:\n        /* \"#utility.yul\":16548:16734   */\n      pop\n      pop\n      jump\t// out\n        /* \"#utility.yul\":16740:17283   */\n    tag_229:\n        /* \"#utility.yul\":16841:16843   */\n      0x1f\n        /* \"#utility.yul\":16836:16839   */\n      dup3\n        /* \"#utility.yul\":16833:16844   */\n      gt\n        /* \"#utility.yul\":16830:17276   */\n      iszero\n      tag_421\n      jumpi\n        /* \"#utility.yul\":16875:16913   */\n      tag_422\n        /* \"#utility.yul\":16907:16912   */\n      dup2\n        /* \"#utility.yul\":16875:16913   */\n      tag_218\n      jump\t// in\n    tag_422:\n        /* \"#utility.yul\":16959:16988   */\n      tag_423\n        /* \"#utility.yul\":16977:16987   */\n      dup5\n        /* \"#utility.yul\":16959:16988   */\n      tag_219\n      jump\t// in\n    tag_423:\n        /* \"#utility.yul\":16949:16957   */\n      dup2\n        /* \"#utility.yul\":16945:16989   */\n      add\n        /* \"#utility.yul\":17142:17144   */\n      0x20\n        /* \"#utility.yul\":17130:17140   */\n      dup6\n        /* \"#utility.yul\":17127:17145   */\n      lt\n        /* \"#utility.yul\":17124:17173   */\n      iszero\n      tag_424\n      jumpi\n        /* \"#utility.yul\":17163:17171   */\n      dup2\n        /* \"#utility.yul\":17148:17171   */\n      swap1\n      pop\n        /* \"#utility.yul\":17124:17173   */\n    tag_424:\n        /* \"#utility.yul\":17186:17266   */\n      tag_425\n        /* \"#utility.yul\":17242:17264   */\n      tag_426\n        /* \"#utility.yul\":17260:17263   */\n      dup6\n        /* \"#utility.yul\":17242:17264   */\n      tag_219\n      jump\t// in\n    tag_426:\n        /* \"#utility.yul\":17232:17240   */\n      dup4\n        /* \"#utility.yul\":17228:17265   */\n      add\n        /* \"#utility.yul\":17215:17226   */\n      dup3\n        /* \"#utility.yul\":17186:17266   */\n      tag_228\n      jump\t// in\n    tag_425:\n        /* \"#utility.yul\":16845:17276   */\n      pop\n      pop\n        /* \"#utility.yul\":16830:17276   */\n    tag_421:\n        /* \"#utility.yul\":16740:17283   */\n      pop\n      pop\n      pop\n      jump\t// out\n        /* \"#utility.yul\":17289:17406   */\n    tag_230:\n        /* \"#utility.yul\":17343:17351   */\n      0x00\n        /* \"#utility.yul\":17393:17398   */\n      dup3\n        /* \"#utility.yul\":17387:17391   */\n      dup3\n        /* \"#utility.yul\":17383:17399   */\n      shr\n        /* \"#utility.yul\":17362:17399   */\n      swap1\n      pop\n        /* \"#utility.yul\":17289:17406   */\n      swap3\n      swap2\n      pop\n      pop\n      jump\t// out\n        /* \"#utility.yul\":17412:17581   */\n    tag_231:\n        /* \"#utility.yul\":17456:17462   */\n      0x00\n        /* \"#utility.yul\":17489:17540   */\n      tag_429\n        /* \"#utility.yul\":17537:17538   */\n      0x00\n        /* \"#utility.yul\":17533:17539   */\n      not\n        /* \"#utility.yul\":17525:17530   */\n      dup5\n        /* \"#utility.yul\":17522:17523   */\n      0x08\n        /* \"#utility.yul\":17518:17531   */\n      mul\n        /* \"#utility.yul\":17489:17540   */\n      tag_230\n      jump\t// in\n    tag_429:\n        /* \"#utility.yul\":17485:17541   */\n      not\n        /* \"#utility.yul\":17570:17574   */\n      dup1\n        /* \"#utility.yul\":17564:17568   */\n      dup4\n        /* \"#utility.yul\":17560:17575   */\n      and\n        /* \"#utility.yul\":17550:17575   */\n      swap2\n      pop\n        /* \"#utility.yul\":17463:17581   */\n      pop\n        /* \"#utility.yul\":17412:17581   */\n      swap3\n      swap2\n      pop\n      pop\n      jump\t// out\n        /* \"#utility.yul\":17586:17881   */\n    tag_232:\n        /* \"#utility.yul\":17662:17666   */\n      0x00\n        /* \"#utility.yul\":17808:17837   */\n      tag_431\n        /* \"#utility.yul\":17833:17836   */\n      dup4\n        /* \"#utility.yul\":17827:17831   */\n      dup4\n        /* \"#utility.yul\":17808:17837   */\n      tag_231\n      jump\t// in\n    tag_431:\n        /* \"#utility.yul\":17800:17837   */\n      swap2\n      pop\n        /* \"#utility.yul\":17870:17873   */\n      dup3\n        /* \"#utility.yul\":17867:17868   */\n      0x02\n        /* \"#utility.yul\":17863:17874   */\n      mul\n        /* \"#utility.yul\":17857:17861   */\n      dup3\n        /* \"#utility.yul\":17854:17875   */\n      or\n        /* \"#utility.yul\":17846:17875   */\n      swap1\n      pop\n        /* \"#utility.yul\":17586:17881   */\n      swap3\n      swap2\n      pop\n      pop\n      jump\t// out\n        /* \"#utility.yul\":17886:19281   */\n    tag_108:\n        /* \"#utility.yul\":18003:18040   */\n      tag_433\n        /* \"#utility.yul\":18036:18039   */\n      dup3\n        /* \"#utility.yul\":18003:18040   */\n      tag_197\n      jump\t// in\n    tag_433:\n        /* \"#utility.yul\":18105:18123   */\n      0xffffffffffffffff\n        /* \"#utility.yul\":18097:18103   */\n      dup2\n        /* \"#utility.yul\":18094:18124   */\n      gt\n        /* \"#utility.yul\":18091:18147   */\n      iszero\n      tag_434\n      jumpi\n        /* \"#utility.yul\":18127:18145   */\n      tag_435\n      tag_190\n      jump\t// in\n    tag_435:\n        /* \"#utility.yul\":18091:18147   */\n    tag_434:\n        /* \"#utility.yul\":18171:18209   */\n      tag_436\n        /* \"#utility.yul\":18203:18207   */\n      dup3\n        /* \"#utility.yul\":18197:18208   */\n      sload\n        /* \"#utility.yul\":18171:18209   */\n      tag_87\n      jump\t// in\n    tag_436:\n        /* \"#utility.yul\":18256:18323   */\n      tag_437\n        /* \"#utility.yul\":18316:18322   */\n      dup3\n        /* \"#utility.yul\":18308:18314   */\n      dup3\n        /* \"#utility.yul\":18302:18306   */\n      dup6\n        /* \"#utility.yul\":18256:18323   */\n      tag_229\n      jump\t// in\n    tag_437:\n        /* \"#utility.yul\":18350:18351   */\n      0x00\n        /* \"#utility.yul\":18374:18378   */\n      0x20\n        /* \"#utility.yul\":18361:18378   */\n      swap1\n      pop\n        /* \"#utility.yul\":18406:18408   */\n      0x1f\n        /* \"#utility.yul\":18398:18404   */\n      dup4\n        /* \"#utility.yul\":18395:18409   */\n      gt\n        /* \"#utility.yul\":18423:18424   */\n      0x01\n        /* \"#utility.yul\":18418:19036   */\n      dup2\n      eq\n      tag_439\n      jumpi\n        /* \"#utility.yul\":19080:19081   */\n      0x00\n        /* \"#utility.yul\":19097:19103   */\n      dup5\n        /* \"#utility.yul\":19094:19171   */\n      iszero\n      tag_440\n      jumpi\n        /* \"#utility.yul\":19146:19155   */\n      dup3\n        /* \"#utility.yul\":19141:19144   */\n      dup8\n        /* \"#utility.yul\":19137:19156   */\n      add\n        /* \"#utility.yul\":19131:19157   */\n      mload\n        /* \"#utility.yul\":19122:19157   */\n      swap1\n      pop\n        /* \"#utility.yul\":19094:19171   */\n    tag_440:\n        /* \"#utility.yul\":19197:19264   */\n      tag_441\n        /* \"#utility.yul\":19257:19263   */\n      dup6\n        /* \"#utility.yul\":19250:19255   */\n      dup3\n        /* \"#utility.yul\":19197:19264   */\n      tag_232\n      jump\t// in\n    tag_441:\n        /* \"#utility.yul\":19191:19195   */\n      dup7\n        /* \"#utility.yul\":19184:19265   */\n      sstore\n        /* \"#utility.yul\":19053:19275   */\n      pop\n        /* \"#utility.yul\":18388:19275   */\n      jump(tag_438)\n        /* \"#utility.yul\":18418:19036   */\n    tag_439:\n        /* \"#utility.yul\":18470:18474   */\n      0x1f\n        /* \"#utility.yul\":18466:18475   */\n      not\n        /* \"#utility.yul\":18458:18464   */\n      dup5\n        /* \"#utility.yul\":18454:18476   */\n      and\n        /* \"#utility.yul\":18504:18541   */\n      tag_442\n        /* \"#utility.yul\":18536:18540   */\n      dup7\n        /* \"#utility.yul\":18504:18541   */\n      tag_218\n      jump\t// in\n    tag_442:\n        /* \"#utility.yul\":18563:18564   */\n      0x00\n        /* \"#utility.yul\":18577:18785   */\n    tag_443:\n        /* \"#utility.yul\":18591:18598   */\n      dup3\n        /* \"#utility.yul\":18588:18589   */\n      dup2\n        /* \"#utility.yul\":18585:18599   */\n      lt\n        /* \"#utility.yul\":18577:18785   */\n      iszero\n      tag_445\n      jumpi\n        /* \"#utility.yul\":18670:18679   */\n      dup5\n        /* \"#utility.yul\":18665:18668   */\n      dup10\n        /* \"#utility.yul\":18661:18680   */\n      add\n        /* \"#utility.yul\":18655:18681   */\n      mload\n        /* \"#utility.yul\":18647:18653   */\n      dup3\n        /* \"#utility.yul\":18640:18682   */\n      sstore\n        /* \"#utility.yul\":18721:18722   */\n      0x01\n        /* \"#utility.yul\":18713:18719   */\n      dup3\n        /* \"#utility.yul\":18709:18723   */\n      add\n        /* \"#utility.yul\":18699:18723   */\n      swap2\n      pop\n        /* \"#utility.yul\":18768:18770   */\n      0x20\n        /* \"#utility.yul\":18757:18766   */\n      dup6\n        /* \"#utility.yul\":18753:18771   */\n      add\n        /* \"#utility.yul\":18740:18771   */\n      swap5\n      pop\n        /* \"#utility.yul\":18614:18618   */\n      0x20\n        /* \"#utility.yul\":18611:18612   */\n      dup2\n        /* \"#utility.yul\":18607:18619   */\n      add\n        /* \"#utility.yul\":18602:18619   */\n      swap1\n      pop\n        /* \"#utility.yul\":18577:18785   */\n      jump(tag_443)\n    tag_445:\n        /* \"#utility.yul\":18813:18819   */\n      dup7\n        /* \"#utility.yul\":18804:18811   */\n      dup4\n        /* \"#utility.yul\":18801:18820   */\n      lt\n        /* \"#utility.yul\":18798:18977   */\n      iszero\n      tag_446\n      jumpi\n        /* \"#utility.yul\":18871:18880   */\n      dup5\n        /* \"#utility.yul\":18866:18869   */\n      dup10\n        /* \"#utility.yul\":18862:18881   */\n      add\n        /* \"#utility.yul\":18856:18882   */\n      mload\n        /* \"#utility.yul\":18914:18962   */\n      tag_447\n        /* \"#utility.yul\":18956:18960   */\n      0x1f\n        /* \"#utility.yul\":18948:18954   */\n      dup10\n        /* \"#utility.yul\":18944:18961   */\n      and\n        /* \"#utility.yul\":18933:18942   */\n      dup3\n        /* \"#utility.yul\":18914:18962   */\n      tag_231\n      jump\t// in\n    tag_447:\n        /* \"#utility.yul\":18906:18912   */\n      dup4\n        /* \"#utility.yul\":18899:18963   */\n      sstore\n        /* \"#utility.yul\":18821:18977   */\n      pop\n        /* \"#utility.yul\":18798:18977   */\n    tag_446:\n        /* \"#utility.yul\":19023:19024   */\n      0x01\n        /* \"#utility.yul\":19019:19020   */\n      0x02\n        /* \"#utility.yul\":19011:19017   */\n      dup9\n        /* \"#utility.yul\":19007:19021   */\n      mul\n        /* \"#utility.yul\":19003:19025   */\n      add\n        /* \"#utility.yul\":18997:19001   */\n      dup9\n        /* \"#utility.yul\":18990:19026   */\n      sstore\n        /* \"#utility.yul\":18425:19036   */\n      pop\n      pop\n      pop\n        /* \"#utility.yul\":18388:19275   */\n    tag_438:\n      pop\n        /* \"#utility.yul\":17978:19281   */\n      pop\n      pop\n      pop\n        /* \"#utility.yul\":17886:19281   */\n      pop\n      pop\n      jump\t// out\n        /* \"#utility.yul\":19287:19729   */\n    tag_112:\n        /* \"#utility.yul\":19436:19440   */\n      0x00\n        /* \"#utility.yul\":19474:19476   */\n      0x60\n        /* \"#utility.yul\":19463:19472   */\n      dup3\n        /* \"#utility.yul\":19459:19477   */\n      add\n        /* \"#utility.yul\":19451:19477   */\n      swap1\n      pop\n        /* \"#utility.yul\":19487:19558   */\n      tag_449\n        /* \"#utility.yul\":19555:19556   */\n      0x00\n        /* \"#utility.yul\":19544:19553   */\n      dup4\n        /* \"#utility.yul\":19540:19557   */\n      add\n        /* \"#utility.yul\":19531:19537   */\n      dup7\n        /* \"#utility.yul\":19487:19558   */\n      tag_209\n      jump\t// in\n    tag_449:\n        /* \"#utility.yul\":19568:19640   */\n      tag_450\n        /* \"#utility.yul\":19636:19638   */\n      0x20\n        /* \"#utility.yul\":19625:19634   */\n      dup4\n        /* \"#utility.yul\":19621:19639   */\n      add\n        /* \"#utility.yul\":19612:19618   */\n      dup6\n        /* \"#utility.yul\":19568:19640   */\n      tag_209\n      jump\t// in\n    tag_450:\n        /* \"#utility.yul\":19650:19722   */\n      tag_451\n        /* \"#utility.yul\":19718:19720   */\n      0x40\n        /* \"#utility.yul\":19707:19716   */\n      dup4\n        /* \"#utility.yul\":19703:19721   */\n      add\n        /* \"#utility.yul\":19694:19700   */\n      dup5\n        /* \"#utility.yul\":19650:19722   */\n      tag_208\n      jump\t// in\n    tag_451:\n        /* \"#utility.yul\":19287:19729   */\n      swap5\n      swap4\n      pop\n      pop\n      pop\n      pop\n      jump\t// out\n        /* \"#utility.yul\":19735:19825   */\n    tag_233:\n        /* \"#utility.yul\":19769:19776   */\n      0x00\n        /* \"#utility.yul\":19812:19817   */\n      dup2\n        /* \"#utility.yul\":19805:19818   */\n      iszero\n        /* \"#utility.yul\":19798:19819   */\n      iszero\n        /* \"#utility.yul\":19787:19819   */\n      swap1\n      pop\n        /* \"#utility.yul\":19735:19825   */\n      swap2\n      swap1\n      pop\n      jump\t// out\n        /* \"#utility.yul\":19831:19947   */\n    tag_234:\n        /* \"#utility.yul\":19901:19922   */\n      tag_454\n        /* \"#utility.yul\":19916:19921   */\n      dup2\n        /* \"#utility.yul\":19901:19922   */\n      tag_233\n      jump\t// in\n    tag_454:\n        /* \"#utility.yul\":19894:19899   */\n      dup2\n        /* \"#utility.yul\":19891:19923   */\n      eq\n        /* \"#utility.yul\":19881:19941   */\n      tag_455\n      jumpi\n        /* \"#utility.yul\":19937:19938   */\n      0x00\n        /* \"#utility.yul\":19934:19935   */\n      dup1\n        /* \"#utility.yul\":19927:19939   */\n      revert\n        /* \"#utility.yul\":19881:19941   */\n    tag_455:\n        /* \"#utility.yul\":19831:19947   */\n      pop\n      jump\t// out\n        /* \"#utility.yul\":19953:20090   */\n    tag_235:\n        /* \"#utility.yul\":20007:20012   */\n      0x00\n        /* \"#utility.yul\":20038:20044   */\n      dup2\n        /* \"#utility.yul\":20032:20045   */\n      mload\n        /* \"#utility.yul\":20023:20045   */\n      swap1\n      pop\n        /* \"#utility.yul\":20054:20084   */\n      tag_457\n        /* \"#utility.yul\":20078:20083   */\n      dup2\n        /* \"#utility.yul\":20054:20084   */\n      tag_234\n      jump\t// in\n    tag_457:\n        /* \"#utility.yul\":19953:20090   */\n      swap3\n      swap2\n      pop\n      pop\n      jump\t// out\n        /* \"#utility.yul\":20096:20441   */\n    tag_116:\n        /* \"#utility.yul\":20163:20169   */\n      0x00\n        /* \"#utility.yul\":20212:20214   */\n      0x20\n        /* \"#utility.yul\":20200:20209   */\n      dup3\n        /* \"#utility.yul\":20191:20198   */\n      dup5\n        /* \"#utility.yul\":20187:20210   */\n      sub\n        /* \"#utility.yul\":20183:20215   */\n      slt\n        /* \"#utility.yul\":20180:20299   */\n      iszero\n      tag_459\n      jumpi\n        /* \"#utility.yul\":20218:20297   */\n      tag_460\n      tag_185\n      jump\t// in\n    tag_460:\n        /* \"#utility.yul\":20180:20299   */\n    tag_459:\n        /* \"#utility.yul\":20338:20339   */\n      0x00\n        /* \"#utility.yul\":20363:20424   */\n      tag_461\n        /* \"#utility.yul\":20416:20423   */\n      dup5\n        /* \"#utility.yul\":20407:20413   */\n      dup3\n        /* \"#utility.yul\":20396:20405   */\n      dup6\n        /* \"#utility.yul\":20392:20414   */\n      add\n        /* \"#utility.yul\":20363:20424   */\n      tag_235\n      jump\t// in\n    tag_461:\n        /* \"#utility.yul\":20353:20424   */\n      swap2\n      pop\n        /* \"#utility.yul\":20309:20434   */\n      pop\n        /* \"#utility.yul\":20096:20441   */\n      swap3\n      swap2\n      pop\n      pop\n      jump\t// out\n        /* \"#utility.yul\":20447:20779   */\n    tag_122:\n        /* \"#utility.yul\":20568:20572   */\n      0x00\n        /* \"#utility.yul\":20606:20608   */\n      0x40\n        /* \"#utility.yul\":20595:20604   */\n      dup3\n        /* \"#utility.yul\":20591:20609   */\n      add\n        /* \"#utility.yul\":20583:20609   */\n      swap1\n      pop\n        /* \"#utility.yul\":20619:20690   */\n      tag_463\n        /* \"#utility.yul\":20687:20688   */\n      0x00\n        /* \"#utility.yul\":20676:20685   */\n      dup4\n        /* \"#utility.yul\":20672:20689   */\n      add\n        /* \"#utility.yul\":20663:20669   */\n      dup6\n        /* \"#utility.yul\":20619:20690   */\n      tag_209\n      jump\t// in\n    tag_463:\n        /* \"#utility.yul\":20700:20772   */\n      tag_464\n        /* \"#utility.yul\":20768:20770   */\n      0x20\n        /* \"#utility.yul\":20757:20766   */\n      dup4\n        /* \"#utility.yul\":20753:20771   */\n      add\n        /* \"#utility.yul\":20744:20750   */\n      dup5\n        /* \"#utility.yul\":20700:20772   */\n      tag_208\n      jump\t// in\n    tag_464:\n        /* \"#utility.yul\":20447:20779   */\n      swap4\n      swap3\n      pop\n      pop\n      pop\n      jump\t// out\n        /* \"#utility.yul\":20785:21011   */\n    tag_236:\n        /* \"#utility.yul\":20925:20959   */\n      0x467265657a696e6720616d6f756e74206973206c657373207468616e20617661\n        /* \"#utility.yul\":20921:20922   */\n      0x00\n        /* \"#utility.yul\":20913:20919   */\n      dup3\n        /* \"#utility.yul\":20909:20923   */\n      add\n        /* \"#utility.yul\":20902:20960   */\n      mstore\n        /* \"#utility.yul\":20994:21003   */\n      0x696c61626c652e00000000000000000000000000000000000000000000000000\n        /* \"#utility.yul\":20989:20991   */\n      0x20\n        /* \"#utility.yul\":20981:20987   */\n      dup3\n        /* \"#utility.yul\":20977:20992   */\n      add\n        /* \"#utility.yul\":20970:21004   */\n      mstore\n        /* \"#utility.yul\":20785:21011   */\n      pop\n      jump\t// out\n        /* \"#utility.yul\":21017:21383   */\n    tag_237:\n        /* \"#utility.yul\":21159:21162   */\n      0x00\n        /* \"#utility.yul\":21180:21247   */\n      tag_467\n        /* \"#utility.yul\":21244:21246   */\n      0x27\n        /* \"#utility.yul\":21239:21242   */\n      dup4\n        /* \"#utility.yul\":21180:21247   */\n      tag_198\n      jump\t// in\n    tag_467:\n        /* \"#utility.yul\":21173:21247   */\n      swap2\n      pop\n        /* \"#utility.yul\":21256:21349   */\n      tag_468\n        /* \"#utility.yul\":21345:21348   */\n      dup3\n        /* \"#utility.yul\":21256:21349   */\n      tag_236\n      jump\t// in\n    tag_468:\n        /* \"#utility.yul\":21374:21376   */\n      0x40\n        /* \"#utility.yul\":21369:21372   */\n      dup3\n        /* \"#utility.yul\":21365:21377   */\n      add\n        /* \"#utility.yul\":21358:21377   */\n      swap1\n      pop\n        /* \"#utility.yul\":21017:21383   */\n      swap2\n      swap1\n      pop\n      jump\t// out\n        /* \"#utility.yul\":21389:21808   */\n    tag_165:\n        /* \"#utility.yul\":21555:21559   */\n      0x00\n        /* \"#utility.yul\":21593:21595   */\n      0x20\n        /* \"#utility.yul\":21582:21591   */\n      dup3\n        /* \"#utility.yul\":21578:21596   */\n      add\n        /* \"#utility.yul\":21570:21596   */\n      swap1\n      pop\n        /* \"#utility.yul\":21642:21651   */\n      dup2\n        /* \"#utility.yul\":21636:21640   */\n      dup2\n        /* \"#utility.yul\":21632:21652   */\n      sub\n        /* \"#utility.yul\":21628:21629   */\n      0x00\n        /* \"#utility.yul\":21617:21626   */\n      dup4\n        /* \"#utility.yul\":21613:21630   */\n      add\n        /* \"#utility.yul\":21606:21653   */\n      mstore\n        /* \"#utility.yul\":21670:21801   */\n      tag_470\n        /* \"#utility.yul\":21796:21800   */\n      dup2\n        /* \"#utility.yul\":21670:21801   */\n      tag_237\n      jump\t// in\n    tag_470:\n        /* \"#utility.yul\":21662:21801   */\n      swap1\n      pop\n        /* \"#utility.yul\":21389:21808   */\n      swap2\n      swap1\n      pop\n      jump\t// out\n        /* \"#utility.yul\":21814:21990   */\n    tag_238:\n        /* \"#utility.yul\":21954:21982   */\n      0x467265657a696e6720616d6f756e74206973206e6f207a72656f000000000000\n        /* \"#utility.yul\":21950:21951   */\n      0x00\n        /* \"#utility.yul\":21942:21948   */\n      dup3\n        /* \"#utility.yul\":21938:21952   */\n      add\n        /* \"#utility.yul\":21931:21983   */\n      mstore\n        /* \"#utility.yul\":21814:21990   */\n      pop\n      jump\t// out\n        /* \"#utility.yul\":21996:22362   */\n    tag_239:\n        /* \"#utility.yul\":22138:22141   */\n      0x00\n        /* \"#utility.yul\":22159:22226   */\n      tag_473\n        /* \"#utility.yul\":22223:22225   */\n      0x1a\n        /* \"#utility.yul\":22218:22221   */\n      dup4\n        /* \"#utility.yul\":22159:22226   */\n      tag_198\n      jump\t// in\n    tag_473:\n        /* \"#utility.yul\":22152:22226   */\n      swap2\n      pop\n        /* \"#utility.yul\":22235:22328   */\n      tag_474\n        /* \"#utility.yul\":22324:22327   */\n      dup3\n        /* \"#utility.yul\":22235:22328   */\n      tag_238\n      jump\t// in\n    tag_474:\n        /* \"#utility.yul\":22353:22355   */\n      0x20\n        /* \"#utility.yul\":22348:22351   */\n      dup3\n        /* \"#utility.yul\":22344:22356   */\n      add\n        /* \"#utility.yul\":22337:22356   */\n      swap1\n      pop\n        /* \"#utility.yul\":21996:22362   */\n      swap2\n      swap1\n      pop\n      jump\t// out\n        /* \"#utility.yul\":22368:22787   */\n    tag_168:\n        /* \"#utility.yul\":22534:22538   */\n      0x00\n        /* \"#utility.yul\":22572:22574   */\n      0x20\n        /* \"#utility.yul\":22561:22570   */\n      dup3\n        /* \"#utility.yul\":22557:22575   */\n      add\n        /* \"#utility.yul\":22549:22575   */\n      swap1\n      pop\n        /* \"#utility.yul\":22621:22630   */\n      dup2\n        /* \"#utility.yul\":22615:22619   */\n      dup2\n        /* \"#utility.yul\":22611:22631   */\n      sub\n        /* \"#utility.yul\":22607:22608   */\n      0x00\n        /* \"#utility.yul\":22596:22605   */\n      dup4\n        /* \"#utility.yul\":22592:22609   */\n      add\n        /* \"#utility.yul\":22585:22632   */\n      mstore\n        /* \"#utility.yul\":22649:22780   */\n      tag_476\n        /* \"#utility.yul\":22775:22779   */\n      dup2\n        /* \"#utility.yul\":22649:22780   */\n      tag_239\n      jump\t// in\n    tag_476:\n        /* \"#utility.yul\":22641:22780   */\n      swap1\n      pop\n        /* \"#utility.yul\":22368:22787   */\n      swap2\n      swap1\n      pop\n      jump\t// out\n\n    auxdata: 0xa2646970667358221220aae09e185245aa2d941d57b51010fffd517c820f8b8f1dc77b96a175c7e6d9fa64736f6c634300081a0033\n}\n",
				"bytecode": {
					"linkReferences": {},
					"object": "60c060405234801561000f575f80fd5b5060405161230a38038061230a833981810160405281019061003191906100fd565b3373ffffffffffffffffffffffffffffffffffffffff1660808173ffffffffffffffffffffffffffffffffffffffff16815250508073ffffffffffffffffffffffffffffffffffffffff1660a08173ffffffffffffffffffffffffffffffffffffffff168152505050610128565b5f80fd5b5f73ffffffffffffffffffffffffffffffffffffffff82169050919050565b5f6100cc826100a3565b9050919050565b6100dc816100c2565b81146100e6575f80fd5b50565b5f815190506100f7816100d3565b92915050565b5f602082840312156101125761011161009f565b5b5f61011f848285016100e9565b91505092915050565b60805160a05161219061017a5f395f818161067e0152818161085201528181610c33015261143501525f81816103f7015281816109b601528181610ad501528181610ecd015261104c01526121905ff3fe608060405234801561000f575f80fd5b50600436106100fd575f3560e01c80637feab38011610095578063d060650711610064578063d060650714610280578063d107a5cc1461029c578063d62b58ca146102b8578063eb5a662e146102d4576100fd565b80637feab380146102095780638eae8d53146102135780639fa637a81461022f578063adfd3a5f14610264576100fd565b806369524d31116100d157806369524d311461018557806369a83c84146101a15780636c586a06146101d1578063733da7c8146101ed576100fd565b80623997bd1461010157806319ec73e0146101315780634fe191251461014d57806368b377ca14610169575b5f80fd5b61011b600480360381019061011691906116a4565b610304565b604051610128919061174b565b60405180910390f35b61014b600480360381019061014691906117f8565b6103f5565b005b61016760048036038101906101629190611836565b6105e7565b005b610183600480360381019061017e91906118ac565b61065a565b005b61019f600480360381019061019a91906116a4565b6107a7565b005b6101bb60048036038101906101b69190611934565b61096e565b6040516101c8919061196e565b60405180910390f35b6101eb60048036038101906101e691906117f8565b6109b4565b005b610207600480360381019061020291906117f8565b610ad3565b005b610211610baf565b005b61022d60048036038101906102289190611987565b610d4a565b005b610249600480360381019061024491906116a4565b610e52565b60405161025b96959493929190611a3b565b60405180910390f35b61027e60048036038101906102799190611934565b610ecb565b005b61029a60048036038101906102959190611836565b610fd7565b005b6102b660048036038101906102b191906117f8565b61104a565b005b6102d260048036038101906102cd9190611a9a565b61123c565b005b6102ee60048036038101906102e99190611934565b611511565b6040516102fb919061196e565b60405180910390f35b60605f6003836040516103179190611b40565b90815260200160405180910390209050806007015f3373ffffffffffffffffffffffffffffffffffffffff1673ffffffffffffffffffffffffffffffffffffffff1681526020019081526020015f20805461037190611b83565b80601f016020809104026020016040519081016040528092919081815260200182805461039d90611b83565b80156103e85780601f106103bf576101008083540402835291602001916103e8565b820191905f5260205f20905b8154815290600101906020018083116103cb57829003601f168201915b5050505050915050919050565b7f000000000000000000000000000000000000000000000000000000000000000073ffffffffffffffffffffffffffffffffffffffff163373ffffffffffffffffffffffffffffffffffffffff161461047a576040517fcf84d5e300000000000000000000000000000000000000000000000000000000815260040160405180910390fd5b8060025f8473ffffffffffffffffffffffffffffffffffffffff1673ffffffffffffffffffffffffffffffffffffffff1681526020019081526020015f205411156104fa576040517f08c379a00000000000000000000000000000000000000000000000000000000081526004016104f190611c23565b60405180910390fd5b5f81101561053d576040517f08c379a000000000000000000000000000000000000000000000000000000000815260040161053490611c8b565b60405180910390fd5b8060015f8473ffffffffffffffffffffffffffffffffffffffff1673ffffffffffffffffffffffffffffffffffffffff1681526020019081526020015f205f8282546105899190611cd6565b925050819055508060025f8473ffffffffffffffffffffffffffffffffffffffff1673ffffffffffffffffffffffffffffffffffffffff1681526020019081526020015f205f8282546105dc9190611d09565b925050819055505050565b5f6003836040516105f89190611b40565b9081526020016040518091039020905081816008015f3373ffffffffffffffffffffffffffffffffffffffff1673ffffffffffffffffffffffffffffffffffffffff1681526020019081526020015f2090816106549190611ed9565b50505050565b5f60038460405161066b9190611b40565b908152602001604051809103902090505f7f000000000000000000000000000000000000000000000000000000000000000073ffffffffffffffffffffffffffffffffffffffff166323b872dd3330876040518463ffffffff1660e01b81526004016106d993929190611fa8565b6020604051808303815f875af11580156106f5573d5f803e3d5ffd5b505050506040513d601f19601f820116820180604052508101906107199190612012565b905080610752576040517f43280ec900000000000000000000000000000000000000000000000000000000815260040160405180910390fd5b83826006015f3373ffffffffffffffffffffffffffffffffffffffff1673ffffffffffffffffffffffffffffffffffffffff1681526020019081526020015f20819055506107a08584610fd7565b5050505050565b5f6003826040516107b89190611b40565b908152602001604051809103902090505f816006015f3373ffffffffffffffffffffffffffffffffffffffff1673ffffffffffffffffffffffffffffffffffffffff1681526020019081526020015f205490505f826006015f3373ffffffffffffffffffffffffffffffffffffffff1673ffffffffffffffffffffffffffffffffffffffff1681526020019081526020015f20819055505f7f000000000000000000000000000000000000000000000000000000000000000073ffffffffffffffffffffffffffffffffffffffff1663a9059cbb33846040518363ffffffff1660e01b81526004016108ab92919061203d565b6020604051808303815f875af11580156108c7573d5f803e3d5ffd5b505050506040513d601f19601f820116820180604052508101906108eb9190612012565b9050806109685781836006015f3373ffffffffffffffffffffffffffffffffffffffff1673ffffffffffffffffffffffffffffffffffffffff1681526020019081526020015f20819055506040517f43280ec900000000000000000000000000000000000000000000000000000000815260040160405180910390fd5b50505050565b5f60025f8373ffffffffffffffffffffffffffffffffffffffff1673ffffffffffffffffffffffffffffffffffffffff1681526020019081526020015f20549050919050565b7f000000000000000000000000000000000000000000000000000000000000000073ffffffffffffffffffffffffffffffffffffffff163373ffffffffffffffffffffffffffffffffffffffff1614610a39576040517fcf84d5e300000000000000000000000000000000000000000000000000000000815260040160405180910390fd5b5f811015610a7c576040517f08c379a0000000000000000000000000000000000000000000000000000000008152600401610a7390611c8b565b60405180910390fd5b8060015f8473ffffffffffffffffffffffffffffffffffffffff1673ffffffffffffffffffffffffffffffffffffffff1681526020019081526020015f205f828254610ac89190611d09565b925050819055505050565b7f000000000000000000000000000000000000000000000000000000000000000073ffffffffffffffffffffffffffffffffffffffff163373ffffffffffffffffffffffffffffffffffffffff1614610b58576040517fcf84d5e300000000000000000000000000000000000000000000000000000000815260040160405180910390fd5b8060015f8473ffffffffffffffffffffffffffffffffffffffff1673ffffffffffffffffffffffffffffffffffffffff1681526020019081526020015f205f828254610ba49190611cd6565b925050819055505050565b5f805f3373ffffffffffffffffffffffffffffffffffffffff1673ffffffffffffffffffffffffffffffffffffffff1681526020019081526020015f205490505f805f3373ffffffffffffffffffffffffffffffffffffffff1673ffffffffffffffffffffffffffffffffffffffff1681526020019081526020015f20819055505f7f000000000000000000000000000000000000000000000000000000000000000073ffffffffffffffffffffffffffffffffffffffff1663a9059cbb33846040518363ffffffff1660e01b8152600401610c8c92919061203d565b6020604051808303815f875af1158015610ca8573d5f803e3d5ffd5b505050506040513d601f19601f82011682018060405250810190610ccc9190612012565b905080610d4657815f803373ffffffffffffffffffffffffffffffffffffffff1673ffffffffffffffffffffffffffffffffffffffff1681526020019081526020015f20819055506040517f43280ec900000000000000000000000000000000000000000000000000000000815260040160405180910390fd5b5050565b5f85111580610d595750828410155b80610d6457505f8211155b80610d6f57505f8111155b80610d7957508482115b15610db0576040517f9821950800000000000000000000000000000000000000000000000000000000815260040160405180910390fd5b5f600387604051610dc19190611b40565b9081526020016040518091039020905033815f015f6101000a81548173ffffffffffffffffffffffffffffffffffffffff021916908373ffffffffffffffffffffffffffffffffffffffff160217905550858160010181905550848160020181905550838160030181905550828160040181905550818160050181905550610e49338761104a565b50505050505050565b5f805f805f805f600388604051610e699190611b40565b90815260200160405180910390209050805f015f9054906101000a900473ffffffffffffffffffffffffffffffffffffffff16816001015482600201548360030154846004015485600501549650965096509650965096505091939550919395565b7f000000000000000000000000000000000000000000000000000000000000000073ffffffffffffffffffffffffffffffffffffffff163373ffffffffffffffffffffffffffffffffffffffff1614610f50576040517fcf84d5e300000000000000000000000000000000000000000000000000000000815260040160405180910390fd5b5f60015f8373ffffffffffffffffffffffffffffffffffffffff1673ffffffffffffffffffffffffffffffffffffffff1681526020019081526020015f20819055505f60025f8373ffffffffffffffffffffffffffffffffffffffff1673ffffffffffffffffffffffffffffffffffffffff1681526020019081526020015f208190555050565b5f600383604051610fe89190611b40565b9081526020016040518091039020905081816007015f3373ffffffffffffffffffffffffffffffffffffffff1673ffffffffffffffffffffffffffffffffffffffff1681526020019081526020015f2090816110449190611ed9565b50505050565b7f000000000000000000000000000000000000000000000000000000000000000073ffffffffffffffffffffffffffffffffffffffff163373ffffffffffffffffffffffffffffffffffffffff16146110cf576040517fcf84d5e300000000000000000000000000000000000000000000000000000000815260040160405180910390fd5b8060015f8473ffffffffffffffffffffffffffffffffffffffff1673ffffffffffffffffffffffffffffffffffffffff1681526020019081526020015f2054101561114f576040517f08c379a0000000000000000000000000000000000000000000000000000000008152600401611146906120d4565b60405180910390fd5b5f811015611192576040517f08c379a00000000000000000000000000000000000000000000000000000000081526004016111899061213c565b60405180910390fd5b8060015f8473ffffffffffffffffffffffffffffffffffffffff1673ffffffffffffffffffffffffffffffffffffffff1681526020019081526020015f205f8282546111de9190611d09565b925050819055508060025f8473ffffffffffffffffffffffffffffffffffffffff1673ffffffffffffffffffffffffffffffffffffffff1681526020019081526020015f205f8282546112319190611cd6565b925050819055505050565b5f60038460405161124d9190611b40565b90815260200160405180910390206006015f3373ffffffffffffffffffffffffffffffffffffffff1673ffffffffffffffffffffffffffffffffffffffff1681526020019081526020015f205490505f6003856040516112ad9190611b40565b90815260200160405180910390206006015f3373ffffffffffffffffffffffffffffffffffffffff1673ffffffffffffffffffffffffffffffffffffffff1681526020019081526020015f20819055505f60038560405161130e9190611b40565b90815260200160405180910390205f015f9054906101000a900473ffffffffffffffffffffffffffffffffffffffff169050828261134c9190611cd6565b5f808373ffffffffffffffffffffffffffffffffffffffff1673ffffffffffffffffffffffffffffffffffffffff1681526020019081526020015f205f8282546113969190611cd6565b925050819055505f60025f8373ffffffffffffffffffffffffffffffffffffffff1673ffffffffffffffffffffffffffffffffffffffff1681526020019081526020015f20819055508360015f3373ffffffffffffffffffffffffffffffffffffffff1673ffffffffffffffffffffffffffffffffffffffff1681526020019081526020015f205f82825461142b9190611cd6565b925050819055505f7f000000000000000000000000000000000000000000000000000000000000000073ffffffffffffffffffffffffffffffffffffffff166323b872dd3330876040518463ffffffff1660e01b815260040161149093929190611fa8565b6020604051808303815f875af11580156114ac573d5f803e3d5ffd5b505050506040513d601f19601f820116820180604052508101906114d09190612012565b905080611509576040517f43280ec900000000000000000000000000000000000000000000000000000000815260040160405180910390fd5b505050505050565b5f60015f8373ffffffffffffffffffffffffffffffffffffffff1673ffffffffffffffffffffffffffffffffffffffff1681526020019081526020015f20549050919050565b5f604051905090565b5f80fd5b5f80fd5b5f80fd5b5f80fd5b5f601f19601f8301169050919050565b7f4e487b71000000000000000000000000000000000000000000000000000000005f52604160045260245ffd5b6115b682611570565b810181811067ffffffffffffffff821117156115d5576115d4611580565b5b80604052505050565b5f6115e7611557565b90506115f382826115ad565b919050565b5f67ffffffffffffffff82111561161257611611611580565b5b61161b82611570565b9050602081019050919050565b828183375f83830152505050565b5f611648611643846115f8565b6115de565b9050828152602081018484840111156116645761166361156c565b5b61166f848285611628565b509392505050565b5f82601f83011261168b5761168a611568565b5b813561169b848260208601611636565b91505092915050565b5f602082840312156116b9576116b8611560565b5b5f82013567ffffffffffffffff8111156116d6576116d5611564565b5b6116e284828501611677565b91505092915050565b5f81519050919050565b5f82825260208201905092915050565b8281835e5f83830152505050565b5f61171d826116eb565b61172781856116f5565b9350611737818560208601611705565b61174081611570565b840191505092915050565b5f6020820190508181035f8301526117638184611713565b905092915050565b5f73ffffffffffffffffffffffffffffffffffffffff82169050919050565b5f6117948261176b565b9050919050565b6117a48161178a565b81146117ae575f80fd5b50565b5f813590506117bf8161179b565b92915050565b5f819050919050565b6117d7816117c5565b81146117e1575f80fd5b50565b5f813590506117f2816117ce565b92915050565b5f806040838503121561180e5761180d611560565b5b5f61181b858286016117b1565b925050602061182c858286016117e4565b9150509250929050565b5f806040838503121561184c5761184b611560565b5b5f83013567ffffffffffffffff81111561186957611868611564565b5b61187585828601611677565b925050602083013567ffffffffffffffff81111561189657611895611564565b5b6118a285828601611677565b9150509250929050565b5f805f606084860312156118c3576118c2611560565b5b5f84013567ffffffffffffffff8111156118e0576118df611564565b5b6118ec86828701611677565b93505060206118fd868287016117e4565b925050604084013567ffffffffffffffff81111561191e5761191d611564565b5b61192a86828701611677565b9150509250925092565b5f6020828403121561194957611948611560565b5b5f611956848285016117b1565b91505092915050565b611968816117c5565b82525050565b5f6020820190506119815f83018461195f565b92915050565b5f805f805f8060c087890312156119a1576119a0611560565b5b5f87013567ffffffffffffffff8111156119be576119bd611564565b5b6119ca89828a01611677565b96505060206119db89828a016117e4565b95505060406119ec89828a016117e4565b94505060606119fd89828a016117e4565b9350506080611a0e89828a016117e4565b92505060a0611a1f89828a016117e4565b9150509295509295509295565b611a358161178a565b82525050565b5f60c082019050611a4e5f830189611a2c565b611a5b602083018861195f565b611a68604083018761195f565b611a75606083018661195f565b611a82608083018561195f565b611a8f60a083018461195f565b979650505050505050565b5f805f60608486031215611ab157611ab0611560565b5b5f84013567ffffffffffffffff811115611ace57611acd611564565b5b611ada86828701611677565b9350506020611aeb868287016117e4565b9250506040611afc868287016117e4565b9150509250925092565b5f81905092915050565b5f611b1a826116eb565b611b248185611b06565b9350611b34818560208601611705565b80840191505092915050565b5f611b4b8284611b10565b915081905092915050565b7f4e487b71000000000000000000000000000000000000000000000000000000005f52602260045260245ffd5b5f6002820490506001821680611b9a57607f821691505b602082108103611bad57611bac611b56565b5b50919050565b7f756e467265657a696e6720616d6f756e742069732067726561746572207468615f8201527f6e20617661696c61626c652e0000000000000000000000000000000000000000602082015250565b5f611c0d602c836116f5565b9150611c1882611bb3565b604082019050919050565b5f6020820190508181035f830152611c3a81611c01565b9050919050565b7f756e467265657a696e6720616d6f756e74206973206e6f207a72656f000000005f82015250565b5f611c75601c836116f5565b9150611c8082611c41565b602082019050919050565b5f6020820190508181035f830152611ca281611c69565b9050919050565b7f4e487b71000000000000000000000000000000000000000000000000000000005f52601160045260245ffd5b5f611ce0826117c5565b9150611ceb836117c5565b9250828201905080821115611d0357611d02611ca9565b5b92915050565b5f611d13826117c5565b9150611d1e836117c5565b9250828203905081811115611d3657611d35611ca9565b5b92915050565b5f819050815f5260205f209050919050565b5f6020601f8301049050919050565b5f82821b905092915050565b5f60088302611d987fffffffffffffffffffffffffffffffffffffffffffffffffffffffffffffffff82611d5d565b611da28683611d5d565b95508019841693508086168417925050509392505050565b5f819050919050565b5f611ddd611dd8611dd3846117c5565b611dba565b6117c5565b9050919050565b5f819050919050565b611df683611dc3565b611e0a611e0282611de4565b848454611d69565b825550505050565b5f90565b611e1e611e12565b611e29818484611ded565b505050565b5b81811015611e4c57611e415f82611e16565b600181019050611e2f565b5050565b601f821115611e9157611e6281611d3c565b611e6b84611d4e565b81016020851015611e7a578190505b611e8e611e8685611d4e565b830182611e2e565b50505b505050565b5f82821c905092915050565b5f611eb15f1984600802611e96565b1980831691505092915050565b5f611ec98383611ea2565b9150826002028217905092915050565b611ee2826116eb565b67ffffffffffffffff811115611efb57611efa611580565b5b611f058254611b83565b611f10828285611e50565b5f60209050601f831160018114611f41575f8415611f2f578287015190505b611f398582611ebe565b865550611fa0565b601f198416611f4f86611d3c565b5f5b82811015611f7657848901518255600182019150602085019450602081019050611f51565b86831015611f935784890151611f8f601f891682611ea2565b8355505b6001600288020188555050505b505050505050565b5f606082019050611fbb5f830186611a2c565b611fc86020830185611a2c565b611fd5604083018461195f565b949350505050565b5f8115159050919050565b611ff181611fdd565b8114611ffb575f80fd5b50565b5f8151905061200c81611fe8565b92915050565b5f6020828403121561202757612026611560565b5b5f61203484828501611ffe565b91505092915050565b5f6040820190506120505f830185611a2c565b61205d602083018461195f565b9392505050565b7f467265657a696e6720616d6f756e74206973206c657373207468616e206176615f8201527f696c61626c652e00000000000000000000000000000000000000000000000000602082015250565b5f6120be6027836116f5565b91506120c982612064565b604082019050919050565b5f6020820190508181035f8301526120eb816120b2565b9050919050565b7f467265657a696e6720616d6f756e74206973206e6f207a72656f0000000000005f82015250565b5f612126601a836116f5565b9150612131826120f2565b602082019050919050565b5f6020820190508181035f8301526121538161211a565b905091905056fea2646970667358221220aae09e185245aa2d941d57b51010fffd517c820f8b8f1dc77b96a175c7e6d9fa64736f6c634300081a0033",
					"opcodes": "PUSH1 0xC0 PUSH1 0x40 MSTORE CALLVALUE DUP1 ISZERO PUSH2 0xF JUMPI PUSH0 DUP1 REVERT JUMPDEST POP PUSH1 0x40 MLOAD PUSH2 0x230A CODESIZE SUB DUP1 PUSH2 0x230A DUP4 CODECOPY DUP2 DUP2 ADD PUSH1 0x40 MSTORE DUP2 ADD SWAP1 PUSH2 0x31 SWAP2 SWAP1 PUSH2 0xFD JUMP JUMPDEST CALLER PUSH20 0xFFFFFFFFFFFFFFFFFFFFFFFFFFFFFFFFFFFFFFFF AND PUSH1 0x80 DUP2 PUSH20 0xFFFFFFFFFFFFFFFFFFFFFFFFFFFFFFFFFFFFFFFF AND DUP2 MSTORE POP POP DUP1 PUSH20 0xFFFFFFFFFFFFFFFFFFFFFFFFFFFFFFFFFFFFFFFF AND PUSH1 0xA0 DUP2 PUSH20 0xFFFFFFFFFFFFFFFFFFFFFFFFFFFFFFFFFFFFFFFF AND DUP2 MSTORE POP POP POP PUSH2 0x128 JUMP JUMPDEST PUSH0 DUP1 REVERT JUMPDEST PUSH0 PUSH20 0xFFFFFFFFFFFFFFFFFFFFFFFFFFFFFFFFFFFFFFFF DUP3 AND SWAP1 POP SWAP2 SWAP1 POP JUMP JUMPDEST PUSH0 PUSH2 0xCC DUP3 PUSH2 0xA3 JUMP JUMPDEST SWAP1 POP SWAP2 SWAP1 POP JUMP JUMPDEST PUSH2 0xDC DUP2 PUSH2 0xC2 JUMP JUMPDEST DUP2 EQ PUSH2 0xE6 JUMPI PUSH0 DUP1 REVERT JUMPDEST POP JUMP JUMPDEST PUSH0 DUP2 MLOAD SWAP1 POP PUSH2 0xF7 DUP2 PUSH2 0xD3 JUMP JUMPDEST SWAP3 SWAP2 POP POP JUMP JUMPDEST PUSH0 PUSH1 0x20 DUP3 DUP5 SUB SLT ISZERO PUSH2 0x112 JUMPI PUSH2 0x111 PUSH2 0x9F JUMP JUMPDEST JUMPDEST PUSH0 PUSH2 0x11F DUP5 DUP3 DUP6 ADD PUSH2 0xE9 JUMP JUMPDEST SWAP2 POP POP SWAP3 SWAP2 POP POP JUMP JUMPDEST PUSH1 0x80 MLOAD PUSH1 0xA0 MLOAD PUSH2 0x2190 PUSH2 0x17A PUSH0 CODECOPY PUSH0 DUP2 DUP2 PUSH2 0x67E ADD MSTORE DUP2 DUP2 PUSH2 0x852 ADD MSTORE DUP2 DUP2 PUSH2 0xC33 ADD MSTORE PUSH2 0x1435 ADD MSTORE PUSH0 DUP2 DUP2 PUSH2 0x3F7 ADD MSTORE DUP2 DUP2 PUSH2 0x9B6 ADD MSTORE DUP2 DUP2 PUSH2 0xAD5 ADD MSTORE DUP2 DUP2 PUSH2 0xECD ADD MSTORE PUSH2 0x104C ADD MSTORE PUSH2 0x2190 PUSH0 RETURN INVALID PUSH1 0x80 PUSH1 0x40 MSTORE CALLVALUE DUP1 ISZERO PUSH2 0xF JUMPI PUSH0 DUP1 REVERT JUMPDEST POP PUSH1 0x4 CALLDATASIZE LT PUSH2 0xFD JUMPI PUSH0 CALLDATALOAD PUSH1 0xE0 SHR DUP1 PUSH4 0x7FEAB380 GT PUSH2 0x95 JUMPI DUP1 PUSH4 0xD0606507 GT PUSH2 0x64 JUMPI DUP1 PUSH4 0xD0606507 EQ PUSH2 0x280 JUMPI DUP1 PUSH4 0xD107A5CC EQ PUSH2 0x29C JUMPI DUP1 PUSH4 0xD62B58CA EQ PUSH2 0x2B8 JUMPI DUP1 PUSH4 0xEB5A662E EQ PUSH2 0x2D4 JUMPI PUSH2 0xFD JUMP JUMPDEST DUP1 PUSH4 0x7FEAB380 EQ PUSH2 0x209 JUMPI DUP1 PUSH4 0x8EAE8D53 EQ PUSH2 0x213 JUMPI DUP1 PUSH4 0x9FA637A8 EQ PUSH2 0x22F JUMPI DUP1 PUSH4 0xADFD3A5F EQ PUSH2 0x264 JUMPI PUSH2 0xFD JUMP JUMPDEST DUP1 PUSH4 0x69524D31 GT PUSH2 0xD1 JUMPI DUP1 PUSH4 0x69524D31 EQ PUSH2 0x185 JUMPI DUP1 PUSH4 0x69A83C84 EQ PUSH2 0x1A1 JUMPI DUP1 PUSH4 0x6C586A06 EQ PUSH2 0x1D1 JUMPI DUP1 PUSH4 0x733DA7C8 EQ PUSH2 0x1ED JUMPI PUSH2 0xFD JUMP JUMPDEST DUP1 PUSH3 0x3997BD EQ PUSH2 0x101 JUMPI DUP1 PUSH4 0x19EC73E0 EQ PUSH2 0x131 JUMPI DUP1 PUSH4 0x4FE19125 EQ PUSH2 0x14D JUMPI DUP1 PUSH4 0x68B377CA EQ PUSH2 0x169 JUMPI JUMPDEST PUSH0 DUP1 REVERT JUMPDEST PUSH2 0x11B PUSH1 0x4 DUP1 CALLDATASIZE SUB DUP2 ADD SWAP1 PUSH2 0x116 SWAP2 SWAP1 PUSH2 0x16A4 JUMP JUMPDEST PUSH2 0x304 JUMP JUMPDEST PUSH1 0x40 MLOAD PUSH2 0x128 SWAP2 SWAP1 PUSH2 0x174B JUMP JUMPDEST PUSH1 0x40 MLOAD DUP1 SWAP2 SUB SWAP1 RETURN JUMPDEST PUSH2 0x14B PUSH1 0x4 DUP1 CALLDATASIZE SUB DUP2 ADD SWAP1 PUSH2 0x146 SWAP2 SWAP1 PUSH2 0x17F8 JUMP JUMPDEST PUSH2 0x3F5 JUMP JUMPDEST STOP JUMPDEST PUSH2 0x167 PUSH1 0x4 DUP1 CALLDATASIZE SUB DUP2 ADD SWAP1 PUSH2 0x162 SWAP2 SWAP1 PUSH2 0x1836 JUMP JUMPDEST PUSH2 0x5E7 JUMP JUMPDEST STOP JUMPDEST PUSH2 0x183 PUSH1 0x4 DUP1 CALLDATASIZE SUB DUP2 ADD SWAP1 PUSH2 0x17E SWAP2 SWAP1 PUSH2 0x18AC JUMP JUMPDEST PUSH2 0x65A JUMP JUMPDEST STOP JUMPDEST PUSH2 0x19F PUSH1 0x4 DUP1 CALLDATASIZE SUB DUP2 ADD SWAP1 PUSH2 0x19A SWAP2 SWAP1 PUSH2 0x16A4 JUMP JUMPDEST PUSH2 0x7A7 JUMP JUMPDEST STOP JUMPDEST PUSH2 0x1BB PUSH1 0x4 DUP1 CALLDATASIZE SUB DUP2 ADD SWAP1 PUSH2 0x1B6 SWAP2 SWAP1 PUSH2 0x1934 JUMP JUMPDEST PUSH2 0x96E JUMP JUMPDEST PUSH1 0x40 MLOAD PUSH2 0x1C8 SWAP2 SWAP1 PUSH2 0x196E JUMP JUMPDEST PUSH1 0x40 MLOAD DUP1 SWAP2 SUB SWAP1 RETURN JUMPDEST PUSH2 0x1EB PUSH1 0x4 DUP1 CALLDATASIZE SUB DUP2 ADD SWAP1 PUSH2 0x1E6 SWAP2 SWAP1 PUSH2 0x17F8 JUMP JUMPDEST PUSH2 0x9B4 JUMP JUMPDEST STOP JUMPDEST PUSH2 0x207 PUSH1 0x4 DUP1 CALLDATASIZE SUB DUP2 ADD SWAP1 PUSH2 0x202 SWAP2 SWAP1 PUSH2 0x17F8 JUMP JUMPDEST PUSH2 0xAD3 JUMP JUMPDEST STOP JUMPDEST PUSH2 0x211 PUSH2 0xBAF JUMP JUMPDEST STOP JUMPDEST PUSH2 0x22D PUSH1 0x4 DUP1 CALLDATASIZE SUB DUP2 ADD SWAP1 PUSH2 0x228 SWAP2 SWAP1 PUSH2 0x1987 JUMP JUMPDEST PUSH2 0xD4A JUMP JUMPDEST STOP JUMPDEST PUSH2 0x249 PUSH1 0x4 DUP1 CALLDATASIZE SUB DUP2 ADD SWAP1 PUSH2 0x244 SWAP2 SWAP1 PUSH2 0x16A4 JUMP JUMPDEST PUSH2 0xE52 JUMP JUMPDEST PUSH1 0x40 MLOAD PUSH2 0x25B SWAP7 SWAP6 SWAP5 SWAP4 SWAP3 SWAP2 SWAP1 PUSH2 0x1A3B JUMP JUMPDEST PUSH1 0x40 MLOAD DUP1 SWAP2 SUB SWAP1 RETURN JUMPDEST PUSH2 0x27E PUSH1 0x4 DUP1 CALLDATASIZE SUB DUP2 ADD SWAP1 PUSH2 0x279 SWAP2 SWAP1 PUSH2 0x1934 JUMP JUMPDEST PUSH2 0xECB JUMP JUMPDEST STOP JUMPDEST PUSH2 0x29A PUSH1 0x4 DUP1 CALLDATASIZE SUB DUP2 ADD SWAP1 PUSH2 0x295 SWAP2 SWAP1 PUSH2 0x1836 JUMP JUMPDEST PUSH2 0xFD7 JUMP JUMPDEST STOP JUMPDEST PUSH2 0x2B6 PUSH1 0x4 DUP1 CALLDATASIZE SUB DUP2 ADD SWAP1 PUSH2 0x2B1 SWAP2 SWAP1 PUSH2 0x17F8 JUMP JUMPDEST PUSH2 0x104A JUMP JUMPDEST STOP JUMPDEST PUSH2 0x2D2 PUSH1 0x4 DUP1 CALLDATASIZE SUB DUP2 ADD SWAP1 PUSH2 0x2CD SWAP2 SWAP1 PUSH2 0x1A9A JUMP JUMPDEST PUSH2 0x123C JUMP JUMPDEST STOP JUMPDEST PUSH2 0x2EE PUSH1 0x4 DUP1 CALLDATASIZE SUB DUP2 ADD SWAP1 PUSH2 0x2E9 SWAP2 SWAP1 PUSH2 0x1934 JUMP JUMPDEST PUSH2 0x1511 JUMP JUMPDEST PUSH1 0x40 MLOAD PUSH2 0x2FB SWAP2 SWAP1 PUSH2 0x196E JUMP JUMPDEST PUSH1 0x40 MLOAD DUP1 SWAP2 SUB SWAP1 RETURN JUMPDEST PUSH1 0x60 PUSH0 PUSH1 0x3 DUP4 PUSH1 0x40 MLOAD PUSH2 0x317 SWAP2 SWAP1 PUSH2 0x1B40 JUMP JUMPDEST SWAP1 DUP2 MSTORE PUSH1 0x20 ADD PUSH1 0x40 MLOAD DUP1 SWAP2 SUB SWAP1 KECCAK256 SWAP1 POP DUP1 PUSH1 0x7 ADD PUSH0 CALLER PUSH20 0xFFFFFFFFFFFFFFFFFFFFFFFFFFFFFFFFFFFFFFFF AND PUSH20 0xFFFFFFFFFFFFFFFFFFFFFFFFFFFFFFFFFFFFFFFF AND DUP2 MSTORE PUSH1 0x20 ADD SWAP1 DUP2 MSTORE PUSH1 0x20 ADD PUSH0 KECCAK256 DUP1 SLOAD PUSH2 0x371 SWAP1 PUSH2 0x1B83 JUMP JUMPDEST DUP1 PUSH1 0x1F ADD PUSH1 0x20 DUP1 SWAP2 DIV MUL PUSH1 0x20 ADD PUSH1 0x40 MLOAD SWAP1 DUP2 ADD PUSH1 0x40 MSTORE DUP1 SWAP3 SWAP2 SWAP1 DUP2 DUP2 MSTORE PUSH1 0x20 ADD DUP3 DUP1 SLOAD PUSH2 0x39D SWAP1 PUSH2 0x1B83 JUMP JUMPDEST DUP1 ISZERO PUSH2 0x3E8 JUMPI DUP1 PUSH1 0x1F LT PUSH2 0x3BF JUMPI PUSH2 0x100 DUP1 DUP4 SLOAD DIV MUL DUP4 MSTORE SWAP2 PUSH1 0x20 ADD SWAP2 PUSH2 0x3E8 JUMP JUMPDEST DUP3 ADD SWAP2 SWAP1 PUSH0 MSTORE PUSH1 0x20 PUSH0 KECCAK256 SWAP1 JUMPDEST DUP2 SLOAD DUP2 MSTORE SWAP1 PUSH1 0x1 ADD SWAP1 PUSH1 0x20 ADD DUP1 DUP4 GT PUSH2 0x3CB JUMPI DUP3 SWAP1 SUB PUSH1 0x1F AND DUP3 ADD SWAP2 JUMPDEST POP POP POP POP POP SWAP2 POP POP SWAP2 SWAP1 POP JUMP JUMPDEST PUSH32 0x0 PUSH20 0xFFFFFFFFFFFFFFFFFFFFFFFFFFFFFFFFFFFFFFFF AND CALLER PUSH20 0xFFFFFFFFFFFFFFFFFFFFFFFFFFFFFFFFFFFFFFFF AND EQ PUSH2 0x47A JUMPI PUSH1 0x40 MLOAD PUSH32 0xCF84D5E300000000000000000000000000000000000000000000000000000000 DUP2 MSTORE PUSH1 0x4 ADD PUSH1 0x40 MLOAD DUP1 SWAP2 SUB SWAP1 REVERT JUMPDEST DUP1 PUSH1 0x2 PUSH0 DUP5 PUSH20 0xFFFFFFFFFFFFFFFFFFFFFFFFFFFFFFFFFFFFFFFF AND PUSH20 0xFFFFFFFFFFFFFFFFFFFFFFFFFFFFFFFFFFFFFFFF AND DUP2 MSTORE PUSH1 0x20 ADD SWAP1 DUP2 MSTORE PUSH1 0x20 ADD PUSH0 KECCAK256 SLOAD GT ISZERO PUSH2 0x4FA JUMPI PUSH1 0x40 MLOAD PUSH32 0x8C379A000000000000000000000000000000000000000000000000000000000 DUP2 MSTORE PUSH1 0x4 ADD PUSH2 0x4F1 SWAP1 PUSH2 0x1C23 JUMP JUMPDEST PUSH1 0x40 MLOAD DUP1 SWAP2 SUB SWAP1 REVERT JUMPDEST PUSH0 DUP2 LT ISZERO PUSH2 0x53D JUMPI PUSH1 0x40 MLOAD PUSH32 0x8C379A000000000000000000000000000000000000000000000000000000000 DUP2 MSTORE PUSH1 0x4 ADD PUSH2 0x534 SWAP1 PUSH2 0x1C8B JUMP JUMPDEST PUSH1 0x40 MLOAD DUP1 SWAP2 SUB SWAP1 REVERT JUMPDEST DUP1 PUSH1 0x1 PUSH0 DUP5 PUSH20 0xFFFFFFFFFFFFFFFFFFFFFFFFFFFFFFFFFFFFFFFF AND PUSH20 0xFFFFFFFFFFFFFFFFFFFFFFFFFFFFFFFFFFFFFFFF AND DUP2 MSTORE PUSH1 0x20 ADD SWAP1 DUP2 MSTORE PUSH1 0x20 ADD PUSH0 KECCAK256 PUSH0 DUP3 DUP3 SLOAD PUSH2 0x589 SWAP2 SWAP1 PUSH2 0x1CD6 JUMP JUMPDEST SWAP3 POP POP DUP2 SWAP1 SSTORE POP DUP1 PUSH1 0x2 PUSH0 DUP5 PUSH20 0xFFFFFFFFFFFFFFFFFFFFFFFFFFFFFFFFFFFFFFFF AND PUSH20 0xFFFFFFFFFFFFFFFFFFFFFFFFFFFFFFFFFFFFFFFF AND DUP2 MSTORE PUSH1 0x20 ADD SWAP1 DUP2 MSTORE PUSH1 0x20 ADD PUSH0 KECCAK256 PUSH0 DUP3 DUP3 SLOAD PUSH2 0x5DC SWAP2 SWAP1 PUSH2 0x1D09 JUMP JUMPDEST SWAP3 POP POP DUP2 SWAP1 SSTORE POP POP POP JUMP JUMPDEST PUSH0 PUSH1 0x3 DUP4 PUSH1 0x40 MLOAD PUSH2 0x5F8 SWAP2 SWAP1 PUSH2 0x1B40 JUMP JUMPDEST SWAP1 DUP2 MSTORE PUSH1 0x20 ADD PUSH1 0x40 MLOAD DUP1 SWAP2 SUB SWAP1 KECCAK256 SWAP1 POP DUP2 DUP2 PUSH1 0x8 ADD PUSH0 CALLER PUSH20 0xFFFFFFFFFFFFFFFFFFFFFFFFFFFFFFFFFFFFFFFF AND PUSH20 0xFFFFFFFFFFFFFFFFFFFFFFFFFFFFFFFFFFFFFFFF AND DUP2 MSTORE PUSH1 0x20 ADD SWAP1 DUP2 MSTORE PUSH1 0x20 ADD PUSH0 KECCAK256 SWAP1 DUP2 PUSH2 0x654 SWAP2 SWAP1 PUSH2 0x1ED9 JUMP JUMPDEST POP POP POP POP JUMP JUMPDEST PUSH0 PUSH1 0x3 DUP5 PUSH1 0x40 MLOAD PUSH2 0x66B SWAP2 SWAP1 PUSH2 0x1B40 JUMP JUMPDEST SWAP1 DUP2 MSTORE PUSH1 0x20 ADD PUSH1 0x40 MLOAD DUP1 SWAP2 SUB SWAP1 KECCAK256 SWAP1 POP PUSH0 PUSH32 0x0 PUSH20 0xFFFFFFFFFFFFFFFFFFFFFFFFFFFFFFFFFFFFFFFF AND PUSH4 0x23B872DD CALLER ADDRESS DUP8 PUSH1 0x40 MLOAD DUP5 PUSH4 0xFFFFFFFF AND PUSH1 0xE0 SHL DUP2 MSTORE PUSH1 0x4 ADD PUSH2 0x6D9 SWAP4 SWAP3 SWAP2 SWAP1 PUSH2 0x1FA8 JUMP JUMPDEST PUSH1 0x20 PUSH1 0x40 MLOAD DUP1 DUP4 SUB DUP2 PUSH0 DUP8 GAS CALL ISZERO DUP1 ISZERO PUSH2 0x6F5 JUMPI RETURNDATASIZE PUSH0 DUP1 RETURNDATACOPY RETURNDATASIZE PUSH0 REVERT JUMPDEST POP POP POP POP PUSH1 0x40 MLOAD RETURNDATASIZE PUSH1 0x1F NOT PUSH1 0x1F DUP3 ADD AND DUP3 ADD DUP1 PUSH1 0x40 MSTORE POP DUP2 ADD SWAP1 PUSH2 0x719 SWAP2 SWAP1 PUSH2 0x2012 JUMP JUMPDEST SWAP1 POP DUP1 PUSH2 0x752 JUMPI PUSH1 0x40 MLOAD PUSH32 0x43280EC900000000000000000000000000000000000000000000000000000000 DUP2 MSTORE PUSH1 0x4 ADD PUSH1 0x40 MLOAD DUP1 SWAP2 SUB SWAP1 REVERT JUMPDEST DUP4 DUP3 PUSH1 0x6 ADD PUSH0 CALLER PUSH20 0xFFFFFFFFFFFFFFFFFFFFFFFFFFFFFFFFFFFFFFFF AND PUSH20 0xFFFFFFFFFFFFFFFFFFFFFFFFFFFFFFFFFFFFFFFF AND DUP2 MSTORE PUSH1 0x20 ADD SWAP1 DUP2 MSTORE PUSH1 0x20 ADD PUSH0 KECCAK256 DUP2 SWAP1 SSTORE POP PUSH2 0x7A0 DUP6 DUP5 PUSH2 0xFD7 JUMP JUMPDEST POP POP POP POP POP JUMP JUMPDEST PUSH0 PUSH1 0x3 DUP3 PUSH1 0x40 MLOAD PUSH2 0x7B8 SWAP2 SWAP1 PUSH2 0x1B40 JUMP JUMPDEST SWAP1 DUP2 MSTORE PUSH1 0x20 ADD PUSH1 0x40 MLOAD DUP1 SWAP2 SUB SWAP1 KECCAK256 SWAP1 POP PUSH0 DUP2 PUSH1 0x6 ADD PUSH0 CALLER PUSH20 0xFFFFFFFFFFFFFFFFFFFFFFFFFFFFFFFFFFFFFFFF AND PUSH20 0xFFFFFFFFFFFFFFFFFFFFFFFFFFFFFFFFFFFFFFFF AND DUP2 MSTORE PUSH1 0x20 ADD SWAP1 DUP2 MSTORE PUSH1 0x20 ADD PUSH0 KECCAK256 SLOAD SWAP1 POP PUSH0 DUP3 PUSH1 0x6 ADD PUSH0 CALLER PUSH20 0xFFFFFFFFFFFFFFFFFFFFFFFFFFFFFFFFFFFFFFFF AND PUSH20 0xFFFFFFFFFFFFFFFFFFFFFFFFFFFFFFFFFFFFFFFF AND DUP2 MSTORE PUSH1 0x20 ADD SWAP1 DUP2 MSTORE PUSH1 0x20 ADD PUSH0 KECCAK256 DUP2 SWAP1 SSTORE POP PUSH0 PUSH32 0x0 PUSH20 0xFFFFFFFFFFFFFFFFFFFFFFFFFFFFFFFFFFFFFFFF AND PUSH4 0xA9059CBB CALLER DUP5 PUSH1 0x40 MLOAD DUP4 PUSH4 0xFFFFFFFF AND PUSH1 0xE0 SHL DUP2 MSTORE PUSH1 0x4 ADD PUSH2 0x8AB SWAP3 SWAP2 SWAP1 PUSH2 0x203D JUMP JUMPDEST PUSH1 0x20 PUSH1 0x40 MLOAD DUP1 DUP4 SUB DUP2 PUSH0 DUP8 GAS CALL ISZERO DUP1 ISZERO PUSH2 0x8C7 JUMPI RETURNDATASIZE PUSH0 DUP1 RETURNDATACOPY RETURNDATASIZE PUSH0 REVERT JUMPDEST POP POP POP POP PUSH1 0x40 MLOAD RETURNDATASIZE PUSH1 0x1F NOT PUSH1 0x1F DUP3 ADD AND DUP3 ADD DUP1 PUSH1 0x40 MSTORE POP DUP2 ADD SWAP1 PUSH2 0x8EB SWAP2 SWAP1 PUSH2 0x2012 JUMP JUMPDEST SWAP1 POP DUP1 PUSH2 0x968 JUMPI DUP2 DUP4 PUSH1 0x6 ADD PUSH0 CALLER PUSH20 0xFFFFFFFFFFFFFFFFFFFFFFFFFFFFFFFFFFFFFFFF AND PUSH20 0xFFFFFFFFFFFFFFFFFFFFFFFFFFFFFFFFFFFFFFFF AND DUP2 MSTORE PUSH1 0x20 ADD SWAP1 DUP2 MSTORE PUSH1 0x20 ADD PUSH0 KECCAK256 DUP2 SWAP1 SSTORE POP PUSH1 0x40 MLOAD PUSH32 0x43280EC900000000000000000000000000000000000000000000000000000000 DUP2 MSTORE PUSH1 0x4 ADD PUSH1 0x40 MLOAD DUP1 SWAP2 SUB SWAP1 REVERT JUMPDEST POP POP POP POP JUMP JUMPDEST PUSH0 PUSH1 0x2 PUSH0 DUP4 PUSH20 0xFFFFFFFFFFFFFFFFFFFFFFFFFFFFFFFFFFFFFFFF AND PUSH20 0xFFFFFFFFFFFFFFFFFFFFFFFFFFFFFFFFFFFFFFFF AND DUP2 MSTORE PUSH1 0x20 ADD SWAP1 DUP2 MSTORE PUSH1 0x20 ADD PUSH0 KECCAK256 SLOAD SWAP1 POP SWAP2 SWAP1 POP JUMP JUMPDEST PUSH32 0x0 PUSH20 0xFFFFFFFFFFFFFFFFFFFFFFFFFFFFFFFFFFFFFFFF AND CALLER PUSH20 0xFFFFFFFFFFFFFFFFFFFFFFFFFFFFFFFFFFFFFFFF AND EQ PUSH2 0xA39 JUMPI PUSH1 0x40 MLOAD PUSH32 0xCF84D5E300000000000000000000000000000000000000000000000000000000 DUP2 MSTORE PUSH1 0x4 ADD PUSH1 0x40 MLOAD DUP1 SWAP2 SUB SWAP1 REVERT JUMPDEST PUSH0 DUP2 LT ISZERO PUSH2 0xA7C JUMPI PUSH1 0x40 MLOAD PUSH32 0x8C379A000000000000000000000000000000000000000000000000000000000 DUP2 MSTORE PUSH1 0x4 ADD PUSH2 0xA73 SWAP1 PUSH2 0x1C8B JUMP JUMPDEST PUSH1 0x40 MLOAD DUP1 SWAP2 SUB SWAP1 REVERT JUMPDEST DUP1 PUSH1 0x1 PUSH0 DUP5 PUSH20 0xFFFFFFFFFFFFFFFFFFFFFFFFFFFFFFFFFFFFFFFF AND PUSH20 0xFFFFFFFFFFFFFFFFFFFFFFFFFFFFFFFFFFFFFFFF AND DUP2 MSTORE PUSH1 0x20 ADD SWAP1 DUP2 MSTORE PUSH1 0x20 ADD PUSH0 KECCAK256 PUSH0 DUP3 DUP3 SLOAD PUSH2 0xAC8 SWAP2 SWAP1 PUSH2 0x1D09 JUMP JUMPDEST SWAP3 POP POP DUP2 SWAP1 SSTORE POP POP POP JUMP JUMPDEST PUSH32 0x0 PUSH20 0xFFFFFFFFFFFFFFFFFFFFFFFFFFFFFFFFFFFFFFFF AND CALLER PUSH20 0xFFFFFFFFFFFFFFFFFFFFFFFFFFFFFFFFFFFFFFFF AND EQ PUSH2 0xB58 JUMPI PUSH1 0x40 MLOAD PUSH32 0xCF84D5E300000000000000000000000000000000000000000000000000000000 DUP2 MSTORE PUSH1 0x4 ADD PUSH1 0x40 MLOAD DUP1 SWAP2 SUB SWAP1 REVERT JUMPDEST DUP1 PUSH1 0x1 PUSH0 DUP5 PUSH20 0xFFFFFFFFFFFFFFFFFFFFFFFFFFFFFFFFFFFFFFFF AND PUSH20 0xFFFFFFFFFFFFFFFFFFFFFFFFFFFFFFFFFFFFFFFF AND DUP2 MSTORE PUSH1 0x20 ADD SWAP1 DUP2 MSTORE PUSH1 0x20 ADD PUSH0 KECCAK256 PUSH0 DUP3 DUP3 SLOAD PUSH2 0xBA4 SWAP2 SWAP1 PUSH2 0x1CD6 JUMP JUMPDEST SWAP3 POP POP DUP2 SWAP1 SSTORE POP POP POP JUMP JUMPDEST PUSH0 DUP1 PUSH0 CALLER PUSH20 0xFFFFFFFFFFFFFFFFFFFFFFFFFFFFFFFFFFFFFFFF AND PUSH20 0xFFFFFFFFFFFFFFFFFFFFFFFFFFFFFFFFFFFFFFFF AND DUP2 MSTORE PUSH1 0x20 ADD SWAP1 DUP2 MSTORE PUSH1 0x20 ADD PUSH0 KECCAK256 SLOAD SWAP1 POP PUSH0 DUP1 PUSH0 CALLER PUSH20 0xFFFFFFFFFFFFFFFFFFFFFFFFFFFFFFFFFFFFFFFF AND PUSH20 0xFFFFFFFFFFFFFFFFFFFFFFFFFFFFFFFFFFFFFFFF AND DUP2 MSTORE PUSH1 0x20 ADD SWAP1 DUP2 MSTORE PUSH1 0x20 ADD PUSH0 KECCAK256 DUP2 SWAP1 SSTORE POP PUSH0 PUSH32 0x0 PUSH20 0xFFFFFFFFFFFFFFFFFFFFFFFFFFFFFFFFFFFFFFFF AND PUSH4 0xA9059CBB CALLER DUP5 PUSH1 0x40 MLOAD DUP4 PUSH4 0xFFFFFFFF AND PUSH1 0xE0 SHL DUP2 MSTORE PUSH1 0x4 ADD PUSH2 0xC8C SWAP3 SWAP2 SWAP1 PUSH2 0x203D JUMP JUMPDEST PUSH1 0x20 PUSH1 0x40 MLOAD DUP1 DUP4 SUB DUP2 PUSH0 DUP8 GAS CALL ISZERO DUP1 ISZERO PUSH2 0xCA8 JUMPI RETURNDATASIZE PUSH0 DUP1 RETURNDATACOPY RETURNDATASIZE PUSH0 REVERT JUMPDEST POP POP POP POP PUSH1 0x40 MLOAD RETURNDATASIZE PUSH1 0x1F NOT PUSH1 0x1F DUP3 ADD AND DUP3 ADD DUP1 PUSH1 0x40 MSTORE POP DUP2 ADD SWAP1 PUSH2 0xCCC SWAP2 SWAP1 PUSH2 0x2012 JUMP JUMPDEST SWAP1 POP DUP1 PUSH2 0xD46 JUMPI DUP2 PUSH0 DUP1 CALLER PUSH20 0xFFFFFFFFFFFFFFFFFFFFFFFFFFFFFFFFFFFFFFFF AND PUSH20 0xFFFFFFFFFFFFFFFFFFFFFFFFFFFFFFFFFFFFFFFF AND DUP2 MSTORE PUSH1 0x20 ADD SWAP1 DUP2 MSTORE PUSH1 0x20 ADD PUSH0 KECCAK256 DUP2 SWAP1 SSTORE POP PUSH1 0x40 MLOAD PUSH32 0x43280EC900000000000000000000000000000000000000000000000000000000 DUP2 MSTORE PUSH1 0x4 ADD PUSH1 0x40 MLOAD DUP1 SWAP2 SUB SWAP1 REVERT JUMPDEST POP POP JUMP JUMPDEST PUSH0 DUP6 GT ISZERO DUP1 PUSH2 0xD59 JUMPI POP DUP3 DUP5 LT ISZERO JUMPDEST DUP1 PUSH2 0xD64 JUMPI POP PUSH0 DUP3 GT ISZERO JUMPDEST DUP1 PUSH2 0xD6F JUMPI POP PUSH0 DUP2 GT ISZERO JUMPDEST DUP1 PUSH2 0xD79 JUMPI POP DUP5 DUP3 GT JUMPDEST ISZERO PUSH2 0xDB0 JUMPI PUSH1 0x40 MLOAD PUSH32 0x9821950800000000000000000000000000000000000000000000000000000000 DUP2 MSTORE PUSH1 0x4 ADD PUSH1 0x40 MLOAD DUP1 SWAP2 SUB SWAP1 REVERT JUMPDEST PUSH0 PUSH1 0x3 DUP8 PUSH1 0x40 MLOAD PUSH2 0xDC1 SWAP2 SWAP1 PUSH2 0x1B40 JUMP JUMPDEST SWAP1 DUP2 MSTORE PUSH1 0x20 ADD PUSH1 0x40 MLOAD DUP1 SWAP2 SUB SWAP1 KECCAK256 SWAP1 POP CALLER DUP2 PUSH0 ADD PUSH0 PUSH2 0x100 EXP DUP2 SLOAD DUP2 PUSH20 0xFFFFFFFFFFFFFFFFFFFFFFFFFFFFFFFFFFFFFFFF MUL NOT AND SWAP1 DUP4 PUSH20 0xFFFFFFFFFFFFFFFFFFFFFFFFFFFFFFFFFFFFFFFF AND MUL OR SWAP1 SSTORE POP DUP6 DUP2 PUSH1 0x1 ADD DUP2 SWAP1 SSTORE POP DUP5 DUP2 PUSH1 0x2 ADD DUP2 SWAP1 SSTORE POP DUP4 DUP2 PUSH1 0x3 ADD DUP2 SWAP1 SSTORE POP DUP3 DUP2 PUSH1 0x4 ADD DUP2 SWAP1 SSTORE POP DUP2 DUP2 PUSH1 0x5 ADD DUP2 SWAP1 SSTORE POP PUSH2 0xE49 CALLER DUP8 PUSH2 0x104A JUMP JUMPDEST POP POP POP POP POP POP POP JUMP JUMPDEST PUSH0 DUP1 PUSH0 DUP1 PUSH0 DUP1 PUSH0 PUSH1 0x3 DUP9 PUSH1 0x40 MLOAD PUSH2 0xE69 SWAP2 SWAP1 PUSH2 0x1B40 JUMP JUMPDEST SWAP1 DUP2 MSTORE PUSH1 0x20 ADD PUSH1 0x40 MLOAD DUP1 SWAP2 SUB SWAP1 KECCAK256 SWAP1 POP DUP1 PUSH0 ADD PUSH0 SWAP1 SLOAD SWAP1 PUSH2 0x100 EXP SWAP1 DIV PUSH20 0xFFFFFFFFFFFFFFFFFFFFFFFFFFFFFFFFFFFFFFFF AND DUP2 PUSH1 0x1 ADD SLOAD DUP3 PUSH1 0x2 ADD SLOAD DUP4 PUSH1 0x3 ADD SLOAD DUP5 PUSH1 0x4 ADD SLOAD DUP6 PUSH1 0x5 ADD SLOAD SWAP7 POP SWAP7 POP SWAP7 POP SWAP7 POP SWAP7 POP SWAP7 POP POP SWAP2 SWAP4 SWAP6 POP SWAP2 SWAP4 SWAP6 JUMP JUMPDEST PUSH32 0x0 PUSH20 0xFFFFFFFFFFFFFFFFFFFFFFFFFFFFFFFFFFFFFFFF AND CALLER PUSH20 0xFFFFFFFFFFFFFFFFFFFFFFFFFFFFFFFFFFFFFFFF AND EQ PUSH2 0xF50 JUMPI PUSH1 0x40 MLOAD PUSH32 0xCF84D5E300000000000000000000000000000000000000000000000000000000 DUP2 MSTORE PUSH1 0x4 ADD PUSH1 0x40 MLOAD DUP1 SWAP2 SUB SWAP1 REVERT JUMPDEST PUSH0 PUSH1 0x1 PUSH0 DUP4 PUSH20 0xFFFFFFFFFFFFFFFFFFFFFFFFFFFFFFFFFFFFFFFF AND PUSH20 0xFFFFFFFFFFFFFFFFFFFFFFFFFFFFFFFFFFFFFFFF AND DUP2 MSTORE PUSH1 0x20 ADD SWAP1 DUP2 MSTORE PUSH1 0x20 ADD PUSH0 KECCAK256 DUP2 SWAP1 SSTORE POP PUSH0 PUSH1 0x2 PUSH0 DUP4 PUSH20 0xFFFFFFFFFFFFFFFFFFFFFFFFFFFFFFFFFFFFFFFF AND PUSH20 0xFFFFFFFFFFFFFFFFFFFFFFFFFFFFFFFFFFFFFFFF AND DUP2 MSTORE PUSH1 0x20 ADD SWAP1 DUP2 MSTORE PUSH1 0x20 ADD PUSH0 KECCAK256 DUP2 SWAP1 SSTORE POP POP JUMP JUMPDEST PUSH0 PUSH1 0x3 DUP4 PUSH1 0x40 MLOAD PUSH2 0xFE8 SWAP2 SWAP1 PUSH2 0x1B40 JUMP JUMPDEST SWAP1 DUP2 MSTORE PUSH1 0x20 ADD PUSH1 0x40 MLOAD DUP1 SWAP2 SUB SWAP1 KECCAK256 SWAP1 POP DUP2 DUP2 PUSH1 0x7 ADD PUSH0 CALLER PUSH20 0xFFFFFFFFFFFFFFFFFFFFFFFFFFFFFFFFFFFFFFFF AND PUSH20 0xFFFFFFFFFFFFFFFFFFFFFFFFFFFFFFFFFFFFFFFF AND DUP2 MSTORE PUSH1 0x20 ADD SWAP1 DUP2 MSTORE PUSH1 0x20 ADD PUSH0 KECCAK256 SWAP1 DUP2 PUSH2 0x1044 SWAP2 SWAP1 PUSH2 0x1ED9 JUMP JUMPDEST POP POP POP POP JUMP JUMPDEST PUSH32 0x0 PUSH20 0xFFFFFFFFFFFFFFFFFFFFFFFFFFFFFFFFFFFFFFFF AND CALLER PUSH20 0xFFFFFFFFFFFFFFFFFFFFFFFFFFFFFFFFFFFFFFFF AND EQ PUSH2 0x10CF JUMPI PUSH1 0x40 MLOAD PUSH32 0xCF84D5E300000000000000000000000000000000000000000000000000000000 DUP2 MSTORE PUSH1 0x4 ADD PUSH1 0x40 MLOAD DUP1 SWAP2 SUB SWAP1 REVERT JUMPDEST DUP1 PUSH1 0x1 PUSH0 DUP5 PUSH20 0xFFFFFFFFFFFFFFFFFFFFFFFFFFFFFFFFFFFFFFFF AND PUSH20 0xFFFFFFFFFFFFFFFFFFFFFFFFFFFFFFFFFFFFFFFF AND DUP2 MSTORE PUSH1 0x20 ADD SWAP1 DUP2 MSTORE PUSH1 0x20 ADD PUSH0 KECCAK256 SLOAD LT ISZERO PUSH2 0x114F JUMPI PUSH1 0x40 MLOAD PUSH32 0x8C379A000000000000000000000000000000000000000000000000000000000 DUP2 MSTORE PUSH1 0x4 ADD PUSH2 0x1146 SWAP1 PUSH2 0x20D4 JUMP JUMPDEST PUSH1 0x40 MLOAD DUP1 SWAP2 SUB SWAP1 REVERT JUMPDEST PUSH0 DUP2 LT ISZERO PUSH2 0x1192 JUMPI PUSH1 0x40 MLOAD PUSH32 0x8C379A000000000000000000000000000000000000000000000000000000000 DUP2 MSTORE PUSH1 0x4 ADD PUSH2 0x1189 SWAP1 PUSH2 0x213C JUMP JUMPDEST PUSH1 0x40 MLOAD DUP1 SWAP2 SUB SWAP1 REVERT JUMPDEST DUP1 PUSH1 0x1 PUSH0 DUP5 PUSH20 0xFFFFFFFFFFFFFFFFFFFFFFFFFFFFFFFFFFFFFFFF AND PUSH20 0xFFFFFFFFFFFFFFFFFFFFFFFFFFFFFFFFFFFFFFFF AND DUP2 MSTORE PUSH1 0x20 ADD SWAP1 DUP2 MSTORE PUSH1 0x20 ADD PUSH0 KECCAK256 PUSH0 DUP3 DUP3 SLOAD PUSH2 0x11DE SWAP2 SWAP1 PUSH2 0x1D09 JUMP JUMPDEST SWAP3 POP POP DUP2 SWAP1 SSTORE POP DUP1 PUSH1 0x2 PUSH0 DUP5 PUSH20 0xFFFFFFFFFFFFFFFFFFFFFFFFFFFFFFFFFFFFFFFF AND PUSH20 0xFFFFFFFFFFFFFFFFFFFFFFFFFFFFFFFFFFFFFFFF AND DUP2 MSTORE PUSH1 0x20 ADD SWAP1 DUP2 MSTORE PUSH1 0x20 ADD PUSH0 KECCAK256 PUSH0 DUP3 DUP3 SLOAD PUSH2 0x1231 SWAP2 SWAP1 PUSH2 0x1CD6 JUMP JUMPDEST SWAP3 POP POP DUP2 SWAP1 SSTORE POP POP POP JUMP JUMPDEST PUSH0 PUSH1 0x3 DUP5 PUSH1 0x40 MLOAD PUSH2 0x124D SWAP2 SWAP1 PUSH2 0x1B40 JUMP JUMPDEST SWAP1 DUP2 MSTORE PUSH1 0x20 ADD PUSH1 0x40 MLOAD DUP1 SWAP2 SUB SWAP1 KECCAK256 PUSH1 0x6 ADD PUSH0 CALLER PUSH20 0xFFFFFFFFFFFFFFFFFFFFFFFFFFFFFFFFFFFFFFFF AND PUSH20 0xFFFFFFFFFFFFFFFFFFFFFFFFFFFFFFFFFFFFFFFF AND DUP2 MSTORE PUSH1 0x20 ADD SWAP1 DUP2 MSTORE PUSH1 0x20 ADD PUSH0 KECCAK256 SLOAD SWAP1 POP PUSH0 PUSH1 0x3 DUP6 PUSH1 0x40 MLOAD PUSH2 0x12AD SWAP2 SWAP1 PUSH2 0x1B40 JUMP JUMPDEST SWAP1 DUP2 MSTORE PUSH1 0x20 ADD PUSH1 0x40 MLOAD DUP1 SWAP2 SUB SWAP1 KECCAK256 PUSH1 0x6 ADD PUSH0 CALLER PUSH20 0xFFFFFFFFFFFFFFFFFFFFFFFFFFFFFFFFFFFFFFFF AND PUSH20 0xFFFFFFFFFFFFFFFFFFFFFFFFFFFFFFFFFFFFFFFF AND DUP2 MSTORE PUSH1 0x20 ADD SWAP1 DUP2 MSTORE PUSH1 0x20 ADD PUSH0 KECCAK256 DUP2 SWAP1 SSTORE POP PUSH0 PUSH1 0x3 DUP6 PUSH1 0x40 MLOAD PUSH2 0x130E SWAP2 SWAP1 PUSH2 0x1B40 JUMP JUMPDEST SWAP1 DUP2 MSTORE PUSH1 0x20 ADD PUSH1 0x40 MLOAD DUP1 SWAP2 SUB SWAP1 KECCAK256 PUSH0 ADD PUSH0 SWAP1 SLOAD SWAP1 PUSH2 0x100 EXP SWAP1 DIV PUSH20 0xFFFFFFFFFFFFFFFFFFFFFFFFFFFFFFFFFFFFFFFF AND SWAP1 POP DUP3 DUP3 PUSH2 0x134C SWAP2 SWAP1 PUSH2 0x1CD6 JUMP JUMPDEST PUSH0 DUP1 DUP4 PUSH20 0xFFFFFFFFFFFFFFFFFFFFFFFFFFFFFFFFFFFFFFFF AND PUSH20 0xFFFFFFFFFFFFFFFFFFFFFFFFFFFFFFFFFFFFFFFF AND DUP2 MSTORE PUSH1 0x20 ADD SWAP1 DUP2 MSTORE PUSH1 0x20 ADD PUSH0 KECCAK256 PUSH0 DUP3 DUP3 SLOAD PUSH2 0x1396 SWAP2 SWAP1 PUSH2 0x1CD6 JUMP JUMPDEST SWAP3 POP POP DUP2 SWAP1 SSTORE POP PUSH0 PUSH1 0x2 PUSH0 DUP4 PUSH20 0xFFFFFFFFFFFFFFFFFFFFFFFFFFFFFFFFFFFFFFFF AND PUSH20 0xFFFFFFFFFFFFFFFFFFFFFFFFFFFFFFFFFFFFFFFF AND DUP2 MSTORE PUSH1 0x20 ADD SWAP1 DUP2 MSTORE PUSH1 0x20 ADD PUSH0 KECCAK256 DUP2 SWAP1 SSTORE POP DUP4 PUSH1 0x1 PUSH0 CALLER PUSH20 0xFFFFFFFFFFFFFFFFFFFFFFFFFFFFFFFFFFFFFFFF AND PUSH20 0xFFFFFFFFFFFFFFFFFFFFFFFFFFFFFFFFFFFFFFFF AND DUP2 MSTORE PUSH1 0x20 ADD SWAP1 DUP2 MSTORE PUSH1 0x20 ADD PUSH0 KECCAK256 PUSH0 DUP3 DUP3 SLOAD PUSH2 0x142B SWAP2 SWAP1 PUSH2 0x1CD6 JUMP JUMPDEST SWAP3 POP POP DUP2 SWAP1 SSTORE POP PUSH0 PUSH32 0x0 PUSH20 0xFFFFFFFFFFFFFFFFFFFFFFFFFFFFFFFFFFFFFFFF AND PUSH4 0x23B872DD CALLER ADDRESS DUP8 PUSH1 0x40 MLOAD DUP5 PUSH4 0xFFFFFFFF AND PUSH1 0xE0 SHL DUP2 MSTORE PUSH1 0x4 ADD PUSH2 0x1490 SWAP4 SWAP3 SWAP2 SWAP1 PUSH2 0x1FA8 JUMP JUMPDEST PUSH1 0x20 PUSH1 0x40 MLOAD DUP1 DUP4 SUB DUP2 PUSH0 DUP8 GAS CALL ISZERO DUP1 ISZERO PUSH2 0x14AC JUMPI RETURNDATASIZE PUSH0 DUP1 RETURNDATACOPY RETURNDATASIZE PUSH0 REVERT JUMPDEST POP POP POP POP PUSH1 0x40 MLOAD RETURNDATASIZE PUSH1 0x1F NOT PUSH1 0x1F DUP3 ADD AND DUP3 ADD DUP1 PUSH1 0x40 MSTORE POP DUP2 ADD SWAP1 PUSH2 0x14D0 SWAP2 SWAP1 PUSH2 0x2012 JUMP JUMPDEST SWAP1 POP DUP1 PUSH2 0x1509 JUMPI PUSH1 0x40 MLOAD PUSH32 0x43280EC900000000000000000000000000000000000000000000000000000000 DUP2 MSTORE PUSH1 0x4 ADD PUSH1 0x40 MLOAD DUP1 SWAP2 SUB SWAP1 REVERT JUMPDEST POP POP POP POP POP POP JUMP JUMPDEST PUSH0 PUSH1 0x1 PUSH0 DUP4 PUSH20 0xFFFFFFFFFFFFFFFFFFFFFFFFFFFFFFFFFFFFFFFF AND PUSH20 0xFFFFFFFFFFFFFFFFFFFFFFFFFFFFFFFFFFFFFFFF AND DUP2 MSTORE PUSH1 0x20 ADD SWAP1 DUP2 MSTORE PUSH1 0x20 ADD PUSH0 KECCAK256 SLOAD SWAP1 POP SWAP2 SWAP1 POP JUMP JUMPDEST PUSH0 PUSH1 0x40 MLOAD SWAP1 POP SWAP1 JUMP JUMPDEST PUSH0 DUP1 REVERT JUMPDEST PUSH0 DUP1 REVERT JUMPDEST PUSH0 DUP1 REVERT JUMPDEST PUSH0 DUP1 REVERT JUMPDEST PUSH0 PUSH1 0x1F NOT PUSH1 0x1F DUP4 ADD AND SWAP1 POP SWAP2 SWAP1 POP JUMP JUMPDEST PUSH32 0x4E487B7100000000000000000000000000000000000000000000000000000000 PUSH0 MSTORE PUSH1 0x41 PUSH1 0x4 MSTORE PUSH1 0x24 PUSH0 REVERT JUMPDEST PUSH2 0x15B6 DUP3 PUSH2 0x1570 JUMP JUMPDEST DUP2 ADD DUP2 DUP2 LT PUSH8 0xFFFFFFFFFFFFFFFF DUP3 GT OR ISZERO PUSH2 0x15D5 JUMPI PUSH2 0x15D4 PUSH2 0x1580 JUMP JUMPDEST JUMPDEST DUP1 PUSH1 0x40 MSTORE POP POP POP JUMP JUMPDEST PUSH0 PUSH2 0x15E7 PUSH2 0x1557 JUMP JUMPDEST SWAP1 POP PUSH2 0x15F3 DUP3 DUP3 PUSH2 0x15AD JUMP JUMPDEST SWAP2 SWAP1 POP JUMP JUMPDEST PUSH0 PUSH8 0xFFFFFFFFFFFFFFFF DUP3 GT ISZERO PUSH2 0x1612 JUMPI PUSH2 0x1611 PUSH2 0x1580 JUMP JUMPDEST JUMPDEST PUSH2 0x161B DUP3 PUSH2 0x1570 JUMP JUMPDEST SWAP1 POP PUSH1 0x20 DUP2 ADD SWAP1 POP SWAP2 SWAP1 POP JUMP JUMPDEST DUP3 DUP2 DUP4 CALLDATACOPY PUSH0 DUP4 DUP4 ADD MSTORE POP POP POP JUMP JUMPDEST PUSH0 PUSH2 0x1648 PUSH2 0x1643 DUP5 PUSH2 0x15F8 JUMP JUMPDEST PUSH2 0x15DE JUMP JUMPDEST SWAP1 POP DUP3 DUP2 MSTORE PUSH1 0x20 DUP2 ADD DUP5 DUP5 DUP5 ADD GT ISZERO PUSH2 0x1664 JUMPI PUSH2 0x1663 PUSH2 0x156C JUMP JUMPDEST JUMPDEST PUSH2 0x166F DUP5 DUP3 DUP6 PUSH2 0x1628 JUMP JUMPDEST POP SWAP4 SWAP3 POP POP POP JUMP JUMPDEST PUSH0 DUP3 PUSH1 0x1F DUP4 ADD SLT PUSH2 0x168B JUMPI PUSH2 0x168A PUSH2 0x1568 JUMP JUMPDEST JUMPDEST DUP2 CALLDATALOAD PUSH2 0x169B DUP5 DUP3 PUSH1 0x20 DUP7 ADD PUSH2 0x1636 JUMP JUMPDEST SWAP2 POP POP SWAP3 SWAP2 POP POP JUMP JUMPDEST PUSH0 PUSH1 0x20 DUP3 DUP5 SUB SLT ISZERO PUSH2 0x16B9 JUMPI PUSH2 0x16B8 PUSH2 0x1560 JUMP JUMPDEST JUMPDEST PUSH0 DUP3 ADD CALLDATALOAD PUSH8 0xFFFFFFFFFFFFFFFF DUP2 GT ISZERO PUSH2 0x16D6 JUMPI PUSH2 0x16D5 PUSH2 0x1564 JUMP JUMPDEST JUMPDEST PUSH2 0x16E2 DUP5 DUP3 DUP6 ADD PUSH2 0x1677 JUMP JUMPDEST SWAP2 POP POP SWAP3 SWAP2 POP POP JUMP JUMPDEST PUSH0 DUP2 MLOAD SWAP1 POP SWAP2 SWAP1 POP JUMP JUMPDEST PUSH0 DUP3 DUP3 MSTORE PUSH1 0x20 DUP3 ADD SWAP1 POP SWAP3 SWAP2 POP POP JUMP JUMPDEST DUP3 DUP2 DUP4 MCOPY PUSH0 DUP4 DUP4 ADD MSTORE POP POP POP JUMP JUMPDEST PUSH0 PUSH2 0x171D DUP3 PUSH2 0x16EB JUMP JUMPDEST PUSH2 0x1727 DUP2 DUP6 PUSH2 0x16F5 JUMP JUMPDEST SWAP4 POP PUSH2 0x1737 DUP2 DUP6 PUSH1 0x20 DUP7 ADD PUSH2 0x1705 JUMP JUMPDEST PUSH2 0x1740 DUP2 PUSH2 0x1570 JUMP JUMPDEST DUP5 ADD SWAP2 POP POP SWAP3 SWAP2 POP POP JUMP JUMPDEST PUSH0 PUSH1 0x20 DUP3 ADD SWAP1 POP DUP2 DUP2 SUB PUSH0 DUP4 ADD MSTORE PUSH2 0x1763 DUP2 DUP5 PUSH2 0x1713 JUMP JUMPDEST SWAP1 POP SWAP3 SWAP2 POP POP JUMP JUMPDEST PUSH0 PUSH20 0xFFFFFFFFFFFFFFFFFFFFFFFFFFFFFFFFFFFFFFFF DUP3 AND SWAP1 POP SWAP2 SWAP1 POP JUMP JUMPDEST PUSH0 PUSH2 0x1794 DUP3 PUSH2 0x176B JUMP JUMPDEST SWAP1 POP SWAP2 SWAP1 POP JUMP JUMPDEST PUSH2 0x17A4 DUP2 PUSH2 0x178A JUMP JUMPDEST DUP2 EQ PUSH2 0x17AE JUMPI PUSH0 DUP1 REVERT JUMPDEST POP JUMP JUMPDEST PUSH0 DUP2 CALLDATALOAD SWAP1 POP PUSH2 0x17BF DUP2 PUSH2 0x179B JUMP JUMPDEST SWAP3 SWAP2 POP POP JUMP JUMPDEST PUSH0 DUP2 SWAP1 POP SWAP2 SWAP1 POP JUMP JUMPDEST PUSH2 0x17D7 DUP2 PUSH2 0x17C5 JUMP JUMPDEST DUP2 EQ PUSH2 0x17E1 JUMPI PUSH0 DUP1 REVERT JUMPDEST POP JUMP JUMPDEST PUSH0 DUP2 CALLDATALOAD SWAP1 POP PUSH2 0x17F2 DUP2 PUSH2 0x17CE JUMP JUMPDEST SWAP3 SWAP2 POP POP JUMP JUMPDEST PUSH0 DUP1 PUSH1 0x40 DUP4 DUP6 SUB SLT ISZERO PUSH2 0x180E JUMPI PUSH2 0x180D PUSH2 0x1560 JUMP JUMPDEST JUMPDEST PUSH0 PUSH2 0x181B DUP6 DUP3 DUP7 ADD PUSH2 0x17B1 JUMP JUMPDEST SWAP3 POP POP PUSH1 0x20 PUSH2 0x182C DUP6 DUP3 DUP7 ADD PUSH2 0x17E4 JUMP JUMPDEST SWAP2 POP POP SWAP3 POP SWAP3 SWAP1 POP JUMP JUMPDEST PUSH0 DUP1 PUSH1 0x40 DUP4 DUP6 SUB SLT ISZERO PUSH2 0x184C JUMPI PUSH2 0x184B PUSH2 0x1560 JUMP JUMPDEST JUMPDEST PUSH0 DUP4 ADD CALLDATALOAD PUSH8 0xFFFFFFFFFFFFFFFF DUP2 GT ISZERO PUSH2 0x1869 JUMPI PUSH2 0x1868 PUSH2 0x1564 JUMP JUMPDEST JUMPDEST PUSH2 0x1875 DUP6 DUP3 DUP7 ADD PUSH2 0x1677 JUMP JUMPDEST SWAP3 POP POP PUSH1 0x20 DUP4 ADD CALLDATALOAD PUSH8 0xFFFFFFFFFFFFFFFF DUP2 GT ISZERO PUSH2 0x1896 JUMPI PUSH2 0x1895 PUSH2 0x1564 JUMP JUMPDEST JUMPDEST PUSH2 0x18A2 DUP6 DUP3 DUP7 ADD PUSH2 0x1677 JUMP JUMPDEST SWAP2 POP POP SWAP3 POP SWAP3 SWAP1 POP JUMP JUMPDEST PUSH0 DUP1 PUSH0 PUSH1 0x60 DUP5 DUP7 SUB SLT ISZERO PUSH2 0x18C3 JUMPI PUSH2 0x18C2 PUSH2 0x1560 JUMP JUMPDEST JUMPDEST PUSH0 DUP5 ADD CALLDATALOAD PUSH8 0xFFFFFFFFFFFFFFFF DUP2 GT ISZERO PUSH2 0x18E0 JUMPI PUSH2 0x18DF PUSH2 0x1564 JUMP JUMPDEST JUMPDEST PUSH2 0x18EC DUP7 DUP3 DUP8 ADD PUSH2 0x1677 JUMP JUMPDEST SWAP4 POP POP PUSH1 0x20 PUSH2 0x18FD DUP7 DUP3 DUP8 ADD PUSH2 0x17E4 JUMP JUMPDEST SWAP3 POP POP PUSH1 0x40 DUP5 ADD CALLDATALOAD PUSH8 0xFFFFFFFFFFFFFFFF DUP2 GT ISZERO PUSH2 0x191E JUMPI PUSH2 0x191D PUSH2 0x1564 JUMP JUMPDEST JUMPDEST PUSH2 0x192A DUP7 DUP3 DUP8 ADD PUSH2 0x1677 JUMP JUMPDEST SWAP2 POP POP SWAP3 POP SWAP3 POP SWAP3 JUMP JUMPDEST PUSH0 PUSH1 0x20 DUP3 DUP5 SUB SLT ISZERO PUSH2 0x1949 JUMPI PUSH2 0x1948 PUSH2 0x1560 JUMP JUMPDEST JUMPDEST PUSH0 PUSH2 0x1956 DUP5 DUP3 DUP6 ADD PUSH2 0x17B1 JUMP JUMPDEST SWAP2 POP POP SWAP3 SWAP2 POP POP JUMP JUMPDEST PUSH2 0x1968 DUP2 PUSH2 0x17C5 JUMP JUMPDEST DUP3 MSTORE POP POP JUMP JUMPDEST PUSH0 PUSH1 0x20 DUP3 ADD SWAP1 POP PUSH2 0x1981 PUSH0 DUP4 ADD DUP5 PUSH2 0x195F JUMP JUMPDEST SWAP3 SWAP2 POP POP JUMP JUMPDEST PUSH0 DUP1 PUSH0 DUP1 PUSH0 DUP1 PUSH1 0xC0 DUP8 DUP10 SUB SLT ISZERO PUSH2 0x19A1 JUMPI PUSH2 0x19A0 PUSH2 0x1560 JUMP JUMPDEST JUMPDEST PUSH0 DUP8 ADD CALLDATALOAD PUSH8 0xFFFFFFFFFFFFFFFF DUP2 GT ISZERO PUSH2 0x19BE JUMPI PUSH2 0x19BD PUSH2 0x1564 JUMP JUMPDEST JUMPDEST PUSH2 0x19CA DUP10 DUP3 DUP11 ADD PUSH2 0x1677 JUMP JUMPDEST SWAP7 POP POP PUSH1 0x20 PUSH2 0x19DB DUP10 DUP3 DUP11 ADD PUSH2 0x17E4 JUMP JUMPDEST SWAP6 POP POP PUSH1 0x40 PUSH2 0x19EC DUP10 DUP3 DUP11 ADD PUSH2 0x17E4 JUMP JUMPDEST SWAP5 POP POP PUSH1 0x60 PUSH2 0x19FD DUP10 DUP3 DUP11 ADD PUSH2 0x17E4 JUMP JUMPDEST SWAP4 POP POP PUSH1 0x80 PUSH2 0x1A0E DUP10 DUP3 DUP11 ADD PUSH2 0x17E4 JUMP JUMPDEST SWAP3 POP POP PUSH1 0xA0 PUSH2 0x1A1F DUP10 DUP3 DUP11 ADD PUSH2 0x17E4 JUMP JUMPDEST SWAP2 POP POP SWAP3 SWAP6 POP SWAP3 SWAP6 POP SWAP3 SWAP6 JUMP JUMPDEST PUSH2 0x1A35 DUP2 PUSH2 0x178A JUMP JUMPDEST DUP3 MSTORE POP POP JUMP JUMPDEST PUSH0 PUSH1 0xC0 DUP3 ADD SWAP1 POP PUSH2 0x1A4E PUSH0 DUP4 ADD DUP10 PUSH2 0x1A2C JUMP JUMPDEST PUSH2 0x1A5B PUSH1 0x20 DUP4 ADD DUP9 PUSH2 0x195F JUMP JUMPDEST PUSH2 0x1A68 PUSH1 0x40 DUP4 ADD DUP8 PUSH2 0x195F JUMP JUMPDEST PUSH2 0x1A75 PUSH1 0x60 DUP4 ADD DUP7 PUSH2 0x195F JUMP JUMPDEST PUSH2 0x1A82 PUSH1 0x80 DUP4 ADD DUP6 PUSH2 0x195F JUMP JUMPDEST PUSH2 0x1A8F PUSH1 0xA0 DUP4 ADD DUP5 PUSH2 0x195F JUMP JUMPDEST SWAP8 SWAP7 POP POP POP POP POP POP POP JUMP JUMPDEST PUSH0 DUP1 PUSH0 PUSH1 0x60 DUP5 DUP7 SUB SLT ISZERO PUSH2 0x1AB1 JUMPI PUSH2 0x1AB0 PUSH2 0x1560 JUMP JUMPDEST JUMPDEST PUSH0 DUP5 ADD CALLDATALOAD PUSH8 0xFFFFFFFFFFFFFFFF DUP2 GT ISZERO PUSH2 0x1ACE JUMPI PUSH2 0x1ACD PUSH2 0x1564 JUMP JUMPDEST JUMPDEST PUSH2 0x1ADA DUP7 DUP3 DUP8 ADD PUSH2 0x1677 JUMP JUMPDEST SWAP4 POP POP PUSH1 0x20 PUSH2 0x1AEB DUP7 DUP3 DUP8 ADD PUSH2 0x17E4 JUMP JUMPDEST SWAP3 POP POP PUSH1 0x40 PUSH2 0x1AFC DUP7 DUP3 DUP8 ADD PUSH2 0x17E4 JUMP JUMPDEST SWAP2 POP POP SWAP3 POP SWAP3 POP SWAP3 JUMP JUMPDEST PUSH0 DUP2 SWAP1 POP SWAP3 SWAP2 POP POP JUMP JUMPDEST PUSH0 PUSH2 0x1B1A DUP3 PUSH2 0x16EB JUMP JUMPDEST PUSH2 0x1B24 DUP2 DUP6 PUSH2 0x1B06 JUMP JUMPDEST SWAP4 POP PUSH2 0x1B34 DUP2 DUP6 PUSH1 0x20 DUP7 ADD PUSH2 0x1705 JUMP JUMPDEST DUP1 DUP5 ADD SWAP2 POP POP SWAP3 SWAP2 POP POP JUMP JUMPDEST PUSH0 PUSH2 0x1B4B DUP3 DUP5 PUSH2 0x1B10 JUMP JUMPDEST SWAP2 POP DUP2 SWAP1 POP SWAP3 SWAP2 POP POP JUMP JUMPDEST PUSH32 0x4E487B7100000000000000000000000000000000000000000000000000000000 PUSH0 MSTORE PUSH1 0x22 PUSH1 0x4 MSTORE PUSH1 0x24 PUSH0 REVERT JUMPDEST PUSH0 PUSH1 0x2 DUP3 DIV SWAP1 POP PUSH1 0x1 DUP3 AND DUP1 PUSH2 0x1B9A JUMPI PUSH1 0x7F DUP3 AND SWAP2 POP JUMPDEST PUSH1 0x20 DUP3 LT DUP2 SUB PUSH2 0x1BAD JUMPI PUSH2 0x1BAC PUSH2 0x1B56 JUMP JUMPDEST JUMPDEST POP SWAP2 SWAP1 POP JUMP JUMPDEST PUSH32 0x756E467265657A696E6720616D6F756E74206973206772656174657220746861 PUSH0 DUP3 ADD MSTORE PUSH32 0x6E20617661696C61626C652E0000000000000000000000000000000000000000 PUSH1 0x20 DUP3 ADD MSTORE POP JUMP JUMPDEST PUSH0 PUSH2 0x1C0D PUSH1 0x2C DUP4 PUSH2 0x16F5 JUMP JUMPDEST SWAP2 POP PUSH2 0x1C18 DUP3 PUSH2 0x1BB3 JUMP JUMPDEST PUSH1 0x40 DUP3 ADD SWAP1 POP SWAP2 SWAP1 POP JUMP JUMPDEST PUSH0 PUSH1 0x20 DUP3 ADD SWAP1 POP DUP2 DUP2 SUB PUSH0 DUP4 ADD MSTORE PUSH2 0x1C3A DUP2 PUSH2 0x1C01 JUMP JUMPDEST SWAP1 POP SWAP2 SWAP1 POP JUMP JUMPDEST PUSH32 0x756E467265657A696E6720616D6F756E74206973206E6F207A72656F00000000 PUSH0 DUP3 ADD MSTORE POP JUMP JUMPDEST PUSH0 PUSH2 0x1C75 PUSH1 0x1C DUP4 PUSH2 0x16F5 JUMP JUMPDEST SWAP2 POP PUSH2 0x1C80 DUP3 PUSH2 0x1C41 JUMP JUMPDEST PUSH1 0x20 DUP3 ADD SWAP1 POP SWAP2 SWAP1 POP JUMP JUMPDEST PUSH0 PUSH1 0x20 DUP3 ADD SWAP1 POP DUP2 DUP2 SUB PUSH0 DUP4 ADD MSTORE PUSH2 0x1CA2 DUP2 PUSH2 0x1C69 JUMP JUMPDEST SWAP1 POP SWAP2 SWAP1 POP JUMP JUMPDEST PUSH32 0x4E487B7100000000000000000000000000000000000000000000000000000000 PUSH0 MSTORE PUSH1 0x11 PUSH1 0x4 MSTORE PUSH1 0x24 PUSH0 REVERT JUMPDEST PUSH0 PUSH2 0x1CE0 DUP3 PUSH2 0x17C5 JUMP JUMPDEST SWAP2 POP PUSH2 0x1CEB DUP4 PUSH2 0x17C5 JUMP JUMPDEST SWAP3 POP DUP3 DUP3 ADD SWAP1 POP DUP1 DUP3 GT ISZERO PUSH2 0x1D03 JUMPI PUSH2 0x1D02 PUSH2 0x1CA9 JUMP JUMPDEST JUMPDEST SWAP3 SWAP2 POP POP JUMP JUMPDEST PUSH0 PUSH2 0x1D13 DUP3 PUSH2 0x17C5 JUMP JUMPDEST SWAP2 POP PUSH2 0x1D1E DUP4 PUSH2 0x17C5 JUMP JUMPDEST SWAP3 POP DUP3 DUP3 SUB SWAP1 POP DUP2 DUP2 GT ISZERO PUSH2 0x1D36 JUMPI PUSH2 0x1D35 PUSH2 0x1CA9 JUMP JUMPDEST JUMPDEST SWAP3 SWAP2 POP POP JUMP JUMPDEST PUSH0 DUP2 SWAP1 POP DUP2 PUSH0 MSTORE PUSH1 0x20 PUSH0 KECCAK256 SWAP1 POP SWAP2 SWAP1 POP JUMP JUMPDEST PUSH0 PUSH1 0x20 PUSH1 0x1F DUP4 ADD DIV SWAP1 POP SWAP2 SWAP1 POP JUMP JUMPDEST PUSH0 DUP3 DUP3 SHL SWAP1 POP SWAP3 SWAP2 POP POP JUMP JUMPDEST PUSH0 PUSH1 0x8 DUP4 MUL PUSH2 0x1D98 PUSH32 0xFFFFFFFFFFFFFFFFFFFFFFFFFFFFFFFFFFFFFFFFFFFFFFFFFFFFFFFFFFFFFFFF DUP3 PUSH2 0x1D5D JUMP JUMPDEST PUSH2 0x1DA2 DUP7 DUP4 PUSH2 0x1D5D JUMP JUMPDEST SWAP6 POP DUP1 NOT DUP5 AND SWAP4 POP DUP1 DUP7 AND DUP5 OR SWAP3 POP POP POP SWAP4 SWAP3 POP POP POP JUMP JUMPDEST PUSH0 DUP2 SWAP1 POP SWAP2 SWAP1 POP JUMP JUMPDEST PUSH0 PUSH2 0x1DDD PUSH2 0x1DD8 PUSH2 0x1DD3 DUP5 PUSH2 0x17C5 JUMP JUMPDEST PUSH2 0x1DBA JUMP JUMPDEST PUSH2 0x17C5 JUMP JUMPDEST SWAP1 POP SWAP2 SWAP1 POP JUMP JUMPDEST PUSH0 DUP2 SWAP1 POP SWAP2 SWAP1 POP JUMP JUMPDEST PUSH2 0x1DF6 DUP4 PUSH2 0x1DC3 JUMP JUMPDEST PUSH2 0x1E0A PUSH2 0x1E02 DUP3 PUSH2 0x1DE4 JUMP JUMPDEST DUP5 DUP5 SLOAD PUSH2 0x1D69 JUMP JUMPDEST DUP3 SSTORE POP POP POP POP JUMP JUMPDEST PUSH0 SWAP1 JUMP JUMPDEST PUSH2 0x1E1E PUSH2 0x1E12 JUMP JUMPDEST PUSH2 0x1E29 DUP2 DUP5 DUP5 PUSH2 0x1DED JUMP JUMPDEST POP POP POP JUMP JUMPDEST JUMPDEST DUP2 DUP2 LT ISZERO PUSH2 0x1E4C JUMPI PUSH2 0x1E41 PUSH0 DUP3 PUSH2 0x1E16 JUMP JUMPDEST PUSH1 0x1 DUP2 ADD SWAP1 POP PUSH2 0x1E2F JUMP JUMPDEST POP POP JUMP JUMPDEST PUSH1 0x1F DUP3 GT ISZERO PUSH2 0x1E91 JUMPI PUSH2 0x1E62 DUP2 PUSH2 0x1D3C JUMP JUMPDEST PUSH2 0x1E6B DUP5 PUSH2 0x1D4E JUMP JUMPDEST DUP2 ADD PUSH1 0x20 DUP6 LT ISZERO PUSH2 0x1E7A JUMPI DUP2 SWAP1 POP JUMPDEST PUSH2 0x1E8E PUSH2 0x1E86 DUP6 PUSH2 0x1D4E JUMP JUMPDEST DUP4 ADD DUP3 PUSH2 0x1E2E JUMP JUMPDEST POP POP JUMPDEST POP POP POP JUMP JUMPDEST PUSH0 DUP3 DUP3 SHR SWAP1 POP SWAP3 SWAP2 POP POP JUMP JUMPDEST PUSH0 PUSH2 0x1EB1 PUSH0 NOT DUP5 PUSH1 0x8 MUL PUSH2 0x1E96 JUMP JUMPDEST NOT DUP1 DUP4 AND SWAP2 POP POP SWAP3 SWAP2 POP POP JUMP JUMPDEST PUSH0 PUSH2 0x1EC9 DUP4 DUP4 PUSH2 0x1EA2 JUMP JUMPDEST SWAP2 POP DUP3 PUSH1 0x2 MUL DUP3 OR SWAP1 POP SWAP3 SWAP2 POP POP JUMP JUMPDEST PUSH2 0x1EE2 DUP3 PUSH2 0x16EB JUMP JUMPDEST PUSH8 0xFFFFFFFFFFFFFFFF DUP2 GT ISZERO PUSH2 0x1EFB JUMPI PUSH2 0x1EFA PUSH2 0x1580 JUMP JUMPDEST JUMPDEST PUSH2 0x1F05 DUP3 SLOAD PUSH2 0x1B83 JUMP JUMPDEST PUSH2 0x1F10 DUP3 DUP3 DUP6 PUSH2 0x1E50 JUMP JUMPDEST PUSH0 PUSH1 0x20 SWAP1 POP PUSH1 0x1F DUP4 GT PUSH1 0x1 DUP2 EQ PUSH2 0x1F41 JUMPI PUSH0 DUP5 ISZERO PUSH2 0x1F2F JUMPI DUP3 DUP8 ADD MLOAD SWAP1 POP JUMPDEST PUSH2 0x1F39 DUP6 DUP3 PUSH2 0x1EBE JUMP JUMPDEST DUP7 SSTORE POP PUSH2 0x1FA0 JUMP JUMPDEST PUSH1 0x1F NOT DUP5 AND PUSH2 0x1F4F DUP7 PUSH2 0x1D3C JUMP JUMPDEST PUSH0 JUMPDEST DUP3 DUP2 LT ISZERO PUSH2 0x1F76 JUMPI DUP5 DUP10 ADD MLOAD DUP3 SSTORE PUSH1 0x1 DUP3 ADD SWAP2 POP PUSH1 0x20 DUP6 ADD SWAP5 POP PUSH1 0x20 DUP2 ADD SWAP1 POP PUSH2 0x1F51 JUMP JUMPDEST DUP7 DUP4 LT ISZERO PUSH2 0x1F93 JUMPI DUP5 DUP10 ADD MLOAD PUSH2 0x1F8F PUSH1 0x1F DUP10 AND DUP3 PUSH2 0x1EA2 JUMP JUMPDEST DUP4 SSTORE POP JUMPDEST PUSH1 0x1 PUSH1 0x2 DUP9 MUL ADD DUP9 SSTORE POP POP POP JUMPDEST POP POP POP POP POP POP JUMP JUMPDEST PUSH0 PUSH1 0x60 DUP3 ADD SWAP1 POP PUSH2 0x1FBB PUSH0 DUP4 ADD DUP7 PUSH2 0x1A2C JUMP JUMPDEST PUSH2 0x1FC8 PUSH1 0x20 DUP4 ADD DUP6 PUSH2 0x1A2C JUMP JUMPDEST PUSH2 0x1FD5 PUSH1 0x40 DUP4 ADD DUP5 PUSH2 0x195F JUMP JUMPDEST SWAP5 SWAP4 POP POP POP POP JUMP JUMPDEST PUSH0 DUP2 ISZERO ISZERO SWAP1 POP SWAP2 SWAP1 POP JUMP JUMPDEST PUSH2 0x1FF1 DUP2 PUSH2 0x1FDD JUMP JUMPDEST DUP2 EQ PUSH2 0x1FFB JUMPI PUSH0 DUP1 REVERT JUMPDEST POP JUMP JUMPDEST PUSH0 DUP2 MLOAD SWAP1 POP PUSH2 0x200C DUP2 PUSH2 0x1FE8 JUMP JUMPDEST SWAP3 SWAP2 POP POP JUMP JUMPDEST PUSH0 PUSH1 0x20 DUP3 DUP5 SUB SLT ISZERO PUSH2 0x2027 JUMPI PUSH2 0x2026 PUSH2 0x1560 JUMP JUMPDEST JUMPDEST PUSH0 PUSH2 0x2034 DUP5 DUP3 DUP6 ADD PUSH2 0x1FFE JUMP JUMPDEST SWAP2 POP POP SWAP3 SWAP2 POP POP JUMP JUMPDEST PUSH0 PUSH1 0x40 DUP3 ADD SWAP1 POP PUSH2 0x2050 PUSH0 DUP4 ADD DUP6 PUSH2 0x1A2C JUMP JUMPDEST PUSH2 0x205D PUSH1 0x20 DUP4 ADD DUP5 PUSH2 0x195F JUMP JUMPDEST SWAP4 SWAP3 POP POP POP JUMP JUMPDEST PUSH32 0x467265657A696E6720616D6F756E74206973206C657373207468616E20617661 PUSH0 DUP3 ADD MSTORE PUSH32 0x696C61626C652E00000000000000000000000000000000000000000000000000 PUSH1 0x20 DUP3 ADD MSTORE POP JUMP JUMPDEST PUSH0 PUSH2 0x20BE PUSH1 0x27 DUP4 PUSH2 0x16F5 JUMP JUMPDEST SWAP2 POP PUSH2 0x20C9 DUP3 PUSH2 0x2064 JUMP JUMPDEST PUSH1 0x40 DUP3 ADD SWAP1 POP SWAP2 SWAP1 POP JUMP JUMPDEST PUSH0 PUSH1 0x20 DUP3 ADD SWAP1 POP DUP2 DUP2 SUB PUSH0 DUP4 ADD MSTORE PUSH2 0x20EB DUP2 PUSH2 0x20B2 JUMP JUMPDEST SWAP1 POP SWAP2 SWAP1 POP JUMP JUMPDEST PUSH32 0x467265657A696E6720616D6F756E74206973206E6F207A72656F000000000000 PUSH0 DUP3 ADD MSTORE POP JUMP JUMPDEST PUSH0 PUSH2 0x2126 PUSH1 0x1A DUP4 PUSH2 0x16F5 JUMP JUMPDEST SWAP2 POP PUSH2 0x2131 DUP3 PUSH2 0x20F2 JUMP JUMPDEST PUSH1 0x20 DUP3 ADD SWAP1 POP SWAP2 SWAP1 POP JUMP JUMPDEST PUSH0 PUSH1 0x20 DUP3 ADD SWAP1 POP DUP2 DUP2 SUB PUSH0 DUP4 ADD MSTORE PUSH2 0x2153 DUP2 PUSH2 0x211A JUMP JUMPDEST SWAP1 POP SWAP2 SWAP1 POP JUMP INVALID LOG2 PUSH5 0x6970667358 0x22 SLT KECCAK256 0xAA 0xE0 SWAP15 XOR MSTORE GASLIMIT 0xAA 0x2D SWAP5 SAR JUMPI 0xB5 LT LT SELFDESTRUCT REVERT MLOAD PUSH29 0x820F8B8F1DC77B96A175C7E6D9FA64736F6C634300081A003300000000 "
				},
				"gasEstimates": {
					"creation": {
						"codeDepositCost": "1718400",
						"executionCost": "infinite",
						"totalCost": "infinite"
					},
					"external": {
						"deposit(string,uint256,string)": "infinite",
						"destoryAllAllowance(address)": "infinite",
						"destoryAllowance(address,uint256)": "infinite",
						"finalizeAuctionAndTransferCarbon(string,uint256,uint256)": "infinite",
						"freezeAllowance(address,uint256)": "infinite",
						"getAllowance(address)": "2917",
						"getBidInfo(string)": "infinite",
						"getFrozenAllowance(address)": "2874",
						"getTrade(string)": "infinite",
						"issueAllowance(address,uint256)": "infinite",
						"refundDeposit(string)": "infinite",
						"setBidInfo(string,string)": "infinite",
						"setBidSecret(string,string)": "infinite",
						"startTrade(string,uint256,uint256,uint256,uint256,uint256)": "infinite",
						"unFreezeAllowance(address,uint256)": "infinite",
						"withdrawAcutionAmount()": "infinite"
					}
				},
				"methodIdentifiers": {
					"deposit(string,uint256,string)": "68b377ca",
					"destoryAllAllowance(address)": "adfd3a5f",
					"destoryAllowance(address,uint256)": "6c586a06",
					"finalizeAuctionAndTransferCarbon(string,uint256,uint256)": "d62b58ca",
					"freezeAllowance(address,uint256)": "d107a5cc",
					"getAllowance(address)": "eb5a662e",
					"getBidInfo(string)": "003997bd",
					"getFrozenAllowance(address)": "69a83c84",
					"getTrade(string)": "9fa637a8",
					"issueAllowance(address,uint256)": "733da7c8",
					"refundDeposit(string)": "69524d31",
					"setBidInfo(string,string)": "d0606507",
					"setBidSecret(string,string)": "4fe19125",
					"startTrade(string,uint256,uint256,uint256,uint256,uint256)": "8eae8d53",
					"unFreezeAllowance(address,uint256)": "19ec73e0",
					"withdrawAcutionAmount()": "7feab380"
				}
			},
			"storageLayout": {
				"storage": [
					{
						"astId": 92,
						"contract": "CarbonTrader.sol:CarbonTrader",
						"label": "s_auctionAmount",
						"offset": 0,
						"slot": "0",
						"type": "t_mapping(t_address,t_uint256)"
					},
					{
						"astId": 97,
						"contract": "CarbonTrader.sol:CarbonTrader",
						"label": "s_addressToAllowances",
						"offset": 0,
						"slot": "1",
						"type": "t_mapping(t_address,t_uint256)"
					},
					{
						"astId": 102,
						"contract": "CarbonTrader.sol:CarbonTrader",
						"label": "s_frozenAllowances",
						"offset": 0,
						"slot": "2",
						"type": "t_mapping(t_address,t_uint256)"
					},
					{
						"astId": 133,
						"contract": "CarbonTrader.sol:CarbonTrader",
						"label": "s_trade",
						"offset": 0,
						"slot": "3",
						"type": "t_mapping(t_string_memory_ptr,t_struct(trade)127_storage)"
					}
				],
				"types": {
					"t_address": {
						"encoding": "inplace",
						"label": "address",
						"numberOfBytes": "20"
					},
					"t_mapping(t_address,t_string_storage)": {
						"encoding": "mapping",
						"key": "t_address",
						"label": "mapping(address => string)",
						"numberOfBytes": "32",
						"value": "t_string_storage"
					},
					"t_mapping(t_address,t_uint256)": {
						"encoding": "mapping",
						"key": "t_address",
						"label": "mapping(address => uint256)",
						"numberOfBytes": "32",
						"value": "t_uint256"
					},
					"t_mapping(t_string_memory_ptr,t_struct(trade)127_storage)": {
						"encoding": "mapping",
						"key": "t_string_memory_ptr",
						"label": "mapping(string => struct CarbonTrader.trade)",
						"numberOfBytes": "32",
						"value": "t_struct(trade)127_storage"
					},
					"t_string_memory_ptr": {
						"encoding": "bytes",
						"label": "string",
						"numberOfBytes": "32"
					},
					"t_string_storage": {
						"encoding": "bytes",
						"label": "string",
						"numberOfBytes": "32"
					},
					"t_struct(trade)127_storage": {
						"encoding": "inplace",
						"label": "struct CarbonTrader.trade",
						"members": [
							{
								"astId": 104,
								"contract": "CarbonTrader.sol:CarbonTrader",
								"label": "seller",
								"offset": 0,
								"slot": "0",
								"type": "t_address"
							},
							{
								"astId": 106,
								"contract": "CarbonTrader.sol:CarbonTrader",
								"label": "sellAmount",
								"offset": 0,
								"slot": "1",
								"type": "t_uint256"
							},
							{
								"astId": 108,
								"contract": "CarbonTrader.sol:CarbonTrader",
								"label": "startTimestamp",
								"offset": 0,
								"slot": "2",
								"type": "t_uint256"
							},
							{
								"astId": 110,
								"contract": "CarbonTrader.sol:CarbonTrader",
								"label": "endTimestamp",
								"offset": 0,
								"slot": "3",
								"type": "t_uint256"
							},
							{
								"astId": 112,
								"contract": "CarbonTrader.sol:CarbonTrader",
								"label": "minimumBidAmount",
								"offset": 0,
								"slot": "4",
								"type": "t_uint256"
							},
							{
								"astId": 114,
								"contract": "CarbonTrader.sol:CarbonTrader",
								"label": "initPriceOfUnit",
								"offset": 0,
								"slot": "5",
								"type": "t_uint256"
							},
							{
								"astId": 118,
								"contract": "CarbonTrader.sol:CarbonTrader",
								"label": "deposits",
								"offset": 0,
								"slot": "6",
								"type": "t_mapping(t_address,t_uint256)"
							},
							{
								"astId": 122,
								"contract": "CarbonTrader.sol:CarbonTrader",
								"label": "bidinfos",
								"offset": 0,
								"slot": "7",
								"type": "t_mapping(t_address,t_string_storage)"
							},
							{
								"astId": 126,
								"contract": "CarbonTrader.sol:CarbonTrader",
								"label": "bidSecrets",
								"offset": 0,
								"slot": "8",
								"type": "t_mapping(t_address,t_string_storage)"
							}
						],
						"numberOfBytes": "288"
					},
					"t_uint256": {
						"encoding": "inplace",
						"label": "uint256",
						"numberOfBytes": "32"
					}
				}
			},
			"userdoc": {
				"kind": "user",
				"methods": {
					"constructor": {
						"notice": "合约部署时调用，将部署者设置为主人"
					},
					"deposit(string,uint256,string)": {
						"notice": "支付押金"
					},
					"destoryAllAllowance(address)": {
						"notice": "销毁所有额度"
					},
					"destoryAllowance(address,uint256)": {
						"notice": "销毁某些人的额度"
					},
					"finalizeAuctionAndTransferCarbon(string,uint256,uint256)": {
						"notice": "结算"
					},
					"freezeAllowance(address,uint256)": {
						"notice": "冻结额度"
					},
					"getAllowance(address)": {
						"notice": "查看自己的额度"
					},
					"getBidInfo(string)": {
						"notice": "获取用户的交易信息"
					},
					"getFrozenAllowance(address)": {
						"notice": "查询冻结额度"
					},
					"getTrade(string)": {
						"notice": "获得交易信息"
					},
					"issueAllowance(address,uint256)": {
						"notice": "发放额度，用于给每个用户发放额度"
					},
					"refundDeposit(string)": {
						"notice": "押金退还"
					},
					"setBidInfo(string,string)": {
						"notice": "设置交易信息"
					},
					"setBidSecret(string,string)": {
						"notice": "设置用户密钥"
					},
					"startTrade(string,uint256,uint256,uint256,uint256,uint256)": {
						"notice": "发起交易"
					},
					"unFreezeAllowance(address,uint256)": {
						"notice": "解冻额度"
					},
					"withdrawAcutionAmount()": {
						"notice": "卖家提现"
					}
				},
				"notice": "余额管理",
				"version": 1
			}
		}
	}
}